Component: ARM Compiler 5.06 update 6 (build 750) Tool: armlink [4d35ed]

==============================================================================

Section Cross References

    startup_fm33lc0xx.o(RESET) refers to startup_fm33lc0xx.o(STACK) for __initial_sp
    startup_fm33lc0xx.o(RESET) refers to startup_fm33lc0xx.o(.text) for Reset_Handler
    startup_fm33lc0xx.o(RESET) refers to bsp_gpio.o(i.NMI_Handler) for NMI_Handler
    startup_fm33lc0xx.o(RESET) refers to bsp_rtc.o(i.RTC_IRQHandler) for RTC_IRQHandler
    startup_fm33lc0xx.o(RESET) refers to bsp_uart.o(i.UART0_IRQHandler) for UART0_IRQHandler
    startup_fm33lc0xx.o(RESET) refers to cdc_vcp.o(i.UART1_IRQHandler) for UART1_IRQHandler
    startup_fm33lc0xx.o(RESET) refers to bsp_uart.o(i.UART4_IRQHandler) for UART4_IRQHandler
    startup_fm33lc0xx.o(RESET) refers to bsp_uart.o(i.UART5_IRQHandler) for UART5_IRQHandler
    startup_fm33lc0xx.o(RESET) refers to usb.o(i.USB_IRQHandler) for USB_IRQHandler
    startup_fm33lc0xx.o(RESET) refers to bsp_gpio.o(i.GPIO_IRQHandler) for GPIO_IRQHandler
    startup_fm33lc0xx.o(.text) refers to system_fm33lc0xx.o(i.SystemInit) for SystemInit
    startup_fm33lc0xx.o(.text) refers to entry.o(.ARM.Collect$$$$00000000) for __main
    mf_config.o(i.MF_Clock_Init) refers to fm33lc0xx_ll_gpio.o(i.LL_GPIO_ALLPIN_LPM_MODE) for LL_GPIO_ALLPIN_LPM_MODE
    main.o(i.main) refers to mf_config.o(i.MF_Clock_Init) for MF_Clock_Init
    main.o(i.main) refers to user_init.o(i.ClockInit) for ClockInit
    main.o(i.main) refers to user_init.o(i.SystickInit) for SystickInit
    main.o(i.main) refers to bsp.o(i.bsp_Init) for bsp_Init
    main.o(i.main) refers to usb.o(i.USBInit) for USBInit
==============================================================================

Removing Unused input sections from the image.

    Removing startup_fm33lc0xx.o(HEAP), (2048 bytes).
    Removing mf_config.o(.rev16_text), (4 bytes).
    Removing mf_config.o(.revsh_text), (4 bytes).
    Removing mf_config.o(i.Error_Handler), (2 bytes).
    Removing mf_config.o(i.MF_Config_Init), (2 bytes).
    Removing mf_config.o(i.MF_SystemClock_Config), (2 bytes).
    Removing mf_config.o(i.assert_failed), (2 bytes).
    Removing main.o(.rev16_text), (4 bytes).
    Removing main.o(.revsh_text), (4 bytes).
    Removing user_init.o(.rev16_text), (4 bytes).
    Removing user_init.o(.revsh_text), (4 bytes).
    Removing user_init.o(i.FoutInit), (68 bytes).
    Removing mcp3425.o(.rev16_text), (4 bytes).
    Removing mcp3425.o(.revsh_text), (4 bytes).
    Removing pt100.o(.rev16_text), (4 bytes).
    Removing pt100.o(.revsh_text), (4 bytes).
    Removing usb.o(.rev16_text), (4 bytes).
    Removing usb.o(.revsh_text), (4 bytes).
==============================================================================

Image Symbol Table

    Local Symbols

    Symbol Name                              Value     Ov Type        Size  Object(Section)

    RESET                                    0x00000000   Section      192  startup_fm33lc0xx.o(RESET)
    ../clib/../cmprslib/lz77c.c              0x00000000   Number         0  __dclz77c.o ABSOLUTE
    ../clib/microlib/division.c              0x00000000   Number         0  ldiv.o ABSOLUTE
    ../clib/microlib/division.c              0x00000000   Number         0  uidiv.o ABSOLUTE
    ../clib/microlib/division.c              0x00000000   Number         0  idiv.o ABSOLUTE
    ../clib/microlib/division.c              0x00000000   Number         0  uldiv.o ABSOLUTE
    ../clib/microlib/init/entry.s            0x00000000   Number         0  entry10a.o ABSOLUTE
    ../clib/microlib/init/entry.s            0x00000000   Number         0  entry9b.o ABSOLUTE
    ../clib/microlib/init/entry.s            0x00000000   Number         0  entry7b.o ABSOLUTE
    ../clib/microlib/init/entry.s            0x00000000   Number         0  entry.o ABSOLUTE
    ../clib/microlib/init/entry.s            0x00000000   Number         0  entry9a.o ABSOLUTE
    ../clib/microlib/init/entry.s            0x00000000   Number         0  entry8b.o ABSOLUTE
    ../clib/microlib/init/entry.s            0x00000000   Number         0  entry8a.o ABSOLUTE
    ../clib/microlib/init/entry.s            0x00000000   Number         0  entry2.o ABSOLUTE
    ../clib/microlib/init/entry.s            0x00000000   Number         0  entry5.o ABSOLUTE
    ../clib/microlib/init/entry.s            0x00000000   Number         0  entry7a.o ABSOLUTE
    ../clib/microlib/init/entry.s            0x00000000   Number         0  entry10b.o ABSOLUTE
    ../clib/microlib/init/entry.s            0x00000000   Number         0  entry11a.o ABSOLUTE
    ../clib/microlib/init/entry.s            0x00000000   Number         0  entry11b.o ABSOLUTE
    ../clib/microlib/longlong.c              0x00000000   Number         0  llmul.o ABSOLUTE
    ../clib/microlib/longlong.c              0x00000000   Number         0  llshl.o ABSOLUTE
    ../clib/microlib/longlong.c              0x00000000   Number         0  llushr.o ABSOLUTE
    ../clib/microlib/longlong.c              0x00000000   Number         0  llsshr.o ABSOLUTE
    ../clib/microlib/printf/printf.c         0x00000000   Number         0  printfa.o ABSOLUTE
    ../clib/microlib/stdio/streams.c         0x00000000   Number         0  stdout.o ABSOLUTE
    ../clib/microlib/string/memset.c         0x00000000   Number         0  memseta.o ABSOLUTE
    ../clib/microlib/stubs.s                 0x00000000   Number         0  iusefp.o ABSOLUTE
    ../clib/microlib/unhosted.c              0x00000000   Number         0  uwrite4.o ABSOLUTE
    ../clib/microlib/unhosted.c              0x00000000   Number         0  uread4.o ABSOLUTE
    ../fplib/microlib/d2f.c                  0x00000000   Number         0  d2f.o ABSOLUTE
    ../fplib/microlib/f2d.c                  0x00000000   Number         0  f2d.o ABSOLUTE
    ../fplib/microlib/fpadd.c                0x00000000   Number         0  dadd.o ABSOLUTE
    ../fplib/microlib/fpdiv.c                0x00000000   Number         0  fdiv.o ABSOLUTE
    ../fplib/microlib/fpdiv.c                0x00000000   Number         0  ddiv.o ABSOLUTE
    ../fplib/microlib/fpepilogue.c           0x00000000   Number         0  depilogue.o ABSOLUTE
    ../fplib/microlib/fpepilogue.c           0x00000000   Number         0  fepilogue.o ABSOLUTE
    ../fplib/microlib/fpfix.c                0x00000000   Number         0  ffixi.o ABSOLUTE
    ../fplib/microlib/fpfix.c                0x00000000   Number         0  dfixul.o ABSOLUTE
    ../fplib/microlib/fpfix.c                0x00000000   Number         0  dfixui.o ABSOLUTE
    ../fplib/microlib/fpfix.c                0x00000000   Number         0  ffixui.o ABSOLUTE
    ../fplib/microlib/fpflt.c                0x00000000   Number         0  dfltui.o ABSOLUTE
    ../fplib/microlib/fpflt.c                0x00000000   Number         0  ffltui.o ABSOLUTE
    ../fplib/microlib/fpmul.c                0x00000000   Number         0  fmul.o ABSOLUTE
    ../fplib/microlib/fpmul.c                0x00000000   Number         0  dmul.o ABSOLUTE
    ..\Bsp\src\bsp.c                         0x00000000   Number         0  bsp.o ABSOLUTE
    ..\Bsp\src\bsp_adc.c                     0x00000000   Number         0  bsp_adc.o ABSOLUTE
    ..\Bsp\src\bsp_debug.c                   0x00000000   Number         0  bsp_debug.o ABSOLUTE
    ..\Bsp\src\bsp_gpio.c                    0x00000000   Number         0  bsp_gpio.o ABSOLUTE
    ..\Bsp\src\bsp_i2c.c                     0x00000000   Number         0  bsp_i2c.o ABSOLUTE
    ..\Bsp\src\bsp_lcd.c                     0x00000000   Number         0  bsp_lcd.o ABSOLUTE
    ..\Bsp\src\bsp_rtc.c                     0x00000000   Number         0  bsp_rtc.o ABSOLUTE
    ..\Bsp\src\bsp_sleep.c                   0x00000000   Number         0  bsp_sleep.o ABSOLUTE
    ..\Bsp\src\bsp_uart.c                    0x00000000   Number         0  bsp_uart.o ABSOLUTE
    ..\Bsp\src\bsp_user_lib.c                0x00000000   Number         0  bsp_user_lib.o ABSOLUTE
    ..\Bsp\src\usb.c                         0x00000000   Number         0  usb.o ABSOLUTE
    ..\Drivers\CMSIS\Device\FM\FM33xx\Source\Templates\ARM\startup_fm33lc0xx.s 0x00000000   Number         0  startup_fm33lc0xx.o ABSOLUTE
    ..\Drivers\CMSIS\Device\FM\FM33xx\Source\system_fm33lc0xx.c 0x00000000   Number         0  system_fm33lc0xx.o ABSOLUTE
    ..\Drivers\FM33LC0xx_LL_Driver\Src\fm33lc0xx_ll_adc.c 0x00000000   Number         0  fm33lc0xx_ll_adc.o ABSOLUTE
    ..\Drivers\FM33LC0xx_LL_Driver\Src\fm33lc0xx_ll_aes.c 0x00000000   Number         0  fm33lc0xx_ll_aes.o ABSOLUTE
    ..\Drivers\FM33LC0xx_LL_Driver\Src\fm33lc0xx_ll_atim.c 0x00000000   Number         0  fm33lc0xx_ll_atim.o ABSOLUTE
    ..\Drivers\FM33LC0xx_LL_Driver\Src\fm33lc0xx_ll_bstim.c 0x00000000   Number         0  fm33lc0xx_ll_bstim.o ABSOLUTE
    ..\Drivers\FM33LC0xx_LL_Driver\Src\fm33lc0xx_ll_comp.c 0x00000000   Number         0  fm33lc0xx_ll_comp.o ABSOLUTE
    ..\Drivers\FM33LC0xx_LL_Driver\Src\fm33lc0xx_ll_crc.c 0x00000000   Number         0  fm33lc0xx_ll_crc.o ABSOLUTE
    ..\Drivers\FM33LC0xx_LL_Driver\Src\fm33lc0xx_ll_dma.c 0x00000000   Number         0  fm33lc0xx_ll_dma.o ABSOLUTE
    ..\Drivers\FM33LC0xx_LL_Driver\Src\fm33lc0xx_ll_flash.c 0x00000000   Number         0  fm33lc0xx_ll_flash.o ABSOLUTE
    ..\Drivers\FM33LC0xx_LL_Driver\Src\fm33lc0xx_ll_gpio.c 0x00000000   Number         0  fm33lc0xx_ll_gpio.o ABSOLUTE
    ..\Drivers\FM33LC0xx_LL_Driver\Src\fm33lc0xx_ll_gptim.c 0x00000000   Number         0  fm33lc0xx_ll_gptim.o ABSOLUTE
    ..\Drivers\FM33LC0xx_LL_Driver\Src\fm33lc0xx_ll_hdiv.c 0x00000000   Number         0  fm33lc0xx_ll_hdiv.o ABSOLUTE
    ..\Drivers\FM33LC0xx_LL_Driver\Src\fm33lc0xx_ll_i2c.c 0x00000000   Number         0  fm33lc0xx_ll_i2c.o ABSOLUTE
    ..\Drivers\FM33LC0xx_LL_Driver\Src\fm33lc0xx_ll_iwdt.c 0x00000000   Number         0  fm33lc0xx_ll_iwdt.o ABSOLUTE
    ..\Drivers\FM33LC0xx_LL_Driver\Src\fm33lc0xx_ll_lcd.c 0x00000000   Number         0  fm33lc0xx_ll_lcd.o ABSOLUTE
    ..\Drivers\FM33LC0xx_LL_Driver\Src\fm33lc0xx_ll_lptim.c 0x00000000   Number         0  fm33lc0xx_ll_lptim.o ABSOLUTE
    ..\Drivers\FM33LC0xx_LL_Driver\Src\fm33lc0xx_ll_lpuart.c 0x00000000   Number         0  fm33lc0xx_ll_lpuart.o ABSOLUTE
    ..\Drivers\FM33LC0xx_LL_Driver\Src\fm33lc0xx_ll_opa.c 0x00000000   Number         0  fm33lc0xx_ll_opa.o ABSOLUTE
    ..\Drivers\FM33LC0xx_LL_Driver\Src\fm33lc0xx_ll_pmu.c 0x00000000   Number         0  fm33lc0xx_ll_pmu.o ABSOLUTE
    ..\Drivers\FM33LC0xx_LL_Driver\Src\fm33lc0xx_ll_rcc.c 0x00000000   Number         0  fm33lc0xx_ll_rcc.o ABSOLUTE
    ..\Drivers\FM33LC0xx_LL_Driver\Src\fm33lc0xx_ll_rng.c 0x00000000   Number         0  fm33lc0xx_ll_rng.o ABSOLUTE
    ..\Drivers\FM33LC0xx_LL_Driver\Src\fm33lc0xx_ll_rtc.c 0x00000000   Number         0  fm33lc0xx_ll_rtc.o ABSOLUTE
    ..\Drivers\FM33LC0xx_LL_Driver\Src\fm33lc0xx_ll_spi.c 0x00000000   Number         0  fm33lc0xx_ll_spi.o ABSOLUTE
    ..\Drivers\FM33LC0xx_LL_Driver\Src\fm33lc0xx_ll_svd.c 0x00000000   Number         0  fm33lc0xx_ll_svd.o ABSOLUTE
    ..\Drivers\FM33LC0xx_LL_Driver\Src\fm33lc0xx_ll_u7816.c 0x00000000   Number         0  fm33lc0xx_ll_u7816.o ABSOLUTE
    ..\Drivers\FM33LC0xx_LL_Driver\Src\fm33lc0xx_ll_uart.c 0x00000000   Number         0  fm33lc0xx_ll_uart.o ABSOLUTE
    ..\Drivers\FM33LC0xx_LL_Driver\Src\fm33lc0xx_ll_wwdt.c 0x00000000   Number         0  fm33lc0xx_ll_wwdt.o ABSOLUTE
    ..\MF-config\Src\mf_config.c             0x00000000   Number         0  mf_config.o ABSOLUTE
    ..\Src\main.c                            0x00000000   Number         0  main.o ABSOLUTE
    ..\Src\mcp3425.c                         0x00000000   Number         0  mcp3425.o ABSOLUTE
    ..\Src\pt100.c                           0x00000000   Number         0  pt100.o ABSOLUTE
    ..\Src\user_init.c                       0x00000000   Number         0  user_init.o ABSOLUTE
    ..\USB\App\src\cdc_core.c                0x00000000   Number         0  cdc_core.o ABSOLUTE
    ..\USB\App\src\cdc_vcp.c                 0x00000000   Number         0  cdc_vcp.o ABSOLUTE
    ..\USB\App\src\stream.c                  0x00000000   Number         0  stream.o ABSOLUTE
    ..\USB\App\src\usb_bsp.c                 0x00000000   Number         0  usb_bsp.o ABSOLUTE
    ..\USB\App\src\usbd_desc.c               0x00000000   Number         0  usbd_desc.o ABSOLUTE
    ..\USB\App\src\usbd_usr.c                0x00000000   Number         0  usbd_usr.o ABSOLUTE
    ..\USB\Core\src\usb_core.c               0x00000000   Number         0  usb_core.o ABSOLUTE
    ..\USB\Core\src\usb_dcd.c                0x00000000   Number         0  usb_dcd.o ABSOLUTE
    ..\USB\Core\src\usb_dcd_int.c            0x00000000   Number         0  usb_dcd_int.o ABSOLUTE
    ..\USB\Device\src\usbd_core.c            0x00000000   Number         0  usbd_core.o ABSOLUTE
    ..\USB\Device\src\usbd_ioreq.c           0x00000000   Number         0  usbd_ioreq.o ABSOLUTE
    ..\USB\Device\src\usbd_req.c             0x00000000   Number         0  usbd_req.o ABSOLUTE
    ..\\Bsp\\src\\bsp.c                      0x00000000   Number         0  bsp.o ABSOLUTE
    ..\\Bsp\\src\\bsp_adc.c                  0x00000000   Number         0  bsp_adc.o ABSOLUTE
    ..\\Bsp\\src\\bsp_debug.c                0x00000000   Number         0  bsp_debug.o ABSOLUTE
    ..\\Bsp\\src\\bsp_gpio.c                 0x00000000   Number         0  bsp_gpio.o ABSOLUTE
    ..\\Bsp\\src\\bsp_i2c.c                  0x00000000   Number         0  bsp_i2c.o ABSOLUTE
    ..\\Bsp\\src\\bsp_lcd.c                  0x00000000   Number         0  bsp_lcd.o ABSOLUTE
    ..\\Bsp\\src\\bsp_rtc.c                  0x00000000   Number         0  bsp_rtc.o ABSOLUTE
    ..\\Bsp\\src\\bsp_sleep.c                0x00000000   Number         0  bsp_sleep.o ABSOLUTE
    ..\\Bsp\\src\\bsp_uart.c                 0x00000000   Number         0  bsp_uart.o ABSOLUTE
    ..\\Bsp\\src\\bsp_user_lib.c             0x00000000   Number         0  bsp_user_lib.o ABSOLUTE
    ..\\Bsp\\src\\usb.c                      0x00000000   Number         0  usb.o ABSOLUTE
    ..\\Drivers\\CMSIS\\Device\\FM\\FM33xx\\Source\\system_fm33lc0xx.c 0x00000000   Number         0  system_fm33lc0xx.o ABSOLUTE
    ..\\Drivers\\FM33LC0xx_LL_Driver\\Src\\fm33lc0xx_ll_adc.c 0x00000000   Number         0  fm33lc0xx_ll_adc.o ABSOLUTE
    ..\\Drivers\\FM33LC0xx_LL_Driver\\Src\\fm33lc0xx_ll_aes.c 0x00000000   Number         0  fm33lc0xx_ll_aes.o ABSOLUTE
    ..\\Drivers\\FM33LC0xx_LL_Driver\\Src\\fm33lc0xx_ll_atim.c 0x00000000   Number         0  fm33lc0xx_ll_atim.o ABSOLUTE
    ..\\Drivers\\FM33LC0xx_LL_Driver\\Src\\fm33lc0xx_ll_bstim.c 0x00000000   Number         0  fm33lc0xx_ll_bstim.o ABSOLUTE
    ..\\Drivers\\FM33LC0xx_LL_Driver\\Src\\fm33lc0xx_ll_comp.c 0x00000000   Number         0  fm33lc0xx_ll_comp.o ABSOLUTE
    ..\\Drivers\\FM33LC0xx_LL_Driver\\Src\\fm33lc0xx_ll_crc.c 0x00000000   Number         0  fm33lc0xx_ll_crc.o ABSOLUTE
    ..\\Drivers\\FM33LC0xx_LL_Driver\\Src\\fm33lc0xx_ll_dma.c 0x00000000   Number         0  fm33lc0xx_ll_dma.o ABSOLUTE
    ..\\Drivers\\FM33LC0xx_LL_Driver\\Src\\fm33lc0xx_ll_flash.c 0x00000000   Number         0  fm33lc0xx_ll_flash.o ABSOLUTE
    ..\\Drivers\\FM33LC0xx_LL_Driver\\Src\\fm33lc0xx_ll_gpio.c 0x00000000   Number         0  fm33lc0xx_ll_gpio.o ABSOLUTE
    ..\\Drivers\\FM33LC0xx_LL_Driver\\Src\\fm33lc0xx_ll_gptim.c 0x00000000   Number         0  fm33lc0xx_ll_gptim.o ABSOLUTE
    ..\\Drivers\\FM33LC0xx_LL_Driver\\Src\\fm33lc0xx_ll_hdiv.c 0x00000000   Number         0  fm33lc0xx_ll_hdiv.o ABSOLUTE
    ..\\Drivers\\FM33LC0xx_LL_Driver\\Src\\fm33lc0xx_ll_i2c.c 0x00000000   Number         0  fm33lc0xx_ll_i2c.o ABSOLUTE
    ..\\Drivers\\FM33LC0xx_LL_Driver\\Src\\fm33lc0xx_ll_iwdt.c 0x00000000   Number         0  fm33lc0xx_ll_iwdt.o ABSOLUTE
    ..\\Drivers\\FM33LC0xx_LL_Driver\\Src\\fm33lc0xx_ll_lcd.c 0x00000000   Number         0  fm33lc0xx_ll_lcd.o ABSOLUTE
    ..\\Drivers\\FM33LC0xx_LL_Driver\\Src\\fm33lc0xx_ll_lptim.c 0x00000000   Number         0  fm33lc0xx_ll_lptim.o ABSOLUTE
    ..\\Drivers\\FM33LC0xx_LL_Driver\\Src\\fm33lc0xx_ll_lpuart.c 0x00000000   Number         0  fm33lc0xx_ll_lpuart.o ABSOLUTE
    ..\\Drivers\\FM33LC0xx_LL_Driver\\Src\\fm33lc0xx_ll_opa.c 0x00000000   Number         0  fm33lc0xx_ll_opa.o ABSOLUTE
    ..\\Drivers\\FM33LC0xx_LL_Driver\\Src\\fm33lc0xx_ll_pmu.c 0x00000000   Number         0  fm33lc0xx_ll_pmu.o ABSOLUTE
    ..\\Drivers\\FM33LC0xx_LL_Driver\\Src\\fm33lc0xx_ll_rcc.c 0x00000000   Number         0  fm33lc0xx_ll_rcc.o ABSOLUTE
    ..\\Drivers\\FM33LC0xx_LL_Driver\\Src\\fm33lc0xx_ll_rng.c 0x00000000   Number         0  fm33lc0xx_ll_rng.o ABSOLUTE
    ..\\Drivers\\FM33LC0xx_LL_Driver\\Src\\fm33lc0xx_ll_rtc.c 0x00000000   Number         0  fm33lc0xx_ll_rtc.o ABSOLUTE
    ..\\Drivers\\FM33LC0xx_LL_Driver\\Src\\fm33lc0xx_ll_spi.c 0x00000000   Number         0  fm33lc0xx_ll_spi.o ABSOLUTE
    ..\\Drivers\\FM33LC0xx_LL_Driver\\Src\\fm33lc0xx_ll_svd.c 0x00000000   Number         0  fm33lc0xx_ll_svd.o ABSOLUTE
    ..\\Drivers\\FM33LC0xx_LL_Driver\\Src\\fm33lc0xx_ll_u7816.c 0x00000000   Number         0  fm33lc0xx_ll_u7816.o ABSOLUTE
    ..\\Drivers\\FM33LC0xx_LL_Driver\\Src\\fm33lc0xx_ll_uart.c 0x00000000   Number         0  fm33lc0xx_ll_uart.o ABSOLUTE
    ..\\Drivers\\FM33LC0xx_LL_Driver\\Src\\fm33lc0xx_ll_wwdt.c 0x00000000   Number         0  fm33lc0xx_ll_wwdt.o ABSOLUTE
    ..\\MF-config\\Src\\mf_config.c          0x00000000   Number         0  mf_config.o ABSOLUTE
    ..\\Src\\main.c                          0x00000000   Number         0  main.o ABSOLUTE
    ..\\Src\\mcp3425.c                       0x00000000   Number         0  mcp3425.o ABSOLUTE
    ..\\Src\\pt100.c                         0x00000000   Number         0  pt100.o ABSOLUTE
    ..\\Src\\user_init.c                     0x00000000   Number         0  user_init.o ABSOLUTE
    ..\\USB\\App\\src\\cdc_core.c            0x00000000   Number         0  cdc_core.o ABSOLUTE
    ..\\USB\\App\\src\\cdc_vcp.c             0x00000000   Number         0  cdc_vcp.o ABSOLUTE
    ..\\USB\\App\\src\\usb_bsp.c             0x00000000   Number         0  usb_bsp.o ABSOLUTE
    ..\\USB\\App\\src\\usbd_desc.c           0x00000000   Number         0  usbd_desc.o ABSOLUTE
    ..\\USB\\App\\src\\usbd_usr.c            0x00000000   Number         0  usbd_usr.o ABSOLUTE
    ..\\USB\\Core\\src\\usb_core.c           0x00000000   Number         0  usb_core.o ABSOLUTE
    ..\\USB\\Core\\src\\usb_dcd.c            0x00000000   Number         0  usb_dcd.o ABSOLUTE
    ..\\USB\\Core\\src\\usb_dcd_int.c        0x00000000   Number         0  usb_dcd_int.o ABSOLUTE
    ..\\USB\\Device\\src\\usbd_core.c        0x00000000   Number         0  usbd_core.o ABSOLUTE
    ..\\USB\\Device\\src\\usbd_ioreq.c       0x00000000   Number         0  usbd_ioreq.o ABSOLUTE
    ..\\USB\\Device\\src\\usbd_req.c         0x00000000   Number         0  usbd_req.o ABSOLUTE
    cdrcmple.s                               0x00000000   Number         0  cdrcmple.o ABSOLUTE
    cfcmple.s                                0x00000000   Number         0  cfcmple.o ABSOLUTE
    cfrcmple.s                               0x00000000   Number         0  cfrcmple.o ABSOLUTE
    dc.s                                     0x00000000   Number         0  dc.o ABSOLUTE
    handlers.s                               0x00000000   Number         0  handlers.o ABSOLUTE
    init.s                                   0x00000000   Number         0  init.o ABSOLUTE
    .ARM.Collect$$$$00000000                 0x000000c0   Section        0  entry.o(.ARM.Collect$$$$00000000)
    .ARM.Collect$$$$00000001                 0x000000c0   Section        4  entry2.o(.ARM.Collect$$$$00000001)
    .ARM.Collect$$$$00000004                 0x000000c4   Section        4  entry5.o(.ARM.Collect$$$$00000004)
    .ARM.Collect$$$$00000008                 0x000000c8   Section        0  entry7b.o(.ARM.Collect$$$$00000008)
    .ARM.Collect$$$$0000000A                 0x000000c8   Section        0  entry8b.o(.ARM.Collect$$$$0000000A)
    .ARM.Collect$$$$0000000B                 0x000000c8   Section        8  entry9a.o(.ARM.Collect$$$$0000000B)
    .ARM.Collect$$$$0000000D                 0x000000d0   Section        0  entry10a.o(.ARM.Collect$$$$0000000D)
    .ARM.Collect$$$$0000000F                 0x000000d0   Section        0  entry11a.o(.ARM.Collect$$$$0000000F)
    .ARM.Collect$$$$00002712                 0x000000d0   Section        4  entry2.o(.ARM.Collect$$$$00002712)
    __lit__00000000                          0x000000d0   Data           4  entry2.o(.ARM.Collect$$$$00002712)
    .text                                    0x000000d4   Section       28  startup_fm33lc0xx.o(.text)
    .text                                    0x000000f0   Section        0  uidiv.o(.text)
    .text                                    0x0000011c   Section        0  idiv.o(.text)
    .text                                    0x00000144   Section        0  uldiv.o(.text)
    .text                                    0x000001a4   Section        0  llmul.o(.text)
    .text                                    0x0000021e   Section        0  memseta.o(.text)
    .text                                    0x00000242   Section        0  uread4.o(.text)
    .text                                    0x00000256   Section        0  uwrite4.o(.text)
    .text                                    0x00000268   Section        0  fmul.o(.text)
    .text                                    0x000002e2   Section        0  fdiv.o(.text)
    .text                                    0x00000360   Section        0  dadd.o(.text)
    .text                                    0x000004c4   Section        0  dmul.o(.text)
    .text                                    0x00000594   Section        0  ddiv.o(.text)
    .text                                    0x00000684   Section        0  ffltui.o(.text)
    .text                                    0x00000694   Section        0  dfltui.o(.text)
    .text                                    0x000006b0   Section        0  ffixi.o(.text)
    .text                                    0x000006e2   Section        0  ffixui.o(.text)
    .text                                    0x0000070c   Section        0  dfixui.o(.text)
    .text                                    0x00000748   Section        0  f2d.o(.text)
    .text                                    0x00000770   Section        0  d2f.o(.text)
    .text                                    0x000007a8   Section       20  cfcmple.o(.text)
    .text                                    0x000007bc   Section       20  cfrcmple.o(.text)
    .text                                    0x000007d0   Section        0  llshl.o(.text)
    .text                                    0x000007f0   Section        0  llushr.o(.text)
    .text                                    0x00000812   Section        0  llsshr.o(.text)
    .text                                    0x00000838   Section        0  fepilogue.o(.text)
    .text                                    0x00000838   Section        0  iusefp.o(.text)
    .text                                    0x000008ba   Section        0  depilogue.o(.text)
    .text                                    0x00000978   Section        0  dfixul.o(.text)
    .text                                    0x000009b8   Section       40  cdrcmple.o(.text)
    .text                                    0x000009e0   Section       36  init.o(.text)
    .text                                    0x00000a04   Section        0  __dclz77c.o(.text)
    i.ClockInit                              0x00000a64   Section        0  user_init.o(i.ClockInit)
    i.DCD_EP_Close                           0x00000bb8   Section        0  usb_dcd.o(i.DCD_EP_Close)
    i.DCD_EP_ClrStall                        0x00000c04   Section        0  usb_dcd.o(i.DCD_EP_ClrStall)
    i.DCD_EP_Open                            0x00000c50   Section        0  usb_dcd.o(i.DCD_EP_Open)
    i.DCD_EP_PrepareRx                       0x00000cba   Section        0  usb_dcd.o(i.DCD_EP_PrepareRx)
    i.DCD_EP_SetAddress                      0x00000d10   Section        0  usb_dcd.o(i.DCD_EP_SetAddress)
    i.DCD_EP_Stall                           0x00000d38   Section        0  usb_dcd.o(i.DCD_EP_Stall)
    i.DCD_EP_Tx                              0x00000d84   Section        0  usb_dcd.o(i.DCD_EP_Tx)
    i.DCD_HandleEnumDone_ISR                 0x00000dd0   Section        0  usb_dcd_int.o(i.DCD_HandleEnumDone_ISR)
    DCD_HandleEnumDone_ISR                   0x00000dd1   Thumb Code   360  usb_dcd_int.o(i.DCD_HandleEnumDone_ISR)
    i.DCD_HandleInEP_ISR                     0x00000f64   Section        0  usb_dcd_int.o(i.DCD_HandleInEP_ISR)
    DCD_HandleInEP_ISR                       0x00000f65   Thumb Code   304  usb_dcd_int.o(i.DCD_HandleInEP_ISR)
    i.DCD_HandleOutEP_ISR                    0x00001098   Section        0  usb_dcd_int.o(i.DCD_HandleOutEP_ISR)
    DCD_HandleOutEP_ISR                      0x00001099   Thumb Code   266  usb_dcd_int.o(i.DCD_HandleOutEP_ISR)
    i.DCD_HandleResume_ISR                   0x000011a8   Section        0  usb_dcd_int.o(i.DCD_HandleResume_ISR)
    DCD_HandleResume_ISR                     0x000011a9   Thumb Code   106  usb_dcd_int.o(i.DCD_HandleResume_ISR)
    i.DCD_HandleRxStatusQueueLevel_ISR       0x00001218   Section        0  usb_dcd_int.o(i.DCD_HandleRxStatusQueueLevel_ISR)
    DCD_HandleRxStatusQueueLevel_ISR         0x00001219   Thumb Code   186  usb_dcd_int.o(i.DCD_HandleRxStatusQueueLevel_ISR)
    i.DCD_HandleSof_ISR                      0x000012d8   Section        0  usb_dcd_int.o(i.DCD_HandleSof_ISR)
    DCD_HandleSof_ISR                        0x000012d9   Thumb Code    38  usb_dcd_int.o(i.DCD_HandleSof_ISR)
    i.DCD_HandleUSBSuspend_ISR               0x00001304   Section        0  usb_dcd_int.o(i.DCD_HandleUSBSuspend_ISR)
    DCD_HandleUSBSuspend_ISR                 0x00001305   Thumb Code   158  usb_dcd_int.o(i.DCD_HandleUSBSuspend_ISR)
    i.DCD_HandleUsbReset_ISR                 0x000013ac   Section        0  usb_dcd_int.o(i.DCD_HandleUsbReset_ISR)
    DCD_HandleUsbReset_ISR                   0x000013ad   Thumb Code   258  usb_dcd_int.o(i.DCD_HandleUsbReset_ISR)
    i.DCD_Init                               0x000014b4   Section        0  usb_dcd.o(i.DCD_Init)
    i.DCD_IsoINIncomplete_ISR                0x00001550   Section        0  usb_dcd_int.o(i.DCD_IsoINIncomplete_ISR)
    DCD_IsoINIncomplete_ISR                  0x00001551   Thumb Code    40  usb_dcd_int.o(i.DCD_IsoINIncomplete_ISR)
    i.DCD_IsoOUTIncomplete_ISR               0x0000157c   Section        0  usb_dcd_int.o(i.DCD_IsoOUTIncomplete_ISR)
    DCD_IsoOUTIncomplete_ISR                 0x0000157d   Thumb Code    40  usb_dcd_int.o(i.DCD_IsoOUTIncomplete_ISR)
    i.DCD_ReadDevInEP                        0x000015a8   Section        0  usb_dcd_int.o(i.DCD_ReadDevInEP)
    DCD_ReadDevInEP                          0x000015a9   Thumb Code    38  usb_dcd_int.o(i.DCD_ReadDevInEP)
    i.DCD_WriteEmptyTxFifo                   0x000015ce   Section        0  usb_dcd_int.o(i.DCD_WriteEmptyTxFifo)
    DCD_WriteEmptyTxFifo                     0x000015cf   Thumb Code   170  usb_dcd_int.o(i.DCD_WriteEmptyTxFifo)
    i.Debug_Printf                           0x00001678   Section        0  bsp_debug.o(i.Debug_Printf)
    i.DelayMs                                0x00001694   Section        0  user_init.o(i.DelayMs)
    i.DelayUs                                0x000016ac   Section        0  user_init.o(i.DelayUs)
    i.GPIO_IRQHandler                        0x000016fc   Section        0  bsp_gpio.o(i.GPIO_IRQHandler)
    i.GPIO_interrupt_init                    0x00001730   Section        0  bsp_gpio.o(i.GPIO_interrupt_init)
    i.GetLengthNum                           0x00001858   Section        0  bsp_lcd.o(i.GetLengthNum)
    i.GetVoltageSample                       0x00001878   Section        0  bsp_adc.o(i.GetVoltageSample)
    i.GetVref1p22Sample                      0x000018c8   Section        0  bsp_adc.o(i.GetVref1p22Sample)
    i.Get_SerialNum                          0x00001940   Section        0  usbd_desc.o(i.Get_SerialNum)
    Get_SerialNum                            0x00001941   Thumb Code    60  usbd_desc.o(i.Get_SerialNum)
    i.Get_Vbat                               0x00001984   Section        0  bsp_adc.o(i.Get_Vbat)
    i.Handle_USBAsynchXfer                   0x00001a50   Section        0  cdc_core.o(i.Handle_USBAsynchXfer)
    Handle_USBAsynchXfer                     0x00001a51   Thumb Code   120  cdc_core.o(i.Handle_USBAsynchXfer)
    i.I2C_Init                               0x00001ad8   Section        0  bsp_i2c.o(i.I2C_Init)
    i.I2C_Receive_Byte                       0x00001b20   Section        0  bsp_i2c.o(i.I2C_Receive_Byte)
    i.I2C_Send_Bit                           0x00001b64   Section        0  bsp_i2c.o(i.I2C_Send_Bit)
    i.I2C_Send_Byte                          0x00001be4   Section        0  bsp_i2c.o(i.I2C_Send_Byte)
    i.IntToUnicode                           0x00001c38   Section        0  usbd_desc.o(i.IntToUnicode)
    IntToUnicode                             0x00001c39   Thumb Code    54  usbd_desc.o(i.IntToUnicode)
    i.LCD_BufToPanel                         0x00001c70   Section        0  bsp_lcd.o(i.LCD_BufToPanel)
    i.LCD_EndDraw                            0x00001cd4   Section        0  bsp_lcd.o(i.LCD_EndDraw)
    i.LCD_Num_Data                           0x00001ce8   Section        0  bsp_lcd.o(i.LCD_Num_Data)
    i.LCD_ShowALL                            0x00002310   Section        0  bsp_lcd.o(i.LCD_ShowALL)
    i.LCD_Show_Count                         0x00002340   Section        0  bsp_lcd.o(i.LCD_Show_Count)
    i.LCD_Table                              0x00002580   Section        0  bsp_lcd.o(i.LCD_Table)
    i.LL_ADC_ClearFlag_EOC                   0x000025b0   Section        0  bsp_adc.o(i.LL_ADC_ClearFlag_EOC)
    LL_ADC_ClearFlag_EOC                     0x000025b1   Thumb Code     6  bsp_adc.o(i.LL_ADC_ClearFlag_EOC)
    i.LL_ADC_CommonInit                      0x000025b8   Section        0  fm33lc0xx_ll_adc.o(i.LL_ADC_CommonInit)
    i.LL_ADC_Disable                         0x00002690   Section        0  fm33lc0xx_ll_adc.o(i.LL_ADC_Disable)
    LL_ADC_Disable                           0x00002691   Thumb Code    10  fm33lc0xx_ll_adc.o(i.LL_ADC_Disable)
    i.LL_ADC_Disable                         0x0000269a   Section        0  bsp_adc.o(i.LL_ADC_Disable)
    LL_ADC_Disable                           0x0000269b   Thumb Code    10  bsp_adc.o(i.LL_ADC_Disable)
    i.LL_ADC_DisableSequencerChannel         0x000026a4   Section        0  bsp_adc.o(i.LL_ADC_DisableSequencerChannel)
    LL_ADC_DisableSequencerChannel           0x000026a5   Thumb Code    12  bsp_adc.o(i.LL_ADC_DisableSequencerChannel)
    i.LL_ADC_Enable                          0x000026b0   Section        0  fm33lc0xx_ll_adc.o(i.LL_ADC_Enable)
    LL_ADC_Enable                            0x000026b1   Thumb Code    10  fm33lc0xx_ll_adc.o(i.LL_ADC_Enable)
    i.LL_ADC_Enable                          0x000026ba   Section        0  bsp_adc.o(i.LL_ADC_Enable)
    LL_ADC_Enable                            0x000026bb   Thumb Code    10  bsp_adc.o(i.LL_ADC_Enable)
    i.LL_ADC_EnalbleSequencerChannel         0x000026c4   Section        0  bsp_adc.o(i.LL_ADC_EnalbleSequencerChannel)
    LL_ADC_EnalbleSequencerChannel           0x000026c5   Thumb Code    12  bsp_adc.o(i.LL_ADC_EnalbleSequencerChannel)
    i.LL_ADC_Init                            0x000026d0   Section        0  fm33lc0xx_ll_adc.o(i.LL_ADC_Init)
    i.LL_ADC_IsActiveFlag_EOC                0x000029f4   Section        0  bsp_adc.o(i.LL_ADC_IsActiveFlag_EOC)
    LL_ADC_IsActiveFlag_EOC                  0x000029f5   Thumb Code    16  bsp_adc.o(i.LL_ADC_IsActiveFlag_EOC)
    i.LL_ADC_StartConversion                 0x00002a04   Section        0  bsp_adc.o(i.LL_ADC_StartConversion)
    LL_ADC_StartConversion                   0x00002a05   Thumb Code    10  bsp_adc.o(i.LL_ADC_StartConversion)
    i.LL_BSTIM_Init                          0x00002a10   Section        0  fm33lc0xx_ll_bstim.o(i.LL_BSTIM_Init)
    i.LL_EXTI_ClearFlag                      0x00002b34   Section        0  bsp_gpio.o(i.LL_EXTI_ClearFlag)
    LL_EXTI_ClearFlag                        0x00002b35   Thumb Code     6  bsp_gpio.o(i.LL_EXTI_ClearFlag)
    i.LL_EXTI_EnableDigitalFilter            0x00002b3a   Section        0  bsp_gpio.o(i.LL_EXTI_EnableDigitalFilter)
    LL_EXTI_EnableDigitalFilter              0x00002b3b   Thumb Code    10  bsp_gpio.o(i.LL_EXTI_EnableDigitalFilter)
    i.LL_EXTI_IsActiveFlag                   0x00002b44   Section        0  bsp_gpio.o(i.LL_EXTI_IsActiveFlag)
    LL_EXTI_IsActiveFlag                     0x00002b45   Thumb Code    22  bsp_gpio.o(i.LL_EXTI_IsActiveFlag)
    i.LL_EXTI_SetTrigEdge                    0x00002b5a   Section        0  bsp_gpio.o(i.LL_EXTI_SetTrigEdge)
    LL_EXTI_SetTrigEdge                      0x00002b5b   Thumb Code    26  bsp_gpio.o(i.LL_EXTI_SetTrigEdge)
    i.LL_GPIO_ALLPIN_LPM_MODE                0x00002b74   Section        0  fm33lc0xx_ll_gpio.o(i.LL_GPIO_ALLPIN_LPM_MODE)
    i.LL_GPIO_Init                           0x00002c00   Section        0  fm33lc0xx_ll_gpio.o(i.LL_GPIO_Init)
    i.LL_GPIO_ResetOutputPin                 0x00002d9c   Section        0  bsp_gpio.o(i.LL_GPIO_ResetOutputPin)
    LL_GPIO_ResetOutputPin                   0x00002d9d   Thumb Code    10  bsp_gpio.o(i.LL_GPIO_ResetOutputPin)
    i.LL_GPIO_SetOutputPin                   0x00002da6   Section        0  fm33lc0xx_ll_gpio.o(i.LL_GPIO_SetOutputPin)
    LL_GPIO_SetOutputPin                     0x00002da7   Thumb Code    10  fm33lc0xx_ll_gpio.o(i.LL_GPIO_SetOutputPin)
    i.LL_GPIO_StructInit                     0x00002db0   Section        0  fm33lc0xx_ll_gpio.o(i.LL_GPIO_StructInit)
    i.LL_I2C_MasterMode_Init                 0x00002dc8   Section        0  fm33lc0xx_ll_i2c.o(i.LL_I2C_MasterMode_Init)
    i.LL_I2C_MasterMode_IsActiveFlag_Start   0x00002f3c   Section        0  bsp_i2c.o(i.LL_I2C_MasterMode_IsActiveFlag_Start)
    LL_I2C_MasterMode_IsActiveFlag_Start     0x00002f3d   Thumb Code    12  bsp_i2c.o(i.LL_I2C_MasterMode_IsActiveFlag_Start)
    i.LL_I2C_MasterMode_SetMasterRespond     0x00002f48   Section        0  mcp3425.o(i.LL_I2C_MasterMode_SetMasterRespond)
    LL_I2C_MasterMode_SetMasterRespond       0x00002f49   Thumb Code    12  mcp3425.o(i.LL_I2C_MasterMode_SetMasterRespond)
    i.LL_LCD_DisplayFreq                     0x00002f54   Section        0  fm33lc0xx_ll_lcd.o(i.LL_LCD_DisplayFreq)
    LL_LCD_DisplayFreq                       0x00002f55   Thumb Code   246  fm33lc0xx_ll_lcd.o(i.LL_LCD_DisplayFreq)
    i.LL_LCD_EnableComPin                    0x00003058   Section        0  bsp_lcd.o(i.LL_LCD_EnableComPin)
    LL_LCD_EnableComPin                      0x00003059   Thumb Code    20  bsp_lcd.o(i.LL_LCD_EnableComPin)
    i.LL_LCD_EnableSegPin                    0x0000306c   Section        0  bsp_lcd.o(i.LL_LCD_EnableSegPin)
    LL_LCD_EnableSegPin                      0x0000306d   Thumb Code     8  bsp_lcd.o(i.LL_LCD_EnableSegPin)
    i.LL_LCD_FlickTime                       0x00003074   Section        0  fm33lc0xx_ll_lcd.o(i.LL_LCD_FlickTime)
    LL_LCD_FlickTime                         0x00003075   Thumb Code   222  fm33lc0xx_ll_lcd.o(i.LL_LCD_FlickTime)
    i.LL_LCD_GetCOMxNum                      0x00003160   Section        0  fm33lc0xx_ll_lcd.o(i.LL_LCD_GetCOMxNum)
    LL_LCD_GetCOMxNum                        0x00003161   Thumb Code    10  fm33lc0xx_ll_lcd.o(i.LL_LCD_GetCOMxNum)
    i.LL_LCD_Init                            0x0000316c   Section        0  fm33lc0xx_ll_lcd.o(i.LL_LCD_Init)
    i.LL_LCD_SetDisplayData                  0x000033d0   Section        0  bsp_lcd.o(i.LL_LCD_SetDisplayData)
    LL_LCD_SetDisplayData                    0x000033d1   Thumb Code    16  bsp_lcd.o(i.LL_LCD_SetDisplayData)
    i.LL_RCC_DisableResetAPB2Peripheral      0x000033e0   Section        0  fm33lc0xx_ll_adc.o(i.LL_RCC_DisableResetAPB2Peripheral)
    LL_RCC_DisableResetAPB2Peripheral        0x000033e1   Thumb Code    12  fm33lc0xx_ll_adc.o(i.LL_RCC_DisableResetAPB2Peripheral)
    i.LL_RCC_EnableResetAPB2Peripheral       0x000033f0   Section        0  fm33lc0xx_ll_adc.o(i.LL_RCC_EnableResetAPB2Peripheral)
    LL_RCC_EnableResetAPB2Peripheral         0x000033f1   Thumb Code    12  fm33lc0xx_ll_adc.o(i.LL_RCC_EnableResetAPB2Peripheral)
    i.LL_RCC_GetAHBClockFreq                 0x00003400   Section        0  fm33lc0xx_ll_rcc.o(i.LL_RCC_GetAHBClockFreq)
    i.LL_RCC_GetAPB1ClockFreq                0x00003458   Section        0  fm33lc0xx_ll_rcc.o(i.LL_RCC_GetAPB1ClockFreq)
    i.LL_RCC_GetAPB2ClockFreq                0x000034b0   Section        0  fm33lc0xx_ll_rcc.o(i.LL_RCC_GetAPB2ClockFreq)
    i.LL_RCC_GetPLLClockFreq                 0x00003508   Section        0  fm33lc0xx_ll_rcc.o(i.LL_RCC_GetPLLClockFreq)
    i.LL_RCC_GetRC4MClockFreq                0x000035a4   Section        0  fm33lc0xx_ll_rcc.o(i.LL_RCC_GetRC4MClockFreq)
    i.LL_RCC_GetRCHFClockFreq                0x000035f4   Section        0  fm33lc0xx_ll_rcc.o(i.LL_RCC_GetRCHFClockFreq)
    i.LL_RCC_GetSystemClockFreq              0x00003638   Section        0  fm33lc0xx_ll_rcc.o(i.LL_RCC_GetSystemClockFreq)
    i.LL_RCC_GetUSBClockFreqToSysclk         0x00003688   Section        0  fm33lc0xx_ll_rcc.o(i.LL_RCC_GetUSBClockFreqToSysclk)
    i.LL_RCC_Group1_EnableOperationClock     0x000036ac   Section        0  fm33lc0xx_ll_uart.o(i.LL_RCC_Group1_EnableOperationClock)
    LL_RCC_Group1_EnableOperationClock       0x000036ad   Thumb Code    12  fm33lc0xx_ll_uart.o(i.LL_RCC_Group1_EnableOperationClock)
    i.LL_RCC_Group3_EnableBusClock           0x000036bc   Section        0  fm33lc0xx_ll_i2c.o(i.LL_RCC_Group3_EnableBusClock)
    LL_RCC_Group3_EnableBusClock             0x000036bd   Thumb Code    12  fm33lc0xx_ll_i2c.o(i.LL_RCC_Group3_EnableBusClock)
    i.LL_RCC_Group3_EnableBusClock           0x000036cc   Section        0  fm33lc0xx_ll_uart.o(i.LL_RCC_Group3_EnableBusClock)
    LL_RCC_Group3_EnableBusClock             0x000036cd   Thumb Code    12  fm33lc0xx_ll_uart.o(i.LL_RCC_Group3_EnableBusClock)
    i.LL_RCC_SetRCHFFrequency                0x000036dc   Section        0  user_init.o(i.LL_RCC_SetRCHFFrequency)
    LL_RCC_SetRCHFFrequency                  0x000036dd   Thumb Code    18  user_init.o(i.LL_RCC_SetRCHFFrequency)
    i.LL_RCC_SetRCHFTrimValue                0x000036f4   Section        0  user_init.o(i.LL_RCC_SetRCHFTrimValue)
    LL_RCC_SetRCHFTrimValue                  0x000036f5   Thumb Code    16  user_init.o(i.LL_RCC_SetRCHFTrimValue)
    i.LL_RTC_ConfigTime                      0x00003708   Section        0  fm33lc0xx_ll_rtc.o(i.LL_RTC_ConfigTime)
    i.LL_RTC_Init                            0x00003788   Section        0  fm33lc0xx_ll_rtc.o(i.LL_RTC_Init)
    i.LL_UART_ClearFlag_TXSE                 0x000037c8   Section        0  bsp_uart.o(i.LL_UART_ClearFlag_TXSE)
    LL_UART_ClearFlag_TXSE                   0x000037c9   Thumb Code     6  bsp_uart.o(i.LL_UART_ClearFlag_TXSE)
    i.LL_UART_EnableIT_TxBuffEmpty           0x000037ce   Section        0  cdc_vcp.o(i.LL_UART_EnableIT_TxBuffEmpty)
    LL_UART_EnableIT_TxBuffEmpty             0x000037cf   Thumb Code    10  cdc_vcp.o(i.LL_UART_EnableIT_TxBuffEmpty)
    i.LL_UART_Init                           0x000037d8   Section        0  fm33lc0xx_ll_uart.o(i.LL_UART_Init)
    i.LL_UART_IsActiveFlag_RXBF              0x00003aa8   Section        0  bsp_uart.o(i.LL_UART_IsActiveFlag_RXBF)
    LL_UART_IsActiveFlag_RXBF                0x00003aa9   Thumb Code    14  bsp_uart.o(i.LL_UART_IsActiveFlag_RXBF)
    i.LL_UART_IsActiveFlag_TXSE              0x00003ab6   Section        0  bsp_debug.o(i.LL_UART_IsActiveFlag_TXSE)
    LL_UART_IsActiveFlag_TXSE                0x00003ab7   Thumb Code    16  bsp_debug.o(i.LL_UART_IsActiveFlag_TXSE)
    i.LL_UART_IsActiveFlag_TXSE              0x00003ac6   Section        0  bsp_uart.o(i.LL_UART_IsActiveFlag_TXSE)
    LL_UART_IsActiveFlag_TXSE                0x00003ac7   Thumb Code    16  bsp_uart.o(i.LL_UART_IsActiveFlag_TXSE)
    i.LL_UART_IsEnbaledIT_ReceiveBuffFull    0x00003ad6   Section        0  bsp_uart.o(i.LL_UART_IsEnbaledIT_ReceiveBuffFull)
    LL_UART_IsEnbaledIT_ReceiveBuffFull      0x00003ad7   Thumb Code    14  bsp_uart.o(i.LL_UART_IsEnbaledIT_ReceiveBuffFull)
    i.LL_UART_IsEnbaledIT_ShiftBuffEmpty     0x00003ae4   Section        0  bsp_uart.o(i.LL_UART_IsEnbaledIT_ShiftBuffEmpty)
    LL_UART_IsEnbaledIT_ShiftBuffEmpty       0x00003ae5   Thumb Code    16  bsp_uart.o(i.LL_UART_IsEnbaledIT_ShiftBuffEmpty)
    i.LL_UART_TransmitData                   0x00003af4   Section        0  bsp_debug.o(i.LL_UART_TransmitData)
    LL_UART_TransmitData                     0x00003af5   Thumb Code    12  bsp_debug.o(i.LL_UART_TransmitData)
    i.LL_UART_TransmitData                   0x00003b00   Section        0  bsp_uart.o(i.LL_UART_TransmitData)
    LL_UART_TransmitData                     0x00003b01   Thumb Code    12  bsp_uart.o(i.LL_UART_TransmitData)
    i.LcdInit                                0x00003b0c   Section        0  bsp_lcd.o(i.LcdInit)
    i.MF_Clock_Init                          0x00003cb4   Section        0  mf_config.o(i.MF_Clock_Init)
    i.NMI_Handler                            0x00003cf4   Section        0  bsp_gpio.o(i.NMI_Handler)
    i.NTC_ADCConv                            0x00003cf8   Section        0  pt100.o(i.NTC_ADCConv)
    i.NTC_GetT                               0x00003d18   Section        0  pt100.o(i.NTC_GetT)
    i.NTC_SearchTable                        0x00003da4   Section        0  pt100.o(i.NTC_SearchTable)
    i.NVIC_DisableIRQ                        0x00003e0c   Section        0  bsp_uart.o(i.NVIC_DisableIRQ)
    NVIC_DisableIRQ                          0x00003e0d   Thumb Code    18  bsp_uart.o(i.NVIC_DisableIRQ)
    i.NVIC_DisableIRQ                        0x00003e24   Section        0  usb_bsp.o(i.NVIC_DisableIRQ)
    NVIC_DisableIRQ                          0x00003e25   Thumb Code    18  usb_bsp.o(i.NVIC_DisableIRQ)
    i.NVIC_EnableIRQ                         0x00003e3c   Section        0  bsp_uart.o(i.NVIC_EnableIRQ)
    NVIC_EnableIRQ                           0x00003e3d   Thumb Code    18  bsp_uart.o(i.NVIC_EnableIRQ)
    i.NVIC_SetPriority                       0x00003e54   Section        0  usb.o(i.NVIC_SetPriority)
    NVIC_SetPriority                         0x00003e55   Thumb Code   110  usb.o(i.NVIC_SetPriority)
    i.NVIC_SetPriority                       0x00003ecc   Section        0  bsp_uart.o(i.NVIC_SetPriority)
    NVIC_SetPriority                         0x00003ecd   Thumb Code   110  bsp_uart.o(i.NVIC_SetPriority)
    i.NVIC_SetPriority                       0x00003f44   Section        0  bsp_gpio.o(i.NVIC_SetPriority)
    NVIC_SetPriority                         0x00003f45   Thumb Code   110  bsp_gpio.o(i.NVIC_SetPriority)
    i.NVIC_SetPriority                       0x00003fbc   Section        0  bsp_rtc.o(i.NVIC_SetPriority)
    NVIC_SetPriority                         0x00003fbd   Thumb Code   110  bsp_rtc.o(i.NVIC_SetPriority)
    i.NVIC_SetPriority                       0x00004034   Section        0  cdc_vcp.o(i.NVIC_SetPriority)
    NVIC_SetPriority                         0x00004035   Thumb Code   110  cdc_vcp.o(i.NVIC_SetPriority)
    i.NVIC_SetPriority                       0x000040ac   Section        0  usb_bsp.o(i.NVIC_SetPriority)
    NVIC_SetPriority                         0x000040ad   Thumb Code   110  usb_bsp.o(i.NVIC_SetPriority)
    i.PrintfLogo                             0x00004124   Section        0  bsp.o(i.PrintfLogo)
    PrintfLogo                               0x00004125   Thumb Code    40  bsp.o(i.PrintfLogo)
    i.RTC_IRQHandler                         0x000041f4   Section        0  bsp_rtc.o(i.RTC_IRQHandler)
    i.RTC_Init                               0x000042d4   Section        0  bsp_rtc.o(i.RTC_Init)
    i.StreamGetDataSize                      0x0000439c   Section        0  stream.o(i.StreamGetDataSize)
    i.StreamInit                             0x000043a2   Section        0  stream.o(i.StreamInit)
    i.StreamReadData                         0x000043b2   Section        0  stream.o(i.StreamReadData)
    i.StreamWriteData                        0x000043f2   Section        0  stream.o(i.StreamWriteData)
    i.SystemInit                             0x0000443c   Section        0  system_fm33lc0xx.o(i.SystemInit)
    i.SystickInit                            0x000044f0   Section        0  user_init.o(i.SystickInit)
    i.UART0_IRQHandler                       0x00004518   Section        0  bsp_uart.o(i.UART0_IRQHandler)
    i.UART1_DeInit                           0x00004558   Section        0  cdc_vcp.o(i.UART1_DeInit)
    i.UART1_IRQHandler                       0x00004580   Section        0  cdc_vcp.o(i.UART1_IRQHandler)
    i.UART1_Init                             0x000045fc   Section        0  cdc_vcp.o(i.UART1_Init)
    i.UART4_IRQHandler                       0x000046a8   Section        0  bsp_uart.o(i.UART4_IRQHandler)
    i.UART5_IRQHandler                       0x000046e8   Section        0  bsp_uart.o(i.UART5_IRQHandler)
    i.USBD_ClrCfg                            0x00004730   Section        0  usbd_core.o(i.USBD_ClrCfg)
    i.USBD_ClrFeature                        0x0000474e   Section        0  usbd_req.o(i.USBD_ClrFeature)
    USBD_ClrFeature                          0x0000474f   Thumb Code    76  usbd_req.o(i.USBD_ClrFeature)
    i.USBD_CtlContinueRx                     0x0000479a   Section        0  usbd_ioreq.o(i.USBD_CtlContinueRx)
    i.USBD_CtlContinueSendData               0x000047b4   Section        0  usbd_ioreq.o(i.USBD_CtlContinueSendData)
    i.USBD_CtlError                          0x000047ce   Section        0  usbd_req.o(i.USBD_CtlError)
    i.USBD_CtlPrepareRx                      0x000047ec   Section        0  usbd_ioreq.o(i.USBD_CtlPrepareRx)
    i.USBD_CtlReceiveStatus                  0x00004820   Section        0  usbd_ioreq.o(i.USBD_CtlReceiveStatus)
    i.USBD_CtlSendData                       0x00004842   Section        0  usbd_ioreq.o(i.USBD_CtlSendData)
    i.USBD_CtlSendStatus                     0x0000486a   Section        0  usbd_ioreq.o(i.USBD_CtlSendStatus)
    i.USBD_DataInStage                       0x0000488c   Section        0  usbd_core.o(i.USBD_DataInStage)
    USBD_DataInStage                         0x0000488d   Thumb Code   250  usbd_core.o(i.USBD_DataInStage)
    i.USBD_DataOutStage                      0x00004986   Section        0  usbd_core.o(i.USBD_DataOutStage)
    USBD_DataOutStage                        0x00004987   Thumb Code   180  usbd_core.o(i.USBD_DataOutStage)
    i.USBD_DeInit                            0x00004a3a   Section        0  usbd_core.o(i.USBD_DeInit)
    i.USBD_GetConfig                         0x00004a40   Section        0  usbd_req.o(i.USBD_GetConfig)
    USBD_GetConfig                           0x00004a41   Thumb Code    76  usbd_req.o(i.USBD_GetConfig)
    i.USBD_GetDescriptor                     0x00004a90   Section        0  usbd_req.o(i.USBD_GetDescriptor)
    USBD_GetDescriptor                       0x00004a91   Thumb Code   350  usbd_req.o(i.USBD_GetDescriptor)
    i.USBD_GetLen                            0x00004bee   Section        0  usbd_req.o(i.USBD_GetLen)
    USBD_GetLen                              0x00004bef   Thumb Code    20  usbd_req.o(i.USBD_GetLen)
    i.USBD_GetRxCount                        0x00004c02   Section        0  usbd_ioreq.o(i.USBD_GetRxCount)
    i.USBD_GetStatus                         0x00004c1c   Section        0  usbd_req.o(i.USBD_GetStatus)
    USBD_GetStatus                           0x00004c1d   Thumb Code    74  usbd_req.o(i.USBD_GetStatus)
    i.USBD_GetString                         0x00004c6c   Section        0  usbd_req.o(i.USBD_GetString)
    i.USBD_Init                              0x00004cba   Section        0  usbd_core.o(i.USBD_Init)
    i.USBD_IsoINIncomplete                   0x00004d10   Section        0  usbd_core.o(i.USBD_IsoINIncomplete)
    USBD_IsoINIncomplete                     0x00004d11   Thumb Code    26  usbd_core.o(i.USBD_IsoINIncomplete)
    i.USBD_IsoOUTIncomplete                  0x00004d2a   Section        0  usbd_core.o(i.USBD_IsoOUTIncomplete)
    USBD_IsoOUTIncomplete                    0x00004d2b   Thumb Code    26  usbd_core.o(i.USBD_IsoOUTIncomplete)
    i.USBD_OTG_ISR_Handler                   0x00004d44   Section        0  usb_dcd_int.o(i.USBD_OTG_ISR_Handler)
    i.USBD_ParseSetupRequest                 0x00004e3c   Section        0  usbd_req.o(i.USBD_ParseSetupRequest)
    i.USBD_Reset                             0x00004eb4   Section        0  usbd_core.o(i.USBD_Reset)
    USBD_Reset                               0x00004eb5   Thumb Code    56  usbd_core.o(i.USBD_Reset)
    i.USBD_Resume                            0x00004eec   Section        0  usbd_core.o(i.USBD_Resume)
    USBD_Resume                              0x00004eed   Thumb Code    36  usbd_core.o(i.USBD_Resume)
    i.USBD_RunTestMode                       0x00004f10   Section        0  usbd_core.o(i.USBD_RunTestMode)
    USBD_RunTestMode                         0x00004f11   Thumb Code    14  usbd_core.o(i.USBD_RunTestMode)
    i.USBD_SOF                               0x00004f24   Section        0  usbd_core.o(i.USBD_SOF)
    USBD_SOF                                 0x00004f25   Thumb Code    42  usbd_core.o(i.USBD_SOF)
    i.USBD_SetAddress                        0x00004f4e   Section        0  usbd_req.o(i.USBD_SetAddress)
    USBD_SetAddress                          0x00004f4f   Thumb Code    90  usbd_req.o(i.USBD_SetAddress)
    i.USBD_SetCfg                            0x00004fa8   Section        0  usbd_core.o(i.USBD_SetCfg)
    i.USBD_SetConfig                         0x00004fd8   Section        0  usbd_req.o(i.USBD_SetConfig)
    USBD_SetConfig                           0x00004fd9   Thumb Code   202  usbd_req.o(i.USBD_SetConfig)
    i.USBD_SetFeature                        0x000050a8   Section        0  usbd_req.o(i.USBD_SetFeature)
    USBD_SetFeature                          0x000050a9   Thumb Code   178  usbd_req.o(i.USBD_SetFeature)
    i.USBD_SetupStage                        0x00005160   Section        0  usbd_core.o(i.USBD_SetupStage)
    USBD_SetupStage                          0x00005161   Thumb Code    88  usbd_core.o(i.USBD_SetupStage)
    i.USBD_StdDevReq                         0x000051b8   Section        0  usbd_req.o(i.USBD_StdDevReq)
    i.USBD_StdEPReq                          0x0000522c   Section        0  usbd_req.o(i.USBD_StdEPReq)
    i.USBD_StdItfReq                         0x000053c8   Section        0  usbd_req.o(i.USBD_StdItfReq)
    i.USBD_Suspend                           0x0000541e   Section        0  usbd_core.o(i.USBD_Suspend)
    USBD_Suspend                             0x0000541f   Thumb Code    38  usbd_core.o(i.USBD_Suspend)
    i.USBD_USR_ConfigStrDescriptor           0x00005444   Section        0  usbd_desc.o(i.USBD_USR_ConfigStrDescriptor)
    i.USBD_USR_DeviceConfigured              0x00005468   Section        0  usbd_usr.o(i.USBD_USR_DeviceConfigured)
    i.USBD_USR_DeviceConnected               0x0000546a   Section        0  usbd_usr.o(i.USBD_USR_DeviceConnected)
    i.USBD_USR_DeviceDescriptor              0x0000546c   Section        0  usbd_desc.o(i.USBD_USR_DeviceDescriptor)
    i.USBD_USR_DeviceDisconnected            0x0000547c   Section        0  usbd_usr.o(i.USBD_USR_DeviceDisconnected)
    i.USBD_USR_DeviceReset                   0x0000547e   Section        0  usbd_usr.o(i.USBD_USR_DeviceReset)
    i.USBD_USR_DeviceResumed                 0x00005480   Section        0  usbd_usr.o(i.USBD_USR_DeviceResumed)
    i.USBD_USR_DeviceSuspended               0x00005482   Section        0  usbd_usr.o(i.USBD_USR_DeviceSuspended)
    i.USBD_USR_Init                          0x00005484   Section        0  usbd_usr.o(i.USBD_USR_Init)
    i.USBD_USR_InterfaceStrDescriptor        0x00005488   Section        0  usbd_desc.o(i.USBD_USR_InterfaceStrDescriptor)
    i.USBD_USR_LangIDStrDescriptor           0x000054b0   Section        0  usbd_desc.o(i.USBD_USR_LangIDStrDescriptor)
    i.USBD_USR_ManufacturerStrDescriptor     0x000054c0   Section        0  usbd_desc.o(i.USBD_USR_ManufacturerStrDescriptor)
    i.USBD_USR_ProductStrDescriptor          0x000054e0   Section        0  usbd_desc.o(i.USBD_USR_ProductStrDescriptor)
    i.USBD_USR_SerialStrDescriptor           0x00005518   Section        0  usbd_desc.o(i.USBD_USR_SerialStrDescriptor)
    i.USBD_cdc_GetCfgDesc                    0x00005530   Section        0  cdc_core.o(i.USBD_cdc_GetCfgDesc)
    USBD_cdc_GetCfgDesc                      0x00005531   Thumb Code    10  cdc_core.o(i.USBD_cdc_GetCfgDesc)
    i.USBInit                                0x00005540   Section        0  usb.o(i.USBInit)
    i.USB_Clock_Init                         0x00005694   Section        0  usb_bsp.o(i.USB_Clock_Init)
    USB_Clock_Init                           0x00005695   Thumb Code   110  usb_bsp.o(i.USB_Clock_Init)
    i.USB_IRQHandler                         0x00005708   Section        0  usb.o(i.USB_IRQHandler)
    i.USB_OTG_BSP_EnableInterrupt            0x00005718   Section        0  usb_bsp.o(i.USB_OTG_BSP_EnableInterrupt)
    i.USB_OTG_BSP_Init                       0x00005774   Section        0  usb_bsp.o(i.USB_OTG_BSP_Init)
    i.USB_OTG_BSP_mDelay                     0x00005790   Section        0  usb_bsp.o(i.USB_OTG_BSP_mDelay)
    i.USB_OTG_BSP_uDelay                     0x000057a2   Section        0  usb_bsp.o(i.USB_OTG_BSP_uDelay)
    i.USB_OTG_CoreInit                       0x000057ae   Section        0  usb_core.o(i.USB_OTG_CoreInit)
    i.USB_OTG_CoreInitDev                    0x000057c4   Section        0  usb_core.o(i.USB_OTG_CoreInitDev)
    i.USB_OTG_CoreReset                      0x0000593c   Section        0  usb_core.o(i.USB_OTG_CoreReset)
    USB_OTG_CoreReset                        0x0000593d   Thumb Code   108  usb_core.o(i.USB_OTG_CoreReset)
    i.USB_OTG_DisableGlobalInt               0x000059ac   Section        0  usb_core.o(i.USB_OTG_DisableGlobalInt)
    i.USB_OTG_EP0Activate                    0x000059cc   Section        0  usb_core.o(i.USB_OTG_EP0Activate)
    i.USB_OTG_EP0StartXfer                   0x00005a42   Section        0  usb_core.o(i.USB_OTG_EP0StartXfer)
    i.USB_OTG_EP0_OutStart                   0x00005b8c   Section        0  usb_core.o(i.USB_OTG_EP0_OutStart)
    i.USB_OTG_EPActivate                     0x00005bbc   Section        0  usb_core.o(i.USB_OTG_EPActivate)
    i.USB_OTG_EPClearStall                   0x00005c7c   Section        0  usb_core.o(i.USB_OTG_EPClearStall)
    i.USB_OTG_EPDeactivate                   0x00005cce   Section        0  usb_core.o(i.USB_OTG_EPDeactivate)
    i.USB_OTG_EPSetStall                     0x00005d68   Section        0  usb_core.o(i.USB_OTG_EPSetStall)
    i.USB_OTG_EPStartXfer                    0x00005dd0   Section        0  usb_core.o(i.USB_OTG_EPStartXfer)
    i.USB_OTG_EnableCommonInt                0x00005ff0   Section        0  usb_core.o(i.USB_OTG_EnableCommonInt)
    USB_OTG_EnableCommonInt                  0x00005ff1   Thumb Code    44  usb_core.o(i.USB_OTG_EnableCommonInt)
    i.USB_OTG_EnableDevInt                   0x00006020   Section        0  usb_core.o(i.USB_OTG_EnableDevInt)
    i.USB_OTG_EnableGlobalInt                0x000060b4   Section        0  usb_core.o(i.USB_OTG_EnableGlobalInt)
    i.USB_OTG_FlushRxFifo                    0x000060d8   Section        0  usb_core.o(i.USB_OTG_FlushRxFifo)
    i.USB_OTG_FlushTxFifo                    0x00006124   Section        0  usb_core.o(i.USB_OTG_FlushTxFifo)
    i.USB_OTG_GetMode                        0x00006184   Section        0  usb_core.o(i.USB_OTG_GetMode)
    i.USB_OTG_InitDevSpeed                   0x00006190   Section        0  usb_core.o(i.USB_OTG_InitDevSpeed)
    i.USB_OTG_IsDeviceMode                   0x000061ae   Section        0  usb_core.o(i.USB_OTG_IsDeviceMode)
    i.USB_OTG_ReadCoreItr                    0x000061c4   Section        0  usb_core.o(i.USB_OTG_ReadCoreItr)
    i.USB_OTG_ReadDevAllInEPItr              0x000061d4   Section        0  usb_core.o(i.USB_OTG_ReadDevAllInEPItr)
    i.USB_OTG_ReadDevAllOutEp_itr            0x000061e4   Section        0  usb_core.o(i.USB_OTG_ReadDevAllOutEp_itr)
    i.USB_OTG_ReadDevOutEP_itr               0x000061f4   Section        0  usb_core.o(i.USB_OTG_ReadDevOutEP_itr)
    i.USB_OTG_ReadPacket                     0x0000620a   Section        0  usb_core.o(i.USB_OTG_ReadPacket)
    i.USB_OTG_SelectCore                     0x00006242   Section        0  usb_core.o(i.USB_OTG_SelectCore)
    i.USB_OTG_SetCurrentMode                 0x000062d2   Section        0  usb_core.o(i.USB_OTG_SetCurrentMode)
    i.USB_OTG_WritePacket                    0x000062e4   Section        0  usb_core.o(i.USB_OTG_WritePacket)
    i.USB_Soft_Connect                       0x00006336   Section        0  usb_bsp.o(i.USB_Soft_Connect)
    USB_Soft_Connect                         0x00006337   Thumb Code    24  usb_bsp.o(i.USB_Soft_Connect)
    i.USB_Soft_Disconnect                    0x0000634e   Section        0  usb_bsp.o(i.USB_Soft_Disconnect)
    USB_Soft_Disconnect                      0x0000634f   Thumb Code    26  usb_bsp.o(i.USB_Soft_Disconnect)
    i.VCP_COMConfig                          0x00006368   Section        0  cdc_vcp.o(i.VCP_COMConfig)
    VCP_COMConfig                            0x00006369   Thumb Code   250  cdc_vcp.o(i.VCP_COMConfig)
    i.VCP_Ctrl                               0x00006470   Section        0  cdc_vcp.o(i.VCP_Ctrl)
    VCP_Ctrl                                 0x00006471   Thumb Code   194  cdc_vcp.o(i.VCP_Ctrl)
    i.VCP_DataRx                             0x00006538   Section        0  cdc_vcp.o(i.VCP_DataRx)
    VCP_DataRx                               0x00006539   Thumb Code    16  cdc_vcp.o(i.VCP_DataRx)
    i.VCP_DataTx                             0x0000654c   Section        0  cdc_vcp.o(i.VCP_DataTx)
    VCP_DataTx                               0x0000654d   Thumb Code     6  cdc_vcp.o(i.VCP_DataTx)
    i.VCP_DeInit                             0x00006552   Section        0  cdc_vcp.o(i.VCP_DeInit)
    VCP_DeInit                               0x00006553   Thumb Code    10  cdc_vcp.o(i.VCP_DeInit)
    i.VCP_Init                               0x0000655c   Section        0  cdc_vcp.o(i.VCP_Init)
    VCP_Init                                 0x0000655d   Thumb Code    34  cdc_vcp.o(i.VCP_Init)
    i.__0vprintf                             0x00006590   Section        0  printfa.o(i.__0vprintf)
    i.__ARM_clz                              0x000065a4   Section        0  depilogue.o(i.__ARM_clz)
    i.__ARM_common_ll_muluu                  0x000065d2   Section        0  user_init.o(i.__ARM_common_ll_muluu)
    i.__ARM_common_switch8                   0x00006602   Section        0  fm33lc0xx_ll_lpuart.o(i.__ARM_common_switch8)
    i.__scatterload_copy                     0x0000661e   Section       14  handlers.o(i.__scatterload_copy)
    i.__scatterload_null                     0x0000662c   Section        2  handlers.o(i.__scatterload_null)
    i.__scatterload_zeroinit                 0x0000662e   Section       14  handlers.o(i.__scatterload_zeroinit)
    i._fp_digits                             0x0000663c   Section        0  printfa.o(i._fp_digits)
    _fp_digits                               0x0000663d   Thumb Code   344  printfa.o(i._fp_digits)
    i._printf_core                           0x000067b0   Section        0  printfa.o(i._printf_core)
    _printf_core                             0x000067b1   Thumb Code  1754  printfa.o(i._printf_core)
    i._printf_post_padding                   0x00006e9c   Section        0  printfa.o(i._printf_post_padding)
    _printf_post_padding                     0x00006e9d   Thumb Code    32  printfa.o(i._printf_post_padding)
    i._printf_pre_padding                    0x00006ebc   Section        0  printfa.o(i._printf_pre_padding)
    _printf_pre_padding                      0x00006ebd   Thumb Code    44  printfa.o(i._printf_pre_padding)
    i.bsp_DebugInit                          0x00006ee8   Section        0  bsp_debug.o(i.bsp_DebugInit)
    i.bsp_GPIO                               0x00006efc   Section        0  bsp_gpio.o(i.bsp_GPIO)
    i.bsp_Init                               0x00006f6c   Section        0  bsp.o(i.bsp_Init)
    i.bsp_Uartx_Init                         0x00006f98   Section        0  bsp_uart.o(i.bsp_Uartx_Init)
    i.bsp_adcInit                            0x000070d8   Section        0  bsp_adc.o(i.bsp_adcInit)
    i.fputc                                  0x0000715c   Section        0  bsp_debug.o(i.fputc)
    i.get_ad                                 0x00007180   Section        0  mcp3425.o(i.get_ad)
    i.get_vout                               0x000071f0   Section        0  mcp3425.o(i.get_vout)
    i.main                                   0x00007220   Section        0  main.o(i.main)
    i.mcp3425_init                           0x000073c0   Section        0  mcp3425.o(i.mcp3425_init)
    i.show_bat                               0x00007410   Section        0  bsp_adc.o(i.show_bat)
    i.usbd_cdc_DataIn                        0x000075f8   Section        0  cdc_core.o(i.usbd_cdc_DataIn)
    i.usbd_cdc_DataOut                       0x00007698   Section        0  cdc_core.o(i.usbd_cdc_DataOut)
    i.usbd_cdc_DeInit                        0x000076dc   Section        0  cdc_core.o(i.usbd_cdc_DeInit)
    i.usbd_cdc_EP0_RxReady                   0x00007700   Section        0  cdc_core.o(i.usbd_cdc_EP0_RxReady)
    i.usbd_cdc_Init                          0x00007738   Section        0  cdc_core.o(i.usbd_cdc_Init)
    i.usbd_cdc_SOF                           0x00007794   Section        0  cdc_core.o(i.usbd_cdc_SOF)
    i.usbd_cdc_Setup                         0x000077bc   Section        0  cdc_core.o(i.usbd_cdc_Setup)
    .conststring                             0x0000788c   Section       66  bsp.o(.conststring)
    .data                                    0x20000000   Section       16  main.o(.data)
    .data                                    0x20000010   Section        4  user_init.o(.data)
    .data                                    0x20000014   Section        3  mcp3425.o(.data)
    .data                                    0x20000018   Section     8120  pt100.o(.data)
    .data                                    0x20001fd0   Section        8  bsp_lcd.o(.data)
    .data                                    0x20001fd8   Section        4  bsp_rtc.o(.data)
    .data                                    0x20001fe0   Section       16  bsp_adc.o(.data)
    .data                                    0x20001ff0   Section       52  usbd_core.o(.data)
    .data                                    0x20002024   Section       13  usbd_req.o(.data)
    cfgidx                                   0x20002030   Data           1  usbd_req.o(.data)
    .data                                    0x20002034   Section      132  cdc_core.o(.data)
    usbd_cdc_AltSet                          0x20002034   Data           4  cdc_core.o(.data)
    cdcCmd                                   0x20002044   Data           4  cdc_core.o(.data)
    cdcLen                                   0x20002048   Data           4  cdc_core.o(.data)
    FrameCount                               0x200020b4   Data           4  cdc_core.o(.data)
    .data                                    0x200020b8   Section       28  cdc_vcp.o(.data)
    .data                                    0x200020d4   Section      116  usbd_desc.o(.data)
    .data                                    0x20002148   Section       28  usbd_usr.o(.data)
    .data                                    0x20002164   Section        4  stdout.o(.data)
    .bss                                     0x20002168   Section       80  main.o(.bss)
    .bss                                     0x200021b8   Section       80  bsp_lcd.o(.bss)
    .bss                                     0x20002208   Section      188  cdc_core.o(.bss)
    .bss                                     0x200022c4   Section     2072  cdc_vcp.o(.bss)
    rxBuff                                   0x200022dc   Data        1024  cdc_vcp.o(.bss)
    txBuff                                   0x200026dc   Data        1024  cdc_vcp.o(.bss)
    .bss                                     0x20002adc   Section     1456  usb_bsp.o(.bss)
    .bss                                     0x2000308c   Section      255  usbd_desc.o(.bss)
    STACK                                    0x20003190   Section     2048  startup_fm33lc0xx.o(STACK)

    Global Symbols

    Symbol Name                              Value     Ov Type        Size  Object(Section)

    BuildAttributes$$THM_ISAv3M$S$PE$A:L22$X:L11$S22$IEEE1$IW$USESV6$~STKCKD$USESV7$~SHL$OTIME$ROPI$EBA8$MICROLIB$REQ8$PRES8$EABIv2 0x00000000   Number         0  anon$$obj.o ABSOLUTE
    __ARM_use_no_argv                        0x00000000   Number         0  main.o ABSOLUTE
    __Vectors                                0x00000000   Data           4  startup_fm33lc0xx.o(RESET)
    __cpp_initialize__aeabi_                  - Undefined Weak Reference
    __cxa_finalize                            - Undefined Weak Reference
    _clock_init                               - Undefined Weak Reference
    _microlib_exit                            - Undefined Weak Reference
    __Vectors_End                            0x000000c0   Data           0  startup_fm33lc0xx.o(RESET)
    __Vectors_Size                           0x000000c0   Number         0  startup_fm33lc0xx.o ABSOLUTE
    __main                                   0x000000c1   Thumb Code     0  entry.o(.ARM.Collect$$$$00000000)
    _main_stk                                0x000000c1   Thumb Code     0  entry2.o(.ARM.Collect$$$$00000001)
    _main_scatterload                        0x000000c5   Thumb Code     0  entry5.o(.ARM.Collect$$$$00000004)
    __main_after_scatterload                 0x000000c9   Thumb Code     0  entry5.o(.ARM.Collect$$$$00000004)
    _main_clock                              0x000000c9   Thumb Code     0  entry7b.o(.ARM.Collect$$$$00000008)
    _main_cpp_init                           0x000000c9   Thumb Code     0  entry8b.o(.ARM.Collect$$$$0000000A)
    _main_init                               0x000000c9   Thumb Code     0  entry9a.o(.ARM.Collect$$$$0000000B)
    __rt_final_cpp                           0x000000d1   Thumb Code     0  entry10a.o(.ARM.Collect$$$$0000000D)
    __rt_final_exit                          0x000000d1   Thumb Code     0  entry11a.o(.ARM.Collect$$$$0000000F)
    Reset_Handler                            0x000000d5   Thumb Code     8  startup_fm33lc0xx.o(.text)
    HardFault_Handler                        0x000000df   Thumb Code     2  startup_fm33lc0xx.o(.text)
    SVC_Handler                              0x000000e1   Thumb Code     2  startup_fm33lc0xx.o(.text)
    PendSV_Handler                           0x000000e3   Thumb Code     2  startup_fm33lc0xx.o(.text)
    SysTick_Handler                          0x000000e5   Thumb Code     2  startup_fm33lc0xx.o(.text)
    ADC_IRQHandler                           0x000000e7   Thumb Code     0  startup_fm33lc0xx.o(.text)
    AES_IRQHandler                           0x000000e7   Thumb Code     0  startup_fm33lc0xx.o(.text)
    ATIM_IRQHandler                          0x000000e7   Thumb Code     0  startup_fm33lc0xx.o(.text)
    BSTIM_IRQHandler                         0x000000e7   Thumb Code     0  startup_fm33lc0xx.o(.text)
    COMPx_IRQHandler                         0x000000e7   Thumb Code     0  startup_fm33lc0xx.o(.text)
    DMA_IRQHandler                           0x000000e7   Thumb Code     0  startup_fm33lc0xx.o(.text)
    FLASH_IRQHandler                         0x000000e7   Thumb Code     0  startup_fm33lc0xx.o(.text)
    GPTIM0_IRQHandler                        0x000000e7   Thumb Code     0  startup_fm33lc0xx.o(.text)
    GPTIM1_IRQHandler                        0x000000e7   Thumb Code     0  startup_fm33lc0xx.o(.text)
    HFDET_IRQHandler                         0x000000e7   Thumb Code     0  startup_fm33lc0xx.o(.text)
    I2C_IRQHandler                           0x000000e7   Thumb Code     0  startup_fm33lc0xx.o(.text)
    IWDT_IRQHandler                          0x000000e7   Thumb Code     0  startup_fm33lc0xx.o(.text)
    LCD_IRQHandler                           0x000000e7   Thumb Code     0  startup_fm33lc0xx.o(.text)
    LFDET_IRQHandler                         0x000000e7   Thumb Code     0  startup_fm33lc0xx.o(.text)
    LPTIM_IRQHandler                         0x000000e7   Thumb Code     0  startup_fm33lc0xx.o(.text)
    LPUART0_IRQHandler                       0x000000e7   Thumb Code     0  startup_fm33lc0xx.o(.text)
    LPUART1_IRQHandler                       0x000000e7   Thumb Code     0  startup_fm33lc0xx.o(.text)
    OPAx_IRQHandler                          0x000000e7   Thumb Code     0  startup_fm33lc0xx.o(.text)
    SPI1_IRQHandler                          0x000000e7   Thumb Code     0  startup_fm33lc0xx.o(.text)
    SPI2_IRQHandler                          0x000000e7   Thumb Code     0  startup_fm33lc0xx.o(.text)
    SVD_IRQHandler                           0x000000e7   Thumb Code     0  startup_fm33lc0xx.o(.text)
    U7816_IRQHandler                         0x000000e7   Thumb Code     0  startup_fm33lc0xx.o(.text)
    VREF_IRQHandler                          0x000000e7   Thumb Code     0  startup_fm33lc0xx.o(.text)
    WKUP_IRQHandler                          0x000000e7   Thumb Code     0  startup_fm33lc0xx.o(.text)
    WWDT_IRQHandler                          0x000000e7   Thumb Code     0  startup_fm33lc0xx.o(.text)
    __aeabi_uidiv                            0x000000f1   Thumb Code     0  uidiv.o(.text)
    __aeabi_uidivmod                         0x000000f1   Thumb Code    44  uidiv.o(.text)
    __aeabi_idiv                             0x0000011d   Thumb Code     0  idiv.o(.text)
    __aeabi_idivmod                          0x0000011d   Thumb Code    40  idiv.o(.text)
    __aeabi_uldivmod                         0x00000145   Thumb Code    96  uldiv.o(.text)
    __aeabi_lmul                             0x000001a5   Thumb Code   122  llmul.o(.text)
    _ll_mul                                  0x000001a5   Thumb Code     0  llmul.o(.text)
    __aeabi_memset                           0x0000021f   Thumb Code    14  memseta.o(.text)
    __aeabi_memset4                          0x0000021f   Thumb Code     0  memseta.o(.text)
    __aeabi_memset8                          0x0000021f   Thumb Code     0  memseta.o(.text)
    __aeabi_memclr                           0x0000022d   Thumb Code     4  memseta.o(.text)
    __aeabi_memclr4                          0x0000022d   Thumb Code     0  memseta.o(.text)
    __aeabi_memclr8                          0x0000022d   Thumb Code     0  memseta.o(.text)
    _memset$wrapper                          0x00000231   Thumb Code    18  memseta.o(.text)
    __aeabi_uread4                           0x00000243   Thumb Code    20  uread4.o(.text)
    __rt_uread4                              0x00000243   Thumb Code     0  uread4.o(.text)
    _uread4                                  0x00000243   Thumb Code     0  uread4.o(.text)
    __aeabi_uwrite4                          0x00000257   Thumb Code    18  uwrite4.o(.text)
    __rt_uwrite4                             0x00000257   Thumb Code     0  uwrite4.o(.text)
    _uwrite4                                 0x00000257   Thumb Code     0  uwrite4.o(.text)
    __aeabi_fmul                             0x00000269   Thumb Code   122  fmul.o(.text)
    __aeabi_fdiv                             0x000002e3   Thumb Code   124  fdiv.o(.text)
    __aeabi_dadd                             0x00000361   Thumb Code   328  dadd.o(.text)
    __aeabi_dsub                             0x000004a9   Thumb Code    12  dadd.o(.text)
    __aeabi_drsub                            0x000004b5   Thumb Code    12  dadd.o(.text)
    __aeabi_dmul                             0x000004c5   Thumb Code   202  dmul.o(.text)
    __aeabi_ddiv                             0x00000595   Thumb Code   234  ddiv.o(.text)
    __aeabi_ui2f                             0x00000685   Thumb Code    14  ffltui.o(.text)
    __aeabi_ui2d                             0x00000695   Thumb Code    24  dfltui.o(.text)
    __aeabi_f2iz                             0x000006b1   Thumb Code    50  ffixi.o(.text)
    __aeabi_f2uiz                            0x000006e3   Thumb Code    40  ffixui.o(.text)
    __aeabi_d2uiz                            0x0000070d   Thumb Code    50  dfixui.o(.text)
    __aeabi_f2d                              0x00000749   Thumb Code    40  f2d.o(.text)
    __aeabi_d2f                              0x00000771   Thumb Code    56  d2f.o(.text)
    __aeabi_cfcmpeq                          0x000007a9   Thumb Code     0  cfcmple.o(.text)
    __aeabi_cfcmple                          0x000007a9   Thumb Code    20  cfcmple.o(.text)
    __aeabi_cfrcmple                         0x000007bd   Thumb Code    20  cfrcmple.o(.text)
    __aeabi_llsl                             0x000007d1   Thumb Code    32  llshl.o(.text)
    _ll_shift_l                              0x000007d1   Thumb Code     0  llshl.o(.text)
    __aeabi_llsr                             0x000007f1   Thumb Code    34  llushr.o(.text)
    _ll_ushift_r                             0x000007f1   Thumb Code     0  llushr.o(.text)
    __aeabi_lasr                             0x00000813   Thumb Code    38  llsshr.o(.text)
    _ll_sshift_r                             0x00000813   Thumb Code     0  llsshr.o(.text)
    __I$use$fp                               0x00000839   Thumb Code     0  iusefp.o(.text)
    _float_round                             0x00000839   Thumb Code    16  fepilogue.o(.text)
    _float_epilogue                          0x00000849   Thumb Code   114  fepilogue.o(.text)
    _double_round                            0x000008bb   Thumb Code    26  depilogue.o(.text)
    _double_epilogue                         0x000008d5   Thumb Code   164  depilogue.o(.text)
    __aeabi_d2ulz                            0x00000979   Thumb Code    54  dfixul.o(.text)
    __aeabi_cdrcmple                         0x000009b9   Thumb Code    38  cdrcmple.o(.text)
    __scatterload                            0x000009e1   Thumb Code    28  init.o(.text)
    __scatterload_rt2                        0x000009e1   Thumb Code     0  init.o(.text)
    __decompress                             0x00000a05   Thumb Code     0  __dclz77c.o(.text)
    __decompress2                            0x00000a05   Thumb Code    96  __dclz77c.o(.text)
    ClockInit                                0x00000a65   Thumb Code   316  user_init.o(i.ClockInit)
    DCD_EP_Close                             0x00000bb9   Thumb Code    76  usb_dcd.o(i.DCD_EP_Close)
    DCD_EP_ClrStall                          0x00000c05   Thumb Code    76  usb_dcd.o(i.DCD_EP_ClrStall)
    DCD_EP_Open                              0x00000c51   Thumb Code   106  usb_dcd.o(i.DCD_EP_Open)
    DCD_EP_PrepareRx                         0x00000cbb   Thumb Code    86  usb_dcd.o(i.DCD_EP_PrepareRx)
    DCD_EP_SetAddress                        0x00000d11   Thumb Code    40  usb_dcd.o(i.DCD_EP_SetAddress)
    DCD_EP_Stall                             0x00000d39   Thumb Code    76  usb_dcd.o(i.DCD_EP_Stall)
    DCD_EP_Tx                                0x00000d85   Thumb Code    76  usb_dcd.o(i.DCD_EP_Tx)
    DCD_Init                                 0x000014b5   Thumb Code   154  usb_dcd.o(i.DCD_Init)
    Debug_Printf                             0x00001679   Thumb Code    28  bsp_debug.o(i.Debug_Printf)
    DelayMs                                  0x00001695   Thumb Code    24  user_init.o(i.DelayMs)
    DelayUs                                  0x000016ad   Thumb Code    66  user_init.o(i.DelayUs)
    GPIO_IRQHandler                          0x000016fd   Thumb Code    48  bsp_gpio.o(i.GPIO_IRQHandler)
    GPIO_interrupt_init                      0x00001731   Thumb Code   284  bsp_gpio.o(i.GPIO_interrupt_init)
    GetLengthNum                             0x00001859   Thumb Code    30  bsp_lcd.o(i.GetLengthNum)
    GetVoltageSample                         0x00001879   Thumb Code    76  bsp_adc.o(i.GetVoltageSample)
    GetVref1p22Sample                        0x000018c9   Thumb Code   110  bsp_adc.o(i.GetVref1p22Sample)
    Get_Vbat                                 0x00001985   Thumb Code   158  bsp_adc.o(i.Get_Vbat)
    I2C_Init                                 0x00001ad9   Thumb Code    58  bsp_i2c.o(i.I2C_Init)
    I2C_Receive_Byte                         0x00001b21   Thumb Code    64  bsp_i2c.o(i.I2C_Receive_Byte)
    I2C_Send_Bit                             0x00001b65   Thumb Code   122  bsp_i2c.o(i.I2C_Send_Bit)
    I2C_Send_Byte                            0x00001be5   Thumb Code    80  bsp_i2c.o(i.I2C_Send_Byte)
    LCD_BufToPanel                           0x00001c71   Thumb Code    84  bsp_lcd.o(i.LCD_BufToPanel)
    LCD_EndDraw                              0x00001cd5   Thumb Code    14  bsp_lcd.o(i.LCD_EndDraw)
    LCD_Num_Data                             0x00001ce9   Thumb Code  1570  bsp_lcd.o(i.LCD_Num_Data)
    LCD_ShowALL                              0x00002311   Thumb Code    44  bsp_lcd.o(i.LCD_ShowALL)
    LCD_Show_Count                           0x00002341   Thumb Code   562  bsp_lcd.o(i.LCD_Show_Count)
    LCD_Table                                0x00002581   Thumb Code    30  bsp_lcd.o(i.LCD_Table)
    LL_ADC_CommonInit                        0x000025b9   Thumb Code   210  fm33lc0xx_ll_adc.o(i.LL_ADC_CommonInit)
    LL_ADC_Init                              0x000026d1   Thumb Code   788  fm33lc0xx_ll_adc.o(i.LL_ADC_Init)
    LL_BSTIM_Init                            0x00002a11   Thumb Code   278  fm33lc0xx_ll_bstim.o(i.LL_BSTIM_Init)
    LL_GPIO_ALLPIN_LPM_MODE                  0x00002b75   Thumb Code   128  fm33lc0xx_ll_gpio.o(i.LL_GPIO_ALLPIN_LPM_MODE)
    LL_GPIO_Init                             0x00002c01   Thumb Code   398  fm33lc0xx_ll_gpio.o(i.LL_GPIO_Init)
    LL_GPIO_StructInit                       0x00002db1   Thumb Code    20  fm33lc0xx_ll_gpio.o(i.LL_GPIO_StructInit)
    LL_I2C_MasterMode_Init                   0x00002dc9   Thumb Code   350  fm33lc0xx_ll_i2c.o(i.LL_I2C_MasterMode_Init)
    LL_LCD_Init                              0x0000316d   Thumb Code   602  fm33lc0xx_ll_lcd.o(i.LL_LCD_Init)
    LL_RCC_GetAHBClockFreq                   0x00003401   Thumb Code    84  fm33lc0xx_ll_rcc.o(i.LL_RCC_GetAHBClockFreq)
    LL_RCC_GetAPB1ClockFreq                  0x00003459   Thumb Code    84  fm33lc0xx_ll_rcc.o(i.LL_RCC_GetAPB1ClockFreq)
    LL_RCC_GetAPB2ClockFreq                  0x000034b1   Thumb Code    84  fm33lc0xx_ll_rcc.o(i.LL_RCC_GetAPB2ClockFreq)
    LL_RCC_GetPLLClockFreq                   0x00003509   Thumb Code   146  fm33lc0xx_ll_rcc.o(i.LL_RCC_GetPLLClockFreq)
    LL_RCC_GetRC4MClockFreq                  0x000035a5   Thumb Code    58  fm33lc0xx_ll_rcc.o(i.LL_RCC_GetRC4MClockFreq)
    LL_RCC_GetRCHFClockFreq                  0x000035f5   Thumb Code    50  fm33lc0xx_ll_rcc.o(i.LL_RCC_GetRCHFClockFreq)
    LL_RCC_GetSystemClockFreq                0x00003639   Thumb Code    72  fm33lc0xx_ll_rcc.o(i.LL_RCC_GetSystemClockFreq)
    LL_RCC_GetUSBClockFreqToSysclk           0x00003689   Thumb Code    22  fm33lc0xx_ll_rcc.o(i.LL_RCC_GetUSBClockFreqToSysclk)
    LL_RTC_ConfigTime                        0x00003709   Thumb Code   120  fm33lc0xx_ll_rtc.o(i.LL_RTC_ConfigTime)
    LL_RTC_Init                              0x00003789   Thumb Code    56  fm33lc0xx_ll_rtc.o(i.LL_RTC_Init)
    LL_UART_Init                             0x000037d9   Thumb Code   700  fm33lc0xx_ll_uart.o(i.LL_UART_Init)
    LcdInit                                  0x00003b0d   Thumb Code   406  bsp_lcd.o(i.LcdInit)
    MF_Clock_Init                            0x00003cb5   Thumb Code    54  mf_config.o(i.MF_Clock_Init)
    NMI_Handler                              0x00003cf5   Thumb Code     2  bsp_gpio.o(i.NMI_Handler)
    NTC_ADCConv                              0x00003cf9   Thumb Code    26  pt100.o(i.NTC_ADCConv)
    NTC_GetT                                 0x00003d19   Thumb Code   116  pt100.o(i.NTC_GetT)
    NTC_SearchTable                          0x00003da5   Thumb Code    88  pt100.o(i.NTC_SearchTable)
    RTC_IRQHandler                           0x000041f5   Thumb Code   200  bsp_rtc.o(i.RTC_IRQHandler)
    RTC_Init                                 0x000042d5   Thumb Code   192  bsp_rtc.o(i.RTC_Init)
    StreamGetDataSize                        0x0000439d   Thumb Code     6  stream.o(i.StreamGetDataSize)
    StreamInit                               0x000043a3   Thumb Code    16  stream.o(i.StreamInit)
    StreamReadData                           0x000043b3   Thumb Code    64  stream.o(i.StreamReadData)
    StreamWriteData                          0x000043f3   Thumb Code    74  stream.o(i.StreamWriteData)
    SystemInit                               0x0000443d   Thumb Code   164  system_fm33lc0xx.o(i.SystemInit)
    SystickInit                              0x000044f1   Thumb Code    32  user_init.o(i.SystickInit)
    UART0_IRQHandler                         0x00004519   Thumb Code    58  bsp_uart.o(i.UART0_IRQHandler)
    UART1_DeInit                             0x00004559   Thumb Code    34  cdc_vcp.o(i.UART1_DeInit)
    UART1_IRQHandler                         0x00004581   Thumb Code   112  cdc_vcp.o(i.UART1_IRQHandler)
    UART1_Init                               0x000045fd   Thumb Code   158  cdc_vcp.o(i.UART1_Init)
    UART4_IRQHandler                         0x000046a9   Thumb Code    58  bsp_uart.o(i.UART4_IRQHandler)
    UART5_IRQHandler                         0x000046e9   Thumb Code    66  bsp_uart.o(i.UART5_IRQHandler)
    USBD_ClrCfg                              0x00004731   Thumb Code    30  usbd_core.o(i.USBD_ClrCfg)
    USBD_CtlContinueRx                       0x0000479b   Thumb Code    26  usbd_ioreq.o(i.USBD_CtlContinueRx)
    USBD_CtlContinueSendData                 0x000047b5   Thumb Code    26  usbd_ioreq.o(i.USBD_CtlContinueSendData)
    USBD_CtlError                            0x000047cf   Thumb Code    30  usbd_req.o(i.USBD_CtlError)
    USBD_CtlPrepareRx                        0x000047ed   Thumb Code    52  usbd_ioreq.o(i.USBD_CtlPrepareRx)
    USBD_CtlReceiveStatus                    0x00004821   Thumb Code    34  usbd_ioreq.o(i.USBD_CtlReceiveStatus)
    USBD_CtlSendData                         0x00004843   Thumb Code    40  usbd_ioreq.o(i.USBD_CtlSendData)
    USBD_CtlSendStatus                       0x0000486b   Thumb Code    34  usbd_ioreq.o(i.USBD_CtlSendStatus)
    USBD_DeInit                              0x00004a3b   Thumb Code     6  usbd_core.o(i.USBD_DeInit)
    USBD_GetRxCount                          0x00004c03   Thumb Code    26  usbd_ioreq.o(i.USBD_GetRxCount)
    USBD_GetString                           0x00004c6d   Thumb Code    78  usbd_req.o(i.USBD_GetString)
    USBD_Init                                0x00004cbb   Thumb Code    86  usbd_core.o(i.USBD_Init)
    USBD_OTG_ISR_Handler                     0x00004d45   Thumb Code   246  usb_dcd_int.o(i.USBD_OTG_ISR_Handler)
    USBD_ParseSetupRequest                   0x00004e3d   Thumb Code   114  usbd_req.o(i.USBD_ParseSetupRequest)
    USBD_SetCfg                              0x00004fa9   Thumb Code    46  usbd_core.o(i.USBD_SetCfg)
    USBD_StdDevReq                           0x000051b9   Thumb Code   114  usbd_req.o(i.USBD_StdDevReq)
    USBD_StdEPReq                            0x0000522d   Thumb Code   406  usbd_req.o(i.USBD_StdEPReq)
    USBD_StdItfReq                           0x000053c9   Thumb Code    86  usbd_req.o(i.USBD_StdItfReq)
    USBD_USR_ConfigStrDescriptor             0x00005445   Thumb Code    20  usbd_desc.o(i.USBD_USR_ConfigStrDescriptor)
    USBD_USR_DeviceConfigured                0x00005469   Thumb Code     2  usbd_usr.o(i.USBD_USR_DeviceConfigured)
    USBD_USR_DeviceConnected                 0x0000546b   Thumb Code     2  usbd_usr.o(i.USBD_USR_DeviceConnected)
    USBD_USR_DeviceDescriptor                0x0000546d   Thumb Code    10  usbd_desc.o(i.USBD_USR_DeviceDescriptor)
    USBD_USR_DeviceDisconnected              0x0000547d   Thumb Code     2  usbd_usr.o(i.USBD_USR_DeviceDisconnected)
    USBD_USR_DeviceReset                     0x0000547f   Thumb Code     2  usbd_usr.o(i.USBD_USR_DeviceReset)
    USBD_USR_DeviceResumed                   0x00005481   Thumb Code     2  usbd_usr.o(i.USBD_USR_DeviceResumed)
    USBD_USR_DeviceSuspended                 0x00005483   Thumb Code     2  usbd_usr.o(i.USBD_USR_DeviceSuspended)
    USBD_USR_Init                            0x00005485   Thumb Code     2  usbd_usr.o(i.USBD_USR_Init)
    USBD_USR_InterfaceStrDescriptor          0x00005489   Thumb Code    20  usbd_desc.o(i.USBD_USR_InterfaceStrDescriptor)
    USBD_USR_LangIDStrDescriptor             0x000054b1   Thumb Code    10  usbd_desc.o(i.USBD_USR_LangIDStrDescriptor)
    USBD_USR_ManufacturerStrDescriptor       0x000054c1   Thumb Code    20  usbd_desc.o(i.USBD_USR_ManufacturerStrDescriptor)
    USBD_USR_ProductStrDescriptor            0x000054e1   Thumb Code    20  usbd_desc.o(i.USBD_USR_ProductStrDescriptor)
    USBD_USR_SerialStrDescriptor             0x00005519   Thumb Code    18  usbd_desc.o(i.USBD_USR_SerialStrDescriptor)
    USBInit                                  0x00005541   Thumb Code   290  usb.o(i.USBInit)
    USB_IRQHandler                           0x00005709   Thumb Code    10  usb.o(i.USB_IRQHandler)
    USB_OTG_BSP_EnableInterrupt              0x00005719   Thumb Code    80  usb_bsp.o(i.USB_OTG_BSP_EnableInterrupt)
    USB_OTG_BSP_Init                         0x00005775   Thumb Code    22  usb_bsp.o(i.USB_OTG_BSP_Init)
    USB_OTG_BSP_mDelay                       0x00005791   Thumb Code    18  usb_bsp.o(i.USB_OTG_BSP_mDelay)
    USB_OTG_BSP_uDelay                       0x000057a3   Thumb Code    12  usb_bsp.o(i.USB_OTG_BSP_uDelay)
    USB_OTG_CoreInit                         0x000057af   Thumb Code    22  usb_core.o(i.USB_OTG_CoreInit)
    USB_OTG_CoreInitDev                      0x000057c5   Thumb Code   374  usb_core.o(i.USB_OTG_CoreInitDev)
    USB_OTG_DisableGlobalInt                 0x000059ad   Thumb Code    32  usb_core.o(i.USB_OTG_DisableGlobalInt)
    USB_OTG_EP0Activate                      0x000059cd   Thumb Code   118  usb_core.o(i.USB_OTG_EP0Activate)
    USB_OTG_EP0StartXfer                     0x00005a43   Thumb Code   330  usb_core.o(i.USB_OTG_EP0StartXfer)
    USB_OTG_EP0_OutStart                     0x00005b8d   Thumb Code    48  usb_core.o(i.USB_OTG_EP0_OutStart)
    USB_OTG_EPActivate                       0x00005bbd   Thumb Code   192  usb_core.o(i.USB_OTG_EPActivate)
    USB_OTG_EPClearStall                     0x00005c7d   Thumb Code    82  usb_core.o(i.USB_OTG_EPClearStall)
    USB_OTG_EPDeactivate                     0x00005ccf   Thumb Code   154  usb_core.o(i.USB_OTG_EPDeactivate)
    USB_OTG_EPSetStall                       0x00005d69   Thumb Code   102  usb_core.o(i.USB_OTG_EPSetStall)
    USB_OTG_EPStartXfer                      0x00005dd1   Thumb Code   538  usb_core.o(i.USB_OTG_EPStartXfer)
    USB_OTG_EnableDevInt                     0x00006021   Thumb Code   142  usb_core.o(i.USB_OTG_EnableDevInt)
    USB_OTG_EnableGlobalInt                  0x000060b5   Thumb Code    34  usb_core.o(i.USB_OTG_EnableGlobalInt)
    USB_OTG_FlushRxFifo                      0x000060d9   Thumb Code    70  usb_core.o(i.USB_OTG_FlushRxFifo)
    USB_OTG_FlushTxFifo                      0x00006125   Thumb Code    92  usb_core.o(i.USB_OTG_FlushTxFifo)
    USB_OTG_GetMode                          0x00006185   Thumb Code    12  usb_core.o(i.USB_OTG_GetMode)
    USB_OTG_InitDevSpeed                     0x00006191   Thumb Code    30  usb_core.o(i.USB_OTG_InitDevSpeed)
    USB_OTG_IsDeviceMode                     0x000061af   Thumb Code    22  usb_core.o(i.USB_OTG_IsDeviceMode)
    USB_OTG_ReadCoreItr                      0x000061c5   Thumb Code    16  usb_core.o(i.USB_OTG_ReadCoreItr)
    USB_OTG_ReadDevAllInEPItr                0x000061d5   Thumb Code    16  usb_core.o(i.USB_OTG_ReadDevAllInEPItr)
    USB_OTG_ReadDevAllOutEp_itr              0x000061e5   Thumb Code    16  usb_core.o(i.USB_OTG_ReadDevAllOutEp_itr)
    USB_OTG_ReadDevOutEP_itr                 0x000061f5   Thumb Code    22  usb_core.o(i.USB_OTG_ReadDevOutEP_itr)
    USB_OTG_ReadPacket                       0x0000620b   Thumb Code    56  usb_core.o(i.USB_OTG_ReadPacket)
    USB_OTG_SelectCore                       0x00006243   Thumb Code   144  usb_core.o(i.USB_OTG_SelectCore)
    USB_OTG_SetCurrentMode                   0x000062d3   Thumb Code    18  usb_core.o(i.USB_OTG_SetCurrentMode)
    USB_OTG_WritePacket                      0x000062e5   Thumb Code    82  usb_core.o(i.USB_OTG_WritePacket)
    __0vprintf                               0x00006591   Thumb Code    12  printfa.o(i.__0vprintf)
    __1vprintf                               0x00006591   Thumb Code     0  printfa.o(i.__0vprintf)
    __2vprintf                               0x00006591   Thumb Code     0  printfa.o(i.__0vprintf)
    __c89vprintf                             0x00006591   Thumb Code     0  printfa.o(i.__0vprintf)
    vprintf                                  0x00006591   Thumb Code     0  printfa.o(i.__0vprintf)
    __ARM_clz                                0x000065a5   Thumb Code    46  depilogue.o(i.__ARM_clz)
    __ARM_common_ll_muluu                    0x000065d3   Thumb Code    48  user_init.o(i.__ARM_common_ll_muluu)
    __ARM_common_switch8                     0x00006603   Thumb Code    28  fm33lc0xx_ll_lpuart.o(i.__ARM_common_switch8)
    __scatterload_copy                       0x0000661f   Thumb Code    14  handlers.o(i.__scatterload_copy)
    __scatterload_null                       0x0000662d   Thumb Code     2  handlers.o(i.__scatterload_null)
    __scatterload_zeroinit                   0x0000662f   Thumb Code    14  handlers.o(i.__scatterload_zeroinit)
    bsp_DebugInit                            0x00006ee9   Thumb Code    14  bsp_debug.o(i.bsp_DebugInit)
    bsp_GPIO                                 0x00006efd   Thumb Code   108  bsp_gpio.o(i.bsp_GPIO)
    bsp_Init                                 0x00006f6d   Thumb Code    44  bsp.o(i.bsp_Init)
    bsp_Uartx_Init                           0x00006f99   Thumb Code   312  bsp_uart.o(i.bsp_Uartx_Init)
    bsp_adcInit                              0x000070d9   Thumb Code   120  bsp_adc.o(i.bsp_adcInit)
    fputc                                    0x0000715d   Thumb Code    30  bsp_debug.o(i.fputc)
    get_ad                                   0x00007181   Thumb Code    94  mcp3425.o(i.get_ad)
    get_vout                                 0x000071f1   Thumb Code    36  mcp3425.o(i.get_vout)
    main                                     0x00007221   Thumb Code   360  main.o(i.main)
    mcp3425_init                             0x000073c1   Thumb Code    76  mcp3425.o(i.mcp3425_init)
    show_bat                                 0x00007411   Thumb Code   478  bsp_adc.o(i.show_bat)
    usbd_cdc_DataIn                          0x000075f9   Thumb Code   144  cdc_core.o(i.usbd_cdc_DataIn)
    usbd_cdc_DataOut                         0x00007699   Thumb Code    56  cdc_core.o(i.usbd_cdc_DataOut)
    usbd_cdc_DeInit                          0x000076dd   Thumb Code    32  cdc_core.o(i.usbd_cdc_DeInit)
    usbd_cdc_EP0_RxReady                     0x00007701   Thumb Code    38  cdc_core.o(i.usbd_cdc_EP0_RxReady)
    usbd_cdc_Init                            0x00007739   Thumb Code    70  cdc_core.o(i.usbd_cdc_Init)
    usbd_cdc_SOF                             0x00007795   Thumb Code    36  cdc_core.o(i.usbd_cdc_SOF)
    usbd_cdc_Setup                           0x000077bd   Thumb Code   186  cdc_core.o(i.usbd_cdc_Setup)
    Region$$Table$$Base                      0x000078d0   Number         0  anon$$obj.o(Region$$Table)
    Region$$Table$$Limit                     0x000078f0   Number         0  anon$$obj.o(Region$$Table)
    i                                        0x20000000   Data           1  main.o(.data)
    t_z                                      0x20000002   Data           2  main.o(.data)
    t_f                                      0x20000004   Data           1  main.o(.data)
    temp                                     0x20000008   Data           4  main.o(.data)
    temp_buf                                 0x2000000c   Data           4  main.o(.data)
    systemClock                              0x20000010   Data           4  user_init.o(.data)
    h_byte                                   0x20000014   Data           1  mcp3425.o(.data)
    l_byte                                   0x20000015   Data           1  mcp3425.o(.data)
    c_byte                                   0x20000016   Data           1  mcp3425.o(.data)
    RTD_TAB_PT100                            0x20000018   Data        8120  pt100.o(.data)
    s_ucUpdateEn                             0x20001fd0   Data           1  bsp_lcd.o(.data)
    Count32                                  0x20001fd4   Data           4  bsp_lcd.o(.data)
    is1min                                   0x20001fd8   Data           1  bsp_rtc.o(.data)
    is2hz                                    0x20001fd9   Data           1  bsp_rtc.o(.data)
    is8hz                                    0x20001fda   Data           1  bsp_rtc.o(.data)
    is1hz                                    0x20001fdb   Data           1  bsp_rtc.o(.data)
    GetVSample                               0x20001fe0   Data           8  bsp_adc.o(.data)
    Get122VSample                            0x20001fe8   Data           4  bsp_adc.o(.data)
    GetV                                     0x20001fec   Data           4  bsp_adc.o(.data)
    SET_TEST_MODE                            0x20001ff0   Data           4  usbd_core.o(.data)
    USBD_DCD_INT_cb                          0x20001ff4   Data          44  usbd_core.o(.data)
    USBD_DCD_INT_fops                        0x20002020   Data           4  usbd_core.o(.data)
    USBD_ep_status                           0x20002024   Data           4  usbd_req.o(.data)
    USBD_default_cfg                         0x20002028   Data           4  usbd_req.o(.data)
    USBD_cfg_status                          0x2000202c   Data           4  usbd_req.o(.data)
    CmdBuff                                  0x20002038   Data           8  cdc_core.o(.data)
    USB_Tx_State                             0x20002040   Data           1  cdc_core.o(.data)
    USBD_CDC_cb                              0x2000204c   Data          44  cdc_core.o(.data)
    usbd_cdc_CfgDesc                         0x20002078   Data          60  cdc_core.o(.data)
    linecoding                               0x200020b8   Data           8  cdc_vcp.o(.data)
    VCP_fops                                 0x200020c0   Data          20  cdc_vcp.o(.data)
    USR_desc                                 0x200020d4   Data          28  usbd_desc.o(.data)
    USBD_DeviceDesc                          0x200020f0   Data          18  usbd_desc.o(.data)
    USBD_LangIDDesc                          0x20002102   Data           4  usbd_desc.o(.data)
    USBD_StringSerial                        0x20002106   Data          66  usbd_desc.o(.data)
    USR_cb                                   0x20002148   Data          28  usbd_usr.o(.data)
    __stdout                                 0x20002164   Data           4  stdout.o(.data)
    NTC_ADCCon                               0x20002168   Data          40  main.o(.bss)
    databuffer                               0x20002190   Data          40  main.o(.bss)
    DISPDATA                                 0x200021b8   Data          40  bsp_lcd.o(.bss)
    s_DispBuf                                0x200021e0   Data          40  bsp_lcd.o(.bss)
    usbd_cdc_OtherCfgDesc                    0x20002208   Data          60  cdc_core.o(.bss)
    USB_Rx_Buffer                            0x20002244   Data          64  cdc_core.o(.bss)
    USB_Tx_Buffer                            0x20002284   Data          64  cdc_core.o(.bss)
    USBRxStream                              0x200022c4   Data          12  cdc_vcp.o(.bss)
    USBTxStream                              0x200022d0   Data          12  cdc_vcp.o(.bss)
    USB_OTG_dev                              0x20002adc   Data        1456  usb_bsp.o(.bss)
    USBD_StrDesc                             0x2000308c   Data         255  usbd_desc.o(.bss)
    __initial_sp                             0x20003990   Data           0  startup_fm33lc0xx.o(STACK)



==============================================================================

Memory Map of the image

  Image Entry point : 0x000000c1

  Load Region LR_IROM1 (Base: 0x00000000, Size: 0x00009a58, Max: 0x00040000, ABSOLUTE, COMPRESSED[0x00009a18])

    Execution Region ER_IROM1 (Exec base: 0x00000000, Load base: 0x00000000, Size: 0x000078f0, Max: 0x00040000, ABSOLUTE)

    Exec Addr    Load Addr    Size         Type   Attr      Idx    E Section Name        Object

    0x00000000   0x00000000   0x000000c0   Data   RO            3    RESET               startup_fm33lc0xx.o
    0x000000c0   0x000000c0   0x00000000   Code   RO         3978  * .ARM.Collect$$$$00000000  mc_p.l(entry.o)
    0x000000c0   0x000000c0   0x00000004   Code   RO         4053    .ARM.Collect$$$$00000001  mc_p.l(entry2.o)
    0x000000c4   0x000000c4   0x00000004   Code   RO         4056    .ARM.Collect$$$$00000004  mc_p.l(entry5.o)
    0x000000c8   0x000000c8   0x00000000   Code   RO         4058    .ARM.Collect$$$$00000008  mc_p.l(entry7b.o)
    0x000000c8   0x000000c8   0x00000000   Code   RO         4060    .ARM.Collect$$$$0000000A  mc_p.l(entry8b.o)
    0x000000c8   0x000000c8   0x00000008   Code   RO         4061    .ARM.Collect$$$$0000000B  mc_p.l(entry9a.o)
    0x000000d0   0x000000d0   0x00000000   Code   RO         4063    .ARM.Collect$$$$0000000D  mc_p.l(entry10a.o)
    0x000000d0   0x000000d0   0x00000000   Code   RO         4065    .ARM.Collect$$$$0000000F  mc_p.l(entry11a.o)
    0x000000d0   0x000000d0   0x00000004   Code   RO         4054    .ARM.Collect$$$$00002712  mc_p.l(entry2.o)
    0x000000d4   0x000000d4   0x0000001c   Code   RO            4    .text               startup_fm33lc0xx.o
    0x000000f0   0x000000f0   0x0000002c   Code   RO         3981    .text               mc_p.l(uidiv.o)
    0x0000011c   0x0000011c   0x00000028   Code   RO         3983    .text               mc_p.l(idiv.o)
    0x00000144   0x00000144   0x00000060   Code   RO         3985    .text               mc_p.l(uldiv.o)
    0x000001a4   0x000001a4   0x0000007a   Code   RO         3989    .text               mc_p.l(llmul.o)
    0x0000021e   0x0000021e   0x00000024   Code   RO         3991    .text               mc_p.l(memseta.o)
    0x00000242   0x00000242   0x00000014   Code   RO         4021    .text               mc_p.l(uread4.o)
    0x00000256   0x00000256   0x00000012   Code   RO         4023    .text               mc_p.l(uwrite4.o)
    0x00000268   0x00000268   0x0000007a   Code   RO         4025    .text               mf_p.l(fmul.o)
    0x000002e2   0x000002e2   0x0000007c   Code   RO         4027    .text               mf_p.l(fdiv.o)
    0x0000035e   0x0000035e   0x00000002   PAD
    0x00000360   0x00000360   0x00000164   Code   RO         4029    .text               mf_p.l(dadd.o)
    0x000004c4   0x000004c4   0x000000d0   Code   RO         4031    .text               mf_p.l(dmul.o)
    0x00000594   0x00000594   0x000000f0   Code   RO         4033    .text               mf_p.l(ddiv.o)
    0x00000684   0x00000684   0x0000000e   Code   RO         4035    .text               mf_p.l(ffltui.o)
    0x00000692   0x00000692   0x00000002   PAD
    0x00000694   0x00000694   0x0000001c   Code   RO         4037    .text               mf_p.l(dfltui.o)
    0x000006b0   0x000006b0   0x00000032   Code   RO         4039    .text               mf_p.l(ffixi.o)
    0x000006e2   0x000006e2   0x00000028   Code   RO         4041    .text               mf_p.l(ffixui.o)
    0x0000070a   0x0000070a   0x00000002   PAD
    0x0000070c   0x0000070c   0x0000003c   Code   RO         4043    .text               mf_p.l(dfixui.o)
    0x00000748   0x00000748   0x00000028   Code   RO         4045    .text               mf_p.l(f2d.o)
    0x00000770   0x00000770   0x00000038   Code   RO         4047    .text               mf_p.l(d2f.o)
    0x000007a8   0x000007a8   0x00000014   Code   RO         4049    .text               mf_p.l(cfcmple.o)
    0x000007bc   0x000007bc   0x00000014   Code   RO         4051    .text               mf_p.l(cfrcmple.o)
    0x000007d0   0x000007d0   0x00000020   Code   RO         4068    .text               mc_p.l(llshl.o)
    0x000007f0   0x000007f0   0x00000022   Code   RO         4070    .text               mc_p.l(llushr.o)
    0x00000812   0x00000812   0x00000026   Code   RO         4072    .text               mc_p.l(llsshr.o)
    0x00000838   0x00000838   0x00000000   Code   RO         4074    .text               mc_p.l(iusefp.o)
    0x00000838   0x00000838   0x00000082   Code   RO         4075    .text               mf_p.l(fepilogue.o)
    0x000008ba   0x000008ba   0x000000be   Code   RO         4077    .text               mf_p.l(depilogue.o)
    0x00000978   0x00000978   0x00000040   Code   RO         4081    .text               mf_p.l(dfixul.o)
    0x000009b8   0x000009b8   0x00000028   Code   RO         4083    .text               mf_p.l(cdrcmple.o)
    0x000009e0   0x000009e0   0x00000024   Code   RO         4085    .text               mc_p.l(init.o)
    0x00000a04   0x00000a04   0x00000060   Code   RO         4095    .text               mc_p.l(__dclz77c.o)
    0x00000a64   0x00000a64   0x00000154   Code   RO          339    i.ClockInit         user_init.o
    0x00000bb8   0x00000bb8   0x0000004c   Code   RO         3136    i.DCD_EP_Close      usb_dcd.o
    0x00000c04   0x00000c04   0x0000004c   Code   RO         3137    i.DCD_EP_ClrStall   usb_dcd.o
    0x00000c50   0x00000c50   0x0000006a   Code   RO         3139    i.DCD_EP_Open       usb_dcd.o
    0x00000cba   0x00000cba   0x00000056   Code   RO         3140    i.DCD_EP_PrepareRx  usb_dcd.o
    0x00000d10   0x00000d10   0x00000028   Code   RO         3141    i.DCD_EP_SetAddress  usb_dcd.o
    0x00000d38   0x00000d38   0x0000004c   Code   RO         3142    i.DCD_EP_Stall      usb_dcd.o
    0x00000d84   0x00000d84   0x0000004c   Code   RO         3143    i.DCD_EP_Tx         usb_dcd.o
    0x00000dd0   0x00000dd0   0x00000194   Code   RO         3226    i.DCD_HandleEnumDone_ISR  usb_dcd_int.o
    0x00000f64   0x00000f64   0x00000134   Code   RO         3227    i.DCD_HandleInEP_ISR  usb_dcd_int.o
    0x00001098   0x00001098   0x00000110   Code   RO         3228    i.DCD_HandleOutEP_ISR  usb_dcd_int.o
    0x000011a8   0x000011a8   0x00000070   Code   RO         3229    i.DCD_HandleResume_ISR  usb_dcd_int.o
    0x00001218   0x00001218   0x000000c0   Code   RO         3230    i.DCD_HandleRxStatusQueueLevel_ISR  usb_dcd_int.o
    0x000012d8   0x000012d8   0x0000002c   Code   RO         3231    i.DCD_HandleSof_ISR  usb_dcd_int.o
    0x00001304   0x00001304   0x000000a8   Code   RO         3232    i.DCD_HandleUSBSuspend_ISR  usb_dcd_int.o
    0x000013ac   0x000013ac   0x00000108   Code   RO         3233    i.DCD_HandleUsbReset_ISR  usb_dcd_int.o
    0x000014b4   0x000014b4   0x0000009a   Code   RO         3145    i.DCD_Init          usb_dcd.o
    0x0000154e   0x0000154e   0x00000002   PAD
    0x00001550   0x00001550   0x0000002c   Code   RO         3234    i.DCD_IsoINIncomplete_ISR  usb_dcd_int.o
    0x0000157c   0x0000157c   0x0000002c   Code   RO         3235    i.DCD_IsoOUTIncomplete_ISR  usb_dcd_int.o
    0x000015a8   0x000015a8   0x00000026   Code   RO         3236    i.DCD_ReadDevInEP   usb_dcd_int.o
    0x000015ce   0x000015ce   0x000000aa   Code   RO         3237    i.DCD_WriteEmptyTxFifo  usb_dcd_int.o
    0x00001678   0x00001678   0x0000001c   Code   RO         2174    i.Debug_Printf      bsp_debug.o
    0x00001694   0x00001694   0x00000018   Code   RO          340    i.DelayMs           user_init.o
    0x000016ac   0x000016ac   0x00000050   Code   RO          341    i.DelayUs           user_init.o
    0x000016fc   0x000016fc   0x00000034   Code   RO         2585    i.GPIO_IRQHandler   bsp_gpio.o
    0x00001730   0x00001730   0x00000128   Code   RO         2586    i.GPIO_interrupt_init  bsp_gpio.o
    0x00001858   0x00001858   0x0000001e   Code   RO         2244    i.GetLengthNum      bsp_lcd.o
    0x00001876   0x00001876   0x00000002   PAD
    0x00001878   0x00001878   0x00000050   Code   RO         2749    i.GetVoltageSample  bsp_adc.o
    0x000018c8   0x000018c8   0x00000078   Code   RO         2750    i.GetVref1p22Sample  bsp_adc.o
    0x00001940   0x00001940   0x00000044   Code   RO         3844    i.Get_SerialNum     usbd_desc.o
    0x00001984   0x00001984   0x000000cc   Code   RO         2751    i.Get_Vbat          bsp_adc.o
    0x00001a50   0x00001a50   0x00000088   Code   RO         3553    i.Handle_USBAsynchXfer  cdc_core.o
    0x00001ad8   0x00001ad8   0x00000048   Code   RO         2702    i.I2C_Init          bsp_i2c.o
    0x00001b20   0x00001b20   0x00000044   Code   RO         2703    i.I2C_Receive_Byte  bsp_i2c.o
    0x00001b64   0x00001b64   0x00000080   Code   RO         2704    i.I2C_Send_Bit      bsp_i2c.o
    0x00001be4   0x00001be4   0x00000054   Code   RO         2705    i.I2C_Send_Byte     bsp_i2c.o
    0x00001c38   0x00001c38   0x00000036   Code   RO         3845    i.IntToUnicode      usbd_desc.o
    0x00001c6e   0x00001c6e   0x00000002   PAD
    0x00001c70   0x00001c70   0x00000064   Code   RO         2245    i.LCD_BufToPanel    bsp_lcd.o
    0x00001cd4   0x00001cd4   0x00000014   Code   RO         2246    i.LCD_EndDraw       bsp_lcd.o
    0x00001ce8   0x00001ce8   0x00000628   Code   RO         2247    i.LCD_Num_Data      bsp_lcd.o
    0x00002310   0x00002310   0x00000030   Code   RO         2248    i.LCD_ShowALL       bsp_lcd.o
    0x00002340   0x00002340   0x00000240   Code   RO         2250    i.LCD_Show_Count    bsp_lcd.o
    0x00002580   0x00002580   0x00000030   Code   RO         2252    i.LCD_Table         bsp_lcd.o
    0x000025b0   0x000025b0   0x00000006   Code   RO         2752    i.LL_ADC_ClearFlag_EOC  bsp_adc.o
    0x000025b6   0x000025b6   0x00000002   PAD
    0x000025b8   0x000025b8   0x000000d8   Code   RO          573    i.LL_ADC_CommonInit  fm33lc0xx_ll_adc.o
    0x00002690   0x00002690   0x0000000a   Code   RO          576    i.LL_ADC_Disable    fm33lc0xx_ll_adc.o
    0x0000269a   0x0000269a   0x0000000a   Code   RO         2753    i.LL_ADC_Disable    bsp_adc.o
    0x000026a4   0x000026a4   0x0000000c   Code   RO         2754    i.LL_ADC_DisableSequencerChannel  bsp_adc.o
    0x000026b0   0x000026b0   0x0000000a   Code   RO          577    i.LL_ADC_Enable     fm33lc0xx_ll_adc.o
    0x000026ba   0x000026ba   0x0000000a   Code   RO         2755    i.LL_ADC_Enable     bsp_adc.o
    0x000026c4   0x000026c4   0x0000000c   Code   RO         2756    i.LL_ADC_EnalbleSequencerChannel  bsp_adc.o
    0x000026d0   0x000026d0   0x00000324   Code   RO          578    i.LL_ADC_Init       fm33lc0xx_ll_adc.o
    0x000029f4   0x000029f4   0x00000010   Code   RO         2757    i.LL_ADC_IsActiveFlag_EOC  bsp_adc.o
    0x00002a04   0x00002a04   0x0000000a   Code   RO         2758    i.LL_ADC_StartConversion  bsp_adc.o
    0x00002a0e   0x00002a0e   0x00000002   PAD
    0x00002a10   0x00002a10   0x00000124   Code   RO          833    i.LL_BSTIM_Init     fm33lc0xx_ll_bstim.o
    0x00002b34   0x00002b34   0x00000006   Code   RO         2587    i.LL_EXTI_ClearFlag  bsp_gpio.o
    0x00002b3a   0x00002b3a   0x0000000a   Code   RO         2588    i.LL_EXTI_EnableDigitalFilter  bsp_gpio.o
    0x00002b44   0x00002b44   0x00000016   Code   RO         2589    i.LL_EXTI_IsActiveFlag  bsp_gpio.o
    0x00002b5a   0x00002b5a   0x0000001a   Code   RO         2590    i.LL_EXTI_SetTrigEdge  bsp_gpio.o
    0x00002b74   0x00002b74   0x0000008c   Code   RO         1127    i.LL_GPIO_ALLPIN_LPM_MODE  fm33lc0xx_ll_gpio.o
    0x00002c00   0x00002c00   0x0000019c   Code   RO         1129    i.LL_GPIO_Init      fm33lc0xx_ll_gpio.o
    0x00002d9c   0x00002d9c   0x0000000a   Code   RO         2591    i.LL_GPIO_ResetOutputPin  bsp_gpio.o
    0x00002da6   0x00002da6   0x0000000a   Code   RO         1130    i.LL_GPIO_SetOutputPin  fm33lc0xx_ll_gpio.o
    0x00002db0   0x00002db0   0x00000018   Code   RO         1131    i.LL_GPIO_StructInit  fm33lc0xx_ll_gpio.o
    0x00002dc8   0x00002dc8   0x00000174   Code   RO         1356    i.LL_I2C_MasterMode_Init  fm33lc0xx_ll_i2c.o
    0x00002f3c   0x00002f3c   0x0000000c   Code   RO         2706    i.LL_I2C_MasterMode_IsActiveFlag_Start  bsp_i2c.o
    0x00002f48   0x00002f48   0x0000000c   Code   RO          410    i.LL_I2C_MasterMode_SetMasterRespond  mcp3425.o
    0x00002f54   0x00002f54   0x00000104   Code   RO         1451    i.LL_LCD_DisplayFreq  fm33lc0xx_ll_lcd.o
    0x00003058   0x00003058   0x00000014   Code   RO         2253    i.LL_LCD_EnableComPin  bsp_lcd.o
    0x0000306c   0x0000306c   0x00000008   Code   RO         2254    i.LL_LCD_EnableSegPin  bsp_lcd.o
    0x00003074   0x00003074   0x000000ec   Code   RO         1452    i.LL_LCD_FlickTime  fm33lc0xx_ll_lcd.o
    0x00003160   0x00003160   0x0000000a   Code   RO         1453    i.LL_LCD_GetCOMxNum  fm33lc0xx_ll_lcd.o
    0x0000316a   0x0000316a   0x00000002   PAD
    0x0000316c   0x0000316c   0x00000264   Code   RO         1454    i.LL_LCD_Init       fm33lc0xx_ll_lcd.o
    0x000033d0   0x000033d0   0x00000010   Code   RO         2255    i.LL_LCD_SetDisplayData  bsp_lcd.o
    0x000033e0   0x000033e0   0x00000010   Code   RO          580    i.LL_RCC_DisableResetAPB2Peripheral  fm33lc0xx_ll_adc.o
    0x000033f0   0x000033f0   0x00000010   Code   RO          581    i.LL_RCC_EnableResetAPB2Peripheral  fm33lc0xx_ll_adc.o
    0x00003400   0x00003400   0x00000058   Code   RO         1722    i.LL_RCC_GetAHBClockFreq  fm33lc0xx_ll_rcc.o
    0x00003458   0x00003458   0x00000058   Code   RO         1723    i.LL_RCC_GetAPB1ClockFreq  fm33lc0xx_ll_rcc.o
    0x000034b0   0x000034b0   0x00000058   Code   RO         1724    i.LL_RCC_GetAPB2ClockFreq  fm33lc0xx_ll_rcc.o
    0x00003508   0x00003508   0x0000009c   Code   RO         1725    i.LL_RCC_GetPLLClockFreq  fm33lc0xx_ll_rcc.o
    0x000035a4   0x000035a4   0x00000050   Code   RO         1726    i.LL_RCC_GetRC4MClockFreq  fm33lc0xx_ll_rcc.o
    0x000035f4   0x000035f4   0x00000044   Code   RO         1727    i.LL_RCC_GetRCHFClockFreq  fm33lc0xx_ll_rcc.o
    0x00003638   0x00003638   0x00000050   Code   RO         1728    i.LL_RCC_GetSystemClockFreq  fm33lc0xx_ll_rcc.o
    0x00003688   0x00003688   0x00000024   Code   RO         1729    i.LL_RCC_GetUSBClockFreqToSysclk  fm33lc0xx_ll_rcc.o
    0x000036ac   0x000036ac   0x00000010   Code   RO         2033    i.LL_RCC_Group1_EnableOperationClock  fm33lc0xx_ll_uart.o
    0x000036bc   0x000036bc   0x00000010   Code   RO         1361    i.LL_RCC_Group3_EnableBusClock  fm33lc0xx_ll_i2c.o
    0x000036cc   0x000036cc   0x00000010   Code   RO         2035    i.LL_RCC_Group3_EnableBusClock  fm33lc0xx_ll_uart.o
    0x000036dc   0x000036dc   0x00000018   Code   RO          343    i.LL_RCC_SetRCHFFrequency  user_init.o
    0x000036f4   0x000036f4   0x00000014   Code   RO          344    i.LL_RCC_SetRCHFTrimValue  user_init.o
    0x00003708   0x00003708   0x00000080   Code   RO         1847    i.LL_RTC_ConfigTime  fm33lc0xx_ll_rtc.o
    0x00003788   0x00003788   0x00000040   Code   RO         1850    i.LL_RTC_Init       fm33lc0xx_ll_rtc.o
    0x000037c8   0x000037c8   0x00000006   Code   RO         2344    i.LL_UART_ClearFlag_TXSE  bsp_uart.o
    0x000037ce   0x000037ce   0x0000000a   Code   RO         3627    i.LL_UART_EnableIT_TxBuffEmpty  cdc_vcp.o
    0x000037d8   0x000037d8   0x000002d0   Code   RO         2039    i.LL_UART_Init      fm33lc0xx_ll_uart.o
    0x00003aa8   0x00003aa8   0x0000000e   Code   RO         2345    i.LL_UART_IsActiveFlag_RXBF  bsp_uart.o
    0x00003ab6   0x00003ab6   0x00000010   Code   RO         2178    i.LL_UART_IsActiveFlag_TXSE  bsp_debug.o
    0x00003ac6   0x00003ac6   0x00000010   Code   RO         2346    i.LL_UART_IsActiveFlag_TXSE  bsp_uart.o
    0x00003ad6   0x00003ad6   0x0000000e   Code   RO         2347    i.LL_UART_IsEnbaledIT_ReceiveBuffFull  bsp_uart.o
    0x00003ae4   0x00003ae4   0x00000010   Code   RO         2348    i.LL_UART_IsEnbaledIT_ShiftBuffEmpty  bsp_uart.o
    0x00003af4   0x00003af4   0x0000000c   Code   RO         2179    i.LL_UART_TransmitData  bsp_debug.o
    0x00003b00   0x00003b00   0x0000000c   Code   RO         2349    i.LL_UART_TransmitData  bsp_uart.o
    0x00003b0c   0x00003b0c   0x000001a8   Code   RO         2256    i.LcdInit           bsp_lcd.o
    0x00003cb4   0x00003cb4   0x00000040   Code   RO           13    i.MF_Clock_Init     mf_config.o
    0x00003cf4   0x00003cf4   0x00000002   Code   RO         2592    i.NMI_Handler       bsp_gpio.o
    0x00003cf6   0x00003cf6   0x00000002   PAD
    0x00003cf8   0x00003cf8   0x00000020   Code   RO          456    i.NTC_ADCConv       pt100.o
    0x00003d18   0x00003d18   0x0000008c   Code   RO          457    i.NTC_GetT          pt100.o
    0x00003da4   0x00003da4   0x00000068   Code   RO          458    i.NTC_SearchTable   pt100.o
    0x00003e0c   0x00003e0c   0x00000018   Code   RO         2350    i.NVIC_DisableIRQ   bsp_uart.o
    0x00003e24   0x00003e24   0x00000018   Code   RO         3755    i.NVIC_DisableIRQ   usb_bsp.o
    0x00003e3c   0x00003e3c   0x00000018   Code   RO         2351    i.NVIC_EnableIRQ    bsp_uart.o
    0x00003e54   0x00003e54   0x00000078   Code   RO          495    i.NVIC_SetPriority  usb.o
    0x00003ecc   0x00003ecc   0x00000078   Code   RO         2352    i.NVIC_SetPriority  bsp_uart.o
    0x00003f44   0x00003f44   0x00000078   Code   RO         2593    i.NVIC_SetPriority  bsp_gpio.o
    0x00003fbc   0x00003fbc   0x00000078   Code   RO         2659    i.NVIC_SetPriority  bsp_rtc.o
    0x00004034   0x00004034   0x00000078   Code   RO         3628    i.NVIC_SetPriority  cdc_vcp.o
    0x000040ac   0x000040ac   0x00000078   Code   RO         3756    i.NVIC_SetPriority  usb_bsp.o
    0x00004124   0x00004124   0x000000d0   Code   RO         2148    i.PrintfLogo        bsp.o
    0x000041f4   0x000041f4   0x000000e0   Code   RO         2660    i.RTC_IRQHandler    bsp_rtc.o
    0x000042d4   0x000042d4   0x000000c8   Code   RO         2661    i.RTC_Init          bsp_rtc.o
    0x0000439c   0x0000439c   0x00000006   Code   RO         3717    i.StreamGetDataSize  stream.o
    0x000043a2   0x000043a2   0x00000010   Code   RO         3719    i.StreamInit        stream.o
    0x000043b2   0x000043b2   0x00000040   Code   RO         3720    i.StreamReadData    stream.o
    0x000043f2   0x000043f2   0x0000004a   Code   RO         3721    i.StreamWriteData   stream.o
    0x0000443c   0x0000443c   0x000000b4   Code   RO          543    i.SystemInit        system_fm33lc0xx.o
    0x000044f0   0x000044f0   0x00000028   Code   RO          345    i.SystickInit       user_init.o
    0x00004518   0x00004518   0x00000040   Code   RO         2354    i.UART0_IRQHandler  bsp_uart.o
    0x00004558   0x00004558   0x00000028   Code   RO         3629    i.UART1_DeInit      cdc_vcp.o
    0x00004580   0x00004580   0x0000007c   Code   RO         3630    i.UART1_IRQHandler  cdc_vcp.o
    0x000045fc   0x000045fc   0x000000ac   Code   RO         3631    i.UART1_Init        cdc_vcp.o
    0x000046a8   0x000046a8   0x00000040   Code   RO         2355    i.UART4_IRQHandler  bsp_uart.o
    0x000046e8   0x000046e8   0x00000048   Code   RO         2356    i.UART5_IRQHandler  bsp_uart.o
    0x00004730   0x00004730   0x0000001e   Code   RO         3306    i.USBD_ClrCfg       usbd_core.o
    0x0000474e   0x0000474e   0x0000004c   Code   RO         3459    i.USBD_ClrFeature   usbd_req.o
    0x0000479a   0x0000479a   0x0000001a   Code   RO         3400    i.USBD_CtlContinueRx  usbd_ioreq.o
    0x000047b4   0x000047b4   0x0000001a   Code   RO         3401    i.USBD_CtlContinueSendData  usbd_ioreq.o
    0x000047ce   0x000047ce   0x0000001e   Code   RO         3460    i.USBD_CtlError     usbd_req.o
    0x000047ec   0x000047ec   0x00000034   Code   RO         3402    i.USBD_CtlPrepareRx  usbd_ioreq.o
    0x00004820   0x00004820   0x00000022   Code   RO         3403    i.USBD_CtlReceiveStatus  usbd_ioreq.o
    0x00004842   0x00004842   0x00000028   Code   RO         3404    i.USBD_CtlSendData  usbd_ioreq.o
    0x0000486a   0x0000486a   0x00000022   Code   RO         3405    i.USBD_CtlSendStatus  usbd_ioreq.o
    0x0000488c   0x0000488c   0x000000fa   Code   RO         3307    i.USBD_DataInStage  usbd_core.o
    0x00004986   0x00004986   0x000000b4   Code   RO         3308    i.USBD_DataOutStage  usbd_core.o
    0x00004a3a   0x00004a3a   0x00000006   Code   RO         3309    i.USBD_DeInit       usbd_core.o
    0x00004a40   0x00004a40   0x00000050   Code   RO         3461    i.USBD_GetConfig    usbd_req.o
    0x00004a90   0x00004a90   0x0000015e   Code   RO         3462    i.USBD_GetDescriptor  usbd_req.o
    0x00004bee   0x00004bee   0x00000014   Code   RO         3463    i.USBD_GetLen       usbd_req.o
    0x00004c02   0x00004c02   0x0000001a   Code   RO         3406    i.USBD_GetRxCount   usbd_ioreq.o
    0x00004c1c   0x00004c1c   0x00000050   Code   RO         3464    i.USBD_GetStatus    usbd_req.o
    0x00004c6c   0x00004c6c   0x0000004e   Code   RO         3465    i.USBD_GetString    usbd_req.o
    0x00004cba   0x00004cba   0x00000056   Code   RO         3310    i.USBD_Init         usbd_core.o
    0x00004d10   0x00004d10   0x0000001a   Code   RO         3311    i.USBD_IsoINIncomplete  usbd_core.o
    0x00004d2a   0x00004d2a   0x0000001a   Code   RO         3312    i.USBD_IsoOUTIncomplete  usbd_core.o
    0x00004d44   0x00004d44   0x000000f6   Code   RO         3238    i.USBD_OTG_ISR_Handler  usb_dcd_int.o
    0x00004e3a   0x00004e3a   0x00000002   PAD
    0x00004e3c   0x00004e3c   0x00000078   Code   RO         3466    i.USBD_ParseSetupRequest  usbd_req.o
    0x00004eb4   0x00004eb4   0x00000038   Code   RO         3313    i.USBD_Reset        usbd_core.o
    0x00004eec   0x00004eec   0x00000024   Code   RO         3314    i.USBD_Resume       usbd_core.o
    0x00004f10   0x00004f10   0x00000014   Code   RO         3315    i.USBD_RunTestMode  usbd_core.o
    0x00004f24   0x00004f24   0x0000002a   Code   RO         3316    i.USBD_SOF          usbd_core.o
    0x00004f4e   0x00004f4e   0x0000005a   Code   RO         3467    i.USBD_SetAddress   usbd_req.o
    0x00004fa8   0x00004fa8   0x0000002e   Code   RO         3317    i.USBD_SetCfg       usbd_core.o
    0x00004fd6   0x00004fd6   0x00000002   PAD
    0x00004fd8   0x00004fd8   0x000000d0   Code   RO         3468    i.USBD_SetConfig    usbd_req.o
    0x000050a8   0x000050a8   0x000000b8   Code   RO         3469    i.USBD_SetFeature   usbd_req.o
    0x00005160   0x00005160   0x00000058   Code   RO         3318    i.USBD_SetupStage   usbd_core.o
    0x000051b8   0x000051b8   0x00000072   Code   RO         3470    i.USBD_StdDevReq    usbd_req.o
    0x0000522a   0x0000522a   0x00000002   PAD
    0x0000522c   0x0000522c   0x0000019c   Code   RO         3471    i.USBD_StdEPReq     usbd_req.o
    0x000053c8   0x000053c8   0x00000056   Code   RO         3472    i.USBD_StdItfReq    usbd_req.o
    0x0000541e   0x0000541e   0x00000026   Code   RO         3319    i.USBD_Suspend      usbd_core.o
    0x00005444   0x00005444   0x00000024   Code   RO         3846    i.USBD_USR_ConfigStrDescriptor  usbd_desc.o
    0x00005468   0x00005468   0x00000002   Code   RO         3918    i.USBD_USR_DeviceConfigured  usbd_usr.o
    0x0000546a   0x0000546a   0x00000002   Code   RO         3919    i.USBD_USR_DeviceConnected  usbd_usr.o
    0x0000546c   0x0000546c   0x00000010   Code   RO         3847    i.USBD_USR_DeviceDescriptor  usbd_desc.o
    0x0000547c   0x0000547c   0x00000002   Code   RO         3920    i.USBD_USR_DeviceDisconnected  usbd_usr.o
    0x0000547e   0x0000547e   0x00000002   Code   RO         3921    i.USBD_USR_DeviceReset  usbd_usr.o
    0x00005480   0x00005480   0x00000002   Code   RO         3922    i.USBD_USR_DeviceResumed  usbd_usr.o
    0x00005482   0x00005482   0x00000002   Code   RO         3923    i.USBD_USR_DeviceSuspended  usbd_usr.o
    0x00005484   0x00005484   0x00000002   Code   RO         3924    i.USBD_USR_Init     usbd_usr.o
    0x00005486   0x00005486   0x00000002   PAD
    0x00005488   0x00005488   0x00000028   Code   RO         3848    i.USBD_USR_InterfaceStrDescriptor  usbd_desc.o
    0x000054b0   0x000054b0   0x00000010   Code   RO         3849    i.USBD_USR_LangIDStrDescriptor  usbd_desc.o
    0x000054c0   0x000054c0   0x00000020   Code   RO         3850    i.USBD_USR_ManufacturerStrDescriptor  usbd_desc.o
    0x000054e0   0x000054e0   0x00000038   Code   RO         3851    i.USBD_USR_ProductStrDescriptor  usbd_desc.o
    0x00005518   0x00005518   0x00000018   Code   RO         3852    i.USBD_USR_SerialStrDescriptor  usbd_desc.o
    0x00005530   0x00005530   0x00000010   Code   RO         3554    i.USBD_cdc_GetCfgDesc  cdc_core.o
    0x00005540   0x00005540   0x00000154   Code   RO          496    i.USBInit           usb.o
    0x00005694   0x00005694   0x00000074   Code   RO         3758    i.USB_Clock_Init    usb_bsp.o
    0x00005708   0x00005708   0x00000010   Code   RO          497    i.USB_IRQHandler    usb.o
    0x00005718   0x00005718   0x0000005c   Code   RO         3761    i.USB_OTG_BSP_EnableInterrupt  usb_bsp.o
    0x00005774   0x00005774   0x0000001c   Code   RO         3762    i.USB_OTG_BSP_Init  usb_bsp.o
    0x00005790   0x00005790   0x00000012   Code   RO         3763    i.USB_OTG_BSP_mDelay  usb_bsp.o
    0x000057a2   0x000057a2   0x0000000c   Code   RO         3764    i.USB_OTG_BSP_uDelay  usb_bsp.o
    0x000057ae   0x000057ae   0x00000016   Code   RO         2913    i.USB_OTG_CoreInit  usb_core.o
    0x000057c4   0x000057c4   0x00000176   Code   RO         2914    i.USB_OTG_CoreInitDev  usb_core.o
    0x0000593a   0x0000593a   0x00000002   PAD
    0x0000593c   0x0000593c   0x00000070   Code   RO         2915    i.USB_OTG_CoreReset  usb_core.o
    0x000059ac   0x000059ac   0x00000020   Code   RO         2916    i.USB_OTG_DisableGlobalInt  usb_core.o
    0x000059cc   0x000059cc   0x00000076   Code   RO         2917    i.USB_OTG_EP0Activate  usb_core.o
    0x00005a42   0x00005a42   0x0000014a   Code   RO         2918    i.USB_OTG_EP0StartXfer  usb_core.o
    0x00005b8c   0x00005b8c   0x00000030   Code   RO         2919    i.USB_OTG_EP0_OutStart  usb_core.o
    0x00005bbc   0x00005bbc   0x000000c0   Code   RO         2920    i.USB_OTG_EPActivate  usb_core.o
    0x00005c7c   0x00005c7c   0x00000052   Code   RO         2921    i.USB_OTG_EPClearStall  usb_core.o
    0x00005cce   0x00005cce   0x0000009a   Code   RO         2922    i.USB_OTG_EPDeactivate  usb_core.o
    0x00005d68   0x00005d68   0x00000066   Code   RO         2923    i.USB_OTG_EPSetStall  usb_core.o
    0x00005dce   0x00005dce   0x00000002   PAD
    0x00005dd0   0x00005dd0   0x00000220   Code   RO         2924    i.USB_OTG_EPStartXfer  usb_core.o
    0x00005ff0   0x00005ff0   0x00000030   Code   RO         2925    i.USB_OTG_EnableCommonInt  usb_core.o
    0x00006020   0x00006020   0x00000094   Code   RO         2926    i.USB_OTG_EnableDevInt  usb_core.o
    0x000060b4   0x000060b4   0x00000022   Code   RO         2927    i.USB_OTG_EnableGlobalInt  usb_core.o
    0x000060d6   0x000060d6   0x00000002   PAD
    0x000060d8   0x000060d8   0x0000004c   Code   RO         2928    i.USB_OTG_FlushRxFifo  usb_core.o
    0x00006124   0x00006124   0x00000060   Code   RO         2929    i.USB_OTG_FlushTxFifo  usb_core.o
    0x00006184   0x00006184   0x0000000c   Code   RO         2932    i.USB_OTG_GetMode   usb_core.o
    0x00006190   0x00006190   0x0000001e   Code   RO         2933    i.USB_OTG_InitDevSpeed  usb_core.o
    0x000061ae   0x000061ae   0x00000016   Code   RO         2934    i.USB_OTG_IsDeviceMode  usb_core.o
    0x000061c4   0x000061c4   0x00000010   Code   RO         2936    i.USB_OTG_ReadCoreItr  usb_core.o
    0x000061d4   0x000061d4   0x00000010   Code   RO         2937    i.USB_OTG_ReadDevAllInEPItr  usb_core.o
    0x000061e4   0x000061e4   0x00000010   Code   RO         2938    i.USB_OTG_ReadDevAllOutEp_itr  usb_core.o
    0x000061f4   0x000061f4   0x00000016   Code   RO         2939    i.USB_OTG_ReadDevOutEP_itr  usb_core.o
    0x0000620a   0x0000620a   0x00000038   Code   RO         2940    i.USB_OTG_ReadPacket  usb_core.o
    0x00006242   0x00006242   0x00000090   Code   RO         2941    i.USB_OTG_SelectCore  usb_core.o
    0x000062d2   0x000062d2   0x00000012   Code   RO         2942    i.USB_OTG_SetCurrentMode  usb_core.o
    0x000062e4   0x000062e4   0x00000052   Code   RO         2946    i.USB_OTG_WritePacket  usb_core.o
    0x00006336   0x00006336   0x00000018   Code   RO         3765    i.USB_Soft_Connect  usb_bsp.o
    0x0000634e   0x0000634e   0x0000001a   Code   RO         3766    i.USB_Soft_Disconnect  usb_bsp.o
    0x00006368   0x00006368   0x00000108   Code   RO         3632    i.VCP_COMConfig     cdc_vcp.o
    0x00006470   0x00006470   0x000000c8   Code   RO         3633    i.VCP_Ctrl          cdc_vcp.o
    0x00006538   0x00006538   0x00000014   Code   RO         3634    i.VCP_DataRx        cdc_vcp.o
    0x0000654c   0x0000654c   0x00000006   Code   RO         3635    i.VCP_DataTx        cdc_vcp.o
    0x00006552   0x00006552   0x0000000a   Code   RO         3636    i.VCP_DeInit        cdc_vcp.o
    0x0000655c   0x0000655c   0x00000034   Code   RO         3637    i.VCP_Init          cdc_vcp.o
    0x00006590   0x00006590   0x00000014   Code   RO         3998    i.__0vprintf        mc_p.l(printfa.o)
    0x000065a4   0x000065a4   0x0000002e   Code   RO         4079    i.__ARM_clz         mf_p.l(depilogue.o)
    0x000065d2   0x000065d2   0x00000030   Code   RO          391    i.__ARM_common_ll_muluu  user_init.o
    0x00006602   0x00006602   0x0000001c   Code   RO         1639    i.__ARM_common_switch8  fm33lc0xx_ll_lpuart.o
    0x0000661e   0x0000661e   0x0000000e   Code   RO         4089    i.__scatterload_copy  mc_p.l(handlers.o)
    0x0000662c   0x0000662c   0x00000002   Code   RO         4090    i.__scatterload_null  mc_p.l(handlers.o)
    0x0000662e   0x0000662e   0x0000000e   Code   RO         4091    i.__scatterload_zeroinit  mc_p.l(handlers.o)
    0x0000663c   0x0000663c   0x00000174   Code   RO         4001    i._fp_digits        mc_p.l(printfa.o)
    0x000067b0   0x000067b0   0x000006ec   Code   RO         4002    i._printf_core      mc_p.l(printfa.o)
    0x00006e9c   0x00006e9c   0x00000020   Code   RO         4003    i._printf_post_padding  mc_p.l(printfa.o)
    0x00006ebc   0x00006ebc   0x0000002c   Code   RO         4004    i._printf_pre_padding  mc_p.l(printfa.o)
    0x00006ee8   0x00006ee8   0x00000014   Code   RO         2180    i.bsp_DebugInit     bsp_debug.o
    0x00006efc   0x00006efc   0x00000070   Code   RO         2594    i.bsp_GPIO          bsp_gpio.o
    0x00006f6c   0x00006f6c   0x0000002c   Code   RO         2149    i.bsp_Init          bsp.o
    0x00006f98   0x00006f98   0x00000140   Code   RO         2357    i.bsp_Uartx_Init    bsp_uart.o
    0x000070d8   0x000070d8   0x00000084   Code   RO         2759    i.bsp_adcInit       bsp_adc.o
    0x0000715c   0x0000715c   0x00000024   Code   RO         2181    i.fputc             bsp_debug.o
    0x00007180   0x00007180   0x00000070   Code   RO          411    i.get_ad            mcp3425.o
    0x000071f0   0x000071f0   0x00000030   Code   RO          412    i.get_vout          mcp3425.o
    0x00007220   0x00007220   0x000001a0   Code   RO          106    i.main              main.o
    0x000073c0   0x000073c0   0x00000050   Code   RO          413    i.mcp3425_init      mcp3425.o
    0x00007410   0x00007410   0x000001e8   Code   RO         2760    i.show_bat          bsp_adc.o
    0x000075f8   0x000075f8   0x000000a0   Code   RO         3555    i.usbd_cdc_DataIn   cdc_core.o
    0x00007698   0x00007698   0x00000044   Code   RO         3556    i.usbd_cdc_DataOut  cdc_core.o
    0x000076dc   0x000076dc   0x00000024   Code   RO         3557    i.usbd_cdc_DeInit   cdc_core.o
    0x00007700   0x00007700   0x00000038   Code   RO         3558    i.usbd_cdc_EP0_RxReady  cdc_core.o
    0x00007738   0x00007738   0x0000005c   Code   RO         3559    i.usbd_cdc_Init     cdc_core.o
    0x00007794   0x00007794   0x00000028   Code   RO         3560    i.usbd_cdc_SOF      cdc_core.o
    0x000077bc   0x000077bc   0x000000d0   Code   RO         3561    i.usbd_cdc_Setup    cdc_core.o
    0x0000788c   0x0000788c   0x00000042   Data   RO         2150    .conststring        bsp.o
    0x000078ce   0x000078ce   0x00000002   PAD
    0x000078d0   0x000078d0   0x00000020   Data   RO         4087    Region$$Table       anon$$obj.o


    Execution Region RW_IRAM1 (Exec base: 0x20000000, Load base: 0x000078f0, Size: 0x00003990, Max: 0x00006000, ABSOLUTE, COMPRESSED[0x00002128])

    Exec Addr    Load Addr    Size         Type   Attr      Idx    E Section Name        Object

    0x20000000   COMPRESSED   0x00000010   Data   RW          108    .data               main.o
    0x20000010   COMPRESSED   0x00000004   Data   RW          346    .data               user_init.o
    0x20000014   COMPRESSED   0x00000003   Data   RW          414    .data               mcp3425.o
    0x20000017   COMPRESSED   0x00000001   PAD
    0x20000018   COMPRESSED   0x00001fb8   Data   RW          459    .data               pt100.o
    0x20001fd0   COMPRESSED   0x00000008   Data   RW         2258    .data               bsp_lcd.o
    0x20001fd8   COMPRESSED   0x00000004   Data   RW         2662    .data               bsp_rtc.o
    0x20001fdc   COMPRESSED   0x00000004   PAD
    0x20001fe0   COMPRESSED   0x00000010   Data   RW         2761    .data               bsp_adc.o
    0x20001ff0   COMPRESSED   0x00000034   Data   RW         3320    .data               usbd_core.o
    0x20002024   COMPRESSED   0x0000000d   Data   RW         3473    .data               usbd_req.o
    0x20002031   COMPRESSED   0x00000003   PAD
    0x20002034   COMPRESSED   0x00000084   Data   RW         3563    .data               cdc_core.o
    0x200020b8   COMPRESSED   0x0000001c   Data   RW         3639    .data               cdc_vcp.o
    0x200020d4   COMPRESSED   0x00000074   Data   RW         3854    .data               usbd_desc.o
    0x20002148   COMPRESSED   0x0000001c   Data   RW         3925    .data               usbd_usr.o
    0x20002164   COMPRESSED   0x00000004   Data   RW         4067    .data               mc_p.l(stdout.o)
    0x20002168        -       0x00000050   Zero   RW          107    .bss                main.o
    0x200021b8        -       0x00000050   Zero   RW         2257    .bss                bsp_lcd.o
    0x20002208        -       0x000000bc   Zero   RW         3562    .bss                cdc_core.o
    0x200022c4        -       0x00000818   Zero   RW         3638    .bss                cdc_vcp.o
    0x20002adc        -       0x000005b0   Zero   RW         3767    .bss                usb_bsp.o
    0x2000308c        -       0x000000ff   Zero   RW         3853    .bss                usbd_desc.o
    0x2000318b   COMPRESSED   0x00000005   PAD
    0x20003190        -       0x00000800   Zero   RW            1    STACK               startup_fm33lc0xx.o


==============================================================================

Image component sizes


      Code (inc. data)   RO Data    RW Data    ZI Data      Debug   Object Name

       252        168         66          0          0        819   bsp.o
      1100         82          0         16          0      32791   bsp_adc.o
       112         12          0          0          0      10723   bsp_debug.o
       656         30          0          0          0      35489   bsp_gpio.o
       364         28          0          0          0      13509   bsp_i2c.o
      2866        104          0          8         80      16456   bsp_lcd.o
       544         42          0          4          0      21291   bsp_rtc.o
       766         48          0          0          0      20892   bsp_uart.o
       812        120          0        132        188       7559   cdc_core.o
      1018         84          0         28       2072      14113   cdc_vcp.o
      1072         30          0          0          0      42982   fm33lc0xx_ll_adc.o
         0          0          0          0          0      18716   fm33lc0xx_ll_aes.o
       292         14          0          0          0      23628   fm33lc0xx_ll_bstim.o
       586         30          0          0          0      34834   fm33lc0xx_ll_gpio.o
       388         26          0          0          0      31805   fm33lc0xx_ll_i2c.o
      1118         38          0          0          0      15026   fm33lc0xx_ll_lcd.o
        28          0          0          0          0         76   fm33lc0xx_ll_lpuart.o
       684        104          0          0          0      24247   fm33lc0xx_ll_rcc.o
       192         16          0          0          0       9146   fm33lc0xx_ll_rtc.o
       752         28          0          0          0      30235   fm33lc0xx_ll_uart.o
       416         56          0         16         80      23713   main.o
       252         34          0          3          0      12302   mcp3425.o
        64         10          0          0          0     137116   mf_config.o
       276         46          0       8120          0       2444   pt100.o
        28          8        192          0       2048        716   startup_fm33lc0xx.o
       160          0          0          0          0       2600   stream.o
       180         16          0          0          0        573   system_fm33lc0xx.o
       476         66          0          0          0      36591   usb.o
       460         40          0          0       1456      11781   usb_bsp.o
      2946         30          0          0          0      17971   usb_core.o
       690          0          0          0          0       5460   usb_dcd.o
      2306        106          0          0          0       8655   usb_dcd_int.o
       930          6          0         52          0       9184   usbd_core.o
       342        110          0        116        255       6290   usbd_desc.o
       238          0          0          0          0       4506   usbd_ioreq.o
      1928         72          0         13          0       9310   usbd_req.o
        14          0          0         28          0       3129   usbd_usr.o
       576         56          0          4          0      22168   user_init.o

    ----------------------------------------------------------------------
     25912       1660        292       8548       6184     718846   Object Totals
         0          0         32          0          0          0   (incl. Generated)
        28          0          2          8          5          0   (incl. Padding)

    ----------------------------------------------------------------------

      Code (inc. data)   RO Data    RW Data    ZI Data      Debug   Library Member Name

        96          0          0          0          0          0   __dclz77c.o
         0          0          0          0          0          0   entry.o
         0          0          0          0          0          0   entry10a.o
         0          0          0          0          0          0   entry11a.o
         8          4          0          0          0          0   entry2.o
         4          0          0          0          0          0   entry5.o
         0          0          0          0          0          0   entry7b.o
         0          0          0          0          0          0   entry8b.o
         8          4          0          0          0          0   entry9a.o
        30          0          0          0          0          0   handlers.o
        40          0          0          0          0         72   idiv.o
        36          8          0          0          0         68   init.o
         0          0          0          0          0          0   iusefp.o
       122          0          0          0          0         84   llmul.o
        32          0          0          0          0         68   llshl.o
        38          0          0          0          0         68   llsshr.o
        34          0          0          0          0         68   llushr.o
        36          0          0          0          0        100   memseta.o
      2240         98          0          0          0        396   printfa.o
         0          0          0          4          0          0   stdout.o
        44          0          0          0          0         72   uidiv.o
        96          0          0          0          0         84   uldiv.o
        20          0          0          0          0         60   uread4.o
        18          0          0          0          0         60   uwrite4.o
        40          2          0          0          0         68   cdrcmple.o
        20          0          0          0          0         68   cfcmple.o
        20          0          0          0          0         68   cfrcmple.o
        56          0          0          0          0         68   d2f.o
       356          4          0          0          0        140   dadd.o
       240          6          0          0          0         84   ddiv.o
       236          0          0          0          0        216   depilogue.o
        60         10          0          0          0         68   dfixui.o
        64         10          0          0          0         68   dfixul.o
        28          4          0          0          0         68   dfltui.o
       208          6          0          0          0         88   dmul.o
        40          0          0          0          0         60   f2d.o
       124          0          0          0          0         72   fdiv.o
       130          0          0          0          0        144   fepilogue.o
        50          0          0          0          0         60   ffixi.o
        40          0          0          0          0         60   ffixui.o
        14          0          0          0          0         68   ffltui.o
       122          0          0          0          0         72   fmul.o

    ----------------------------------------------------------------------
      4756        156          0          4          0       2740   Library Totals
         6          0          0          0          0          0   (incl. Padding)

    ----------------------------------------------------------------------

      Code (inc. data)   RO Data    RW Data    ZI Data      Debug   Library Name

      2902        114          0          4          0       1200   mc_p.l
      1848         42          0          0          0       1540   mf_p.l

    ----------------------------------------------------------------------
      4756        156          0          4          0       2740   Library Totals

    ----------------------------------------------------------------------

==============================================================================


      Code (inc. data)   RO Data    RW Data    ZI Data      Debug   

     30668       1816        292       8552       6184     709774   Grand Totals
     30668       1816        292       8488       6184     709774   ELF Image Totals (compressed)
     30668       1816        292       8488          0          0   ROM Totals

==============================================================================

    Total RO  Size (Code + RO Data)                30960 (  30.23kB)
    Total RW  Size (RW Data + ZI Data)             14736 (  14.39kB)
    Total ROM Size (Code + RO Data + RW Data)      39448 (  38.52kB)

==============================================================================

