:020000040000FA
:1000000090390020D5000000F53C0000DF00000022
:1000100000000000000000000000000000000000E0
:10002000000000000000000000000000E1000000EF
:100030000000000000000000E3000000E5000000F8
:10004000E7000000E7000000F5410000E7000000C5
:10005000E7000000E7000000E7000000E700000004
:10006000E7000000E700000019450000814500009E
:10007000A9460000E9460000E7000000E700000094
:10008000E7000000E700000009570000E70000005B
:10009000E7000000E7000000E7000000E7000000C4
:1000A000E7000000E7000000E7000000E7000000B4
:1000B000E7000000E7000000FD160000E700000078
:1000C0000348854600F08CFC004800472172000080
:1000D000903900200448804704480047FEE7FEE7C7
:1000E000FEE7FEE7FEE7FEE73D440000C10000003A
:1000F00030B50B46014600202022012409E00D46C0
:10010000D5409D4205D31D469540491B2546954047
:1001100040191546521E002DF1DC30BD70B500248B
:100120002546002801DA01244042002901DA012590
:100130004942FFF7DDFFAC4200D04042002C00D026
:10014000494270BDF0B51FB40646002082B0054696
:100150004024019100901BE0019922460F46304651
:1001600000F046FB049A059B801A994110D3104673
:100170001946224600F02CFB361A8F410197224681
:1001800001200021009F00F023FB38184D41009012
:100190002046641E0028DFDC019B00982946324679
:1001A00007B0F0BDF0B51FB486B0002000900190FC
:1001B00002900698069980B204900798090C0204F0
:1001C0000014114307900027089D099806913E46A8
:1001D0003C4603900398A9B20204000C03900498D3
:1001E0002D0C154348430021224600F0F1FAC719AF
:1001F000714110340E46402CECDB3846029A00F078
:10020000E7FA009A019B80180090594102980191E9
:10021000103002904028CCDB00980BB0F0BDD2B279
:1002200001E00270401C491EFBD270470022F6E735
:1002300010B513460A4604461946FFF7F0FF20465C
:1002400010BD0321001D401E037812021A43491EEF
:10025000F9D510467047034603220870000A491C6E
:10026000521EFAD518467047024670B54A40D30F61
:10027000DB0740002DD04A002AD0010E140E0002E8
:1002800012020919400A520A8418E501044654432F
:10029000000A120A2E045043A4194219200CC54327
:1002A000AA18120C0125AD03521C521912047F39F1
:1002B000240400D0521C104301D44000491EC2B295
:1002C0000C06C0092018401C4008802A02D003E018
:1002D000002070BD40084000002900DA00201843CB
:1002E00070BD70B502464A40D50F40004A00ED0788
:1002F00040085208002814D0002A12D0C40DD30D93
:1003000041020120C0055202490A520AE41A0918A2
:1003100012187D34914201D3641C00E04900002C86
:1003200001DA002070BD0023914201D3891A0343F2
:10033000400849000028F7D100290AD0914202D193
:100340000121C90705E0914201D2012101E001210B
:10035000C943E005C018401900F06EFA70BD0000F6
:10036000F0B507460846584087B0C00F04904800D3
:100370000E46590040084908BC1A884105D2384643
:1003800031461E4617460B460246580040081043A9
:100390004CD0300D039040055900400D490D05909B
:1003A000401A0290402872DA18030121000B090557
:1003B0000843019004980092002805D00199524208
:1003C0000020884100920190029840210A1A019968
:1003D000009800F0FDF905460C466B4607CB00F08F
:1003E00018FAC0197141039A0E0D0023D717564011
:1003F0001A467A40164344D0049A002A2DD0029A15
:10040000012A039A15DC1205C01A9141012636050E
:10041000001C7141D20F059ED207009301920296F3
:100420002A46234600F056FA07B0F0BD384631465A
:10043000FAE71605224A0F46B218C01AB741012141
:100440000905001C4F4100187F41114618187941D9
:10045000E20F10436D19644113E0E2076D08154384
:100460006408C2071443039A01261205C01A914179
:100470003605001C7141CE07400830434908C018BA
:1004800051412A46234600F018FACDE7FFE70498C9
:1004900001224000C117121A00238B4104983146F3
:1004A000C417381AA141EEE730B40124E4076340D1
:1004B00030BC55E730B40124E407614030BC4FE75D
:1004C0000000E0FFF0B51FB488B00B990998002434
:1004D00048400999C00F490049080991C0070B9984
:1004E0000090490049080B9109990898A6460843CD
:1004F0001CD00B990A98084318D009980124400091
:10050000420D4800410D099824050003000B2043CB
:1005100009900B980003000B20430B9050181C49C6
:100520004018002201901446104605E000200146C4
:100530000DB0F0BD032801DA034600E003239C461A
:10054000C11A0AAE0AE05F0008ADED5B4F00F75B31
:100550007D430027AA187C41491C5B1E6145F2DDE2
:10056000410004AB5A522104120C0A43240C401CD3
:100570000828DFDB019802900099704601910090F5
:10058000059B049A0799069800F0A4F9D0E70000AB
:100590000DFCFFFFF0B50C465C4085B0E40FE407AE
:1005A00003944C000026640859009446490802460A
:1005B0000296224321D062460A431ED06200570DA4
:1005C0004A000E032303550D012402462C4924053D
:1005D000781B1B0B360B40182343264361460090C3
:1005E0001C46501AB44103D30098401C009002E00E
:1005F000921800985B41002803DA0020014605B0FC
:10060000F0BD0020012109050746864611E0644639
:100610001D46141BB54106D36546521BB3417446B3
:1006200007430C43A646CD074008490828439218C3
:100630005B4105460D43EAD11046184313D060468E
:10064000194650407140084306D06046101AB34125
:1006500006D20122002306E000220123DB0702E08C
:100660000122D2435310009874460105381C6141A1
:10067000029C039D0019694100F01FF9BFE70000CB
:10068000FD03000010B500229623114600F0DCF8AF
:1006900010BD00000EB505490291002100910A46E7
:1006A0000B46019100F016F903B000BD33040000C1
:1006B000C20F410040020123400ADB05D207090EA8
:1006C000C0187F2901DA00207047962903DC9623A1
:1006D000591AC84001E096398840002AF4D04042B7
:1006E0007047410040020122400AD205090E8018DD
:1006F0007F2901DA00207047962903DC9622511ADF
:10070000C840704796398840704700004A00090386
:100710000123090B1B051943094B10B5520D9A42D1
:1007200001DA002010BD064B34339A4203DC9A1ADA
:1007300000F05EF810BD03495118884010BD00005C
:10074000FF030000CDFBFFFFC20FD20740004008AF
:100750000BD0C10D0723DB01C91840020905400A6F
:100760001143C208400711437047002001467047FB
:10077000CB0FDB07490010B5490802460A4307D0F2
:100780000A0D07240903E401090B121B002A01DCEE
:10079000002010BDC900440F0C43C100E018D20571
:1007A000801800F049F810BD0122D207002800DBB4
:1007B000101A002900DB511A814270470122D2072A
:1007C000002800DB101A002900DB511A884270470C
:1007D00010B5202A04DB0146203A9140002010BDCC
:1007E000914020239C1A0346E3401943904010BDDA
:1007F00010B5202A04DB0846203AD040002110BD65
:100800000B46D340D0402024A21A914008431946F9
:1008100010BD10B5202A06DBCB170846203A104140
:10082000C1170B4306E00B461341D0402024A21A07
:1008300091400843194610BD002904DA401C4900C4
:1008400001D140084000704770B40024050C05D168
:100850001024000402D1002921D01124050E01D159
:1008600000020834050F01D10001241D850F01D1BC
:100870008000A41C002801DB4000641C002908D073
:1008800020252E1B0D46F540A14000D00121294313
:10089000084301061B1B000ADB1D02D5002070BCAB
:1008A0007047DB05181880180029F8DA401C490049
:1008B000F5D170BC40084000704710B5002B08DA35
:1008C0000024401C614192185B411A4301D1400849
:1008D000400010BDF0B51FB482B005460C0003D037
:1008E000084605F05FFE02E005F05CFE203002469F
:1008F000009021462846FFF76BFF049B059A0446AB
:100900000F4618431143084314D0184610431BD018
:10091000009840210A1A18460599FFF769FF054615
:100920000E46009A05990498FFF752FF084305D038
:10093000012004E02046394607B0F0BD0020C11771
:1009400005430E432C43374300990E986305401A24
:100950007905E40A00220C43FD0A0A3002D5002082
:100960000146E9E70105101969410C9C0D9D00192C
:100970006941FFF7A2FFDFE74A0009030123090BE2
:100980001B0519430A4B10B5520D9A4202DA00209A
:10099000014610BD064B34339A4203DC9A1AFFF726
:1009A00027FF10BD034BD218FFF712FF10BD000048
:1009B000FF030000CDFBFFFF10B5002904DB01247D
:1009C000E40740428C412146002B04DB1C460123F6
:1009D000DB075242A341994200D1904210BD000072
:1009E000064C0125064E05E0E36807CC2B430C3C82
:1009F00098471034B442F7D3FFF766FBD078000075
:100A0000F078000070B58D180478401CA207920F92
:100A100001D10278401C231106D10378401C03E069
:100A200006780E70401C491C521EF9D1002B15D0BF
:100A300002780C268A1A3440401C0C2C03D0A401E6
:100A4000121B9B1C08E004782402121B401CF8E7D0
:100A500014780C70491C521C5B1EF9D5A942D3D3E3
:100A6000002070BD10B50020002806D00121090427
:100A7000401A1BD0401A51D134E049484949086016
:100A8000002002F02BFE48480068000C4649098807
:100A9000C94389B2884202D14348006800E030204F
:100AA0004406640E204602F025FE50E03F483D49D2
:100AB0000860002002F012FE3B484038C06B000C7A
:100AC00039494039898FC94389B2884203D13648B0
:100AD0004038C06B00E02A204406640E204602F035
:100AE00009FE34E032482F490860002002F0F6FD8C
:100AF0002D484038806B000C2B494039098FC94381
:100B000089B2884203D128484038806B00E0272012
:100B10004406640E204602F0EDFD18E0204821490D
:100B20000860002002F0DAFD1F480068000C1E4932
:100B30000988C94389B2884202D11B48006800E095
:100B400030204406640E204602F0D4FD00BF00BFF2
:100B500000201849C968C908C9000143154AD16075
:100B600000BF00BF1146C96807221202914301432A
:100B7000104AD16000BF00BF1146C96807221204A5
:100B8000914301430B4AD16000BF00BF1146C968C1
:100B90000722D20491430143064AD16000BF10BD31
:100BA00000127A001000002040FBFF1F0024F40018
:100BB00000366E010002004070B506460C468020EB
:100BC0002040802807D16106490E28204143304645
:100BD000D8300D1809E06006400E28214843314600
:100BE000CC3199229200891845186006400E287071
:100BF00080202040C00968702946304605F067F81B
:100C0000002070BD70B506460C468020204080282C
:100C100007D16106490E282041433046D8300D18CF
:100C200007E0282060433146CC3199229200891890
:100C300045180020A8706006400E287080202040D3
:100C4000C00968702946304605F018F8002070BDCC
:100C5000FFB581B006460D461F46802028408028FB
:100C600007D16906490E282041433046D8300C1878
:100C700009E06806400E282148433146CC319922CC
:100C80009200891844186806400E20708020284081
:100C9000C00960700398A060E7706078002801D0F8
:100CA0002078E080022F01D10020207121463046BB
:100CB00004F084FF002005B0F0BDFFB581B005460B
:100CC0000E4617467006400E282148432946CC316F
:100CD0009922920089184418E76004986061002006
:100CE000A06160707006400E2070E878012800D185
:100CF00027612078002804D12146284604F0A1FE6F
:100D000003E02146284605F063F8002005B0F0BD59
:100D100018B5002200927F231B01009A9A430B0111
:100D20007F24240123401A43009202691268009B29
:100D30001A4303691A6018BD70B506460C46802038
:100D40002040802807D16106490E282041433046C3
:100D5000D8300D1807E0282060433146CC31992265
:100D60009200891845180120A8706006400E28706E
:100D700080202040C00968702946304604F0F4FF06
:100D8000002070BDFFB581B007460D4616466906C6
:100D9000490E282041433846D8300C180120607095
:100DA0006806400E2070E66026610020A06104986D
:100DB00060612078002804D12146384604F041FEC5
:100DC00003E02146384605F003F8002005B0F0BDE9
:100DD0007CB50546284604F0F9FD574CE868C06824
:100DE00000900F2189020098884300900098E968DC
:100DF000C8600120A8704020A880504884420BD3CE
:100E0000A010844208D20F2189020098884307214C
:100E1000C902401800907FE0494884420BD34948FA
:100E2000844208D20F218902009888430D2189024B
:100E30004018009070E0434884420BD342488442FB
:100E400008D20F2189020098884303210903401822
:100E5000009061E03C4884420BD33C48844208D275
:100E60000F218902009888430B21890240180090C5
:100E700052E0364884420BD33548844208D20F21D1
:100E80008902009888430521C9024018009043E078
:100E90002F4884420BD32F48844208D20F21890265
:100EA00000988843092189024018009034E02948BD
:100EB00084420BD32848844208D20F21890200982B
:100EC0008843012149034018009025E022488442CC
:100ED0000BD32248844208D20F218902009888430C
:100EE000072189024018009016E01C4884420BD369
:100EF0001B48844208D20F218902009888430321AD
:100F0000C9024018009007E00F2189020098884329
:100F100005218902401800900098E968C860002007
:100F200001900121490301988843401801900198DC
:100F3000E968486101207CBD0090D003C0E1E40075
:100F40000024F400E0EC040100C31801002D31017D
:100F500040A44C0100366E0140E2950180C3C901F6
:100F600060600B02F8B5054600240020009028467A
:100F700005F030F9064688E0F007C00F00287DD064
:100F8000E1B2284600F010FB00900098C007C00FA7
:100F9000002825D00127A7402869406BB84329695C
:100FA000486300200090009840084000401C0090DA
:100FB000A20028461430805800998160E1B235487B
:100FC0000068426828469047E878012808D1002C3C
:100FD00006D1CD20405D042802D1284604F0D6FD7C
:100FE00000980007C00F00280CD0002000900821B6
:100FF0000098884308300090A2002846143080589A
:10100000009981600098C006C00F00280CD0002015
:10101000009010210098884310300090A2002846CC
:10102000143080580099816000984006C00F002855
:101030000CD0002000904021009888434030009060
:10104000A2002846143080580099816000988007DB
:10105000C00F00280CD00020009002210098884387
:10106000801C0090A20028461430805800998160AE
:1010700000980006C00F002805D000E003E02146DC
:10108000284600F0A4FA641C7608002E00D073E70E
:101090000120F8BD202000207CB50446002500205A
:1010A0000190204605F09EF8064676E0F007C00F56
:1010B000002870D0E9B2204605F09CF80190019814
:1010C000C007C00F00283DD00020019001984008C3
:1010D0004000401C0190AA002046503080580199E1
:1010E0008160E07801281BD1A9002046503040588B
:1010F00000690090282068432146CC319922920053
:1011000089184018806800994903490B421A282021
:1011100068432146CC3199239B00C918401882614D
:10112000E9B220480068026820469047E07801282C
:1011300008D1002D06D1CD20005D052802D1204622
:1011400004F024FD01988007C00F00280CD0002077
:101150000190022101988843801C0190AA0020463A
:10116000503080580199816001980007C00F002815
:1011700011D00C4800688168204688470020019003
:1011800008210198884308300190AA002046503079
:101190008058019981606D1C7608002E86D101204F
:1011A0007CBD0000202000203EB50446A07A002827
:1011B0000FD0C82000590068009002210098884391
:1011C00000900098400840000090C8200059009905
:1011D000016000200190019840084000401C0190EF
:1011E000206940680199884321694860094800687E
:1011F00081692046884700200290029840004008FC
:101200000121C907401802900298E1684861012055
:101210003EBD0000202000207CB504460020019047
:1012200010210198884310300190E068806901998D
:101230008843E1688861E068006A009000980007D0
:10124000000F282148432146CC3199229200891869
:1012500045180098C002000F030005F0D2F90730CE
:1012600005061F20302130002AE000984004400D80
:10127000002812D000984004420D2046E96804F08E
:10128000C4FFE86800994904490D4018E860A8695E
:1012900000994904490D4018A86111E010E00FE0E1
:1012A00008222046CC300B494118204604F0ADFFFF
:1012B000A86900994904490D4018A86100E000BFE1
:1012C00000BFE068806901990843E16888610120F6
:1012D0007CBD0000BC04000038B504460848006826
:1012E000C168204688470020009008210098884364
:1012F000083000900098E1684861012038BD000086
:10130000202000201FB5044600210091CE20015D61
:101310000091244800684169204688472069806818
:101320000190002003900121C902039888434018CE
:1013300003900398E1684861A07A00282ED00198B4
:10134000C007C00F002829D0D120005D012825D179
:1013500068460078032821D10020029002984008B6
:101360004000401C0290C8200059006802990143C7
:10137000C82000590160022102988843801C029015
:10138000C8200059006802990143C8200059016033
:10139000054800690621084303490861012004B09B
:1013A00010BD00002020002000ED00E030B587B027
:1013B000044600200290069005900490039001904E
:1013C000029840084000401C029020694068029941
:1013D0008843216948600021204604F0A3FE0025CF
:1013E0000BE0FF21AA002046143080588160AA003B
:1013F00020465030805881606D1C6078A842F0D83B
:101400000021C943206981610698000C0004401C3A
:101410000690069880B201210904401806900699AA
:101420002069C16108210598884308300590059816
:1014300040084000401C0590022105988843801C0C
:101440000590059920694161049840084000401CBE
:1014500004900821049888430830049002210498DD
:101460008843801C04900499206901612069006808
:1014700003907F2109010398884303900399206911
:101480000160204604F082FB002001900121090345
:1014900001988843401801900198E1684861044828
:1014A0000068016920468847012007B030BD000070
:1014B00020200020F8B506460F463946304604F095
:1014C000C0FE0121CE2081550021D020815500256C
:1014D00011E02820294641433046D8300C1801201D
:1014E00060702570E5800020E0701020A060002072
:1014F000E06060616D1C7078A842EAD8002512E0B7
:10150000282068433146CC3199229200891844182A
:10151000002060702570E580E0701020A060002041
:10152000E06060616D1C7078A842E9D8304604F034
:101530003DFA304604F03BF90021304604F0C9FE84
:10154000304604F03FF9304604F0B4FDF8BD000029
:1015500038B504460020009007480068C16920465D
:101560008847012109050098884340180090009899
:10157000E1684861012038BD2020002038B50446CC
:101580000020009007480068016A20468847012132
:10159000490500988843401800900098E168486128
:1015A000012038BD2020002070B5024615692B6946
:1015B00015696C6B2546CD40ED072D0E2B438E0033
:1015C00015461435AD59AD681D40284670BDFEB5B1
:1015D00006460F4600BF00200290282039464143AE
:1015E0003046D8300C18A1696069451AA068A84235
:1015F00000D2A568E81C80080190B900304614307C
:1016000040588069029029E0A1696069451AA06884
:10161000A84200D2A568E81C80080190ABB2FAB2DB
:101620003046E16804F05EFEE0684019E060A069C1
:101630004019A061B90030461430405880690290CA
:10164000A1696069884209D1217801208840009011
:101650003069416B0098814330694163029881B2DF
:101660000198814206D36169A069884202D260690B
:101670000028C9D10120FEBD0FB408B503A8009011
:101680000099029804F084FF0020009001B008BC8B
:1016900004B0184710B5044603E07D20C00000F0F8
:1016A00005F82046641E0028F7D110BD70B5064627
:1016B0000F480068314604F08CFF04460D4A0023B1
:1016C000FEF740FD064601200006864200D900E0F4
:1016D00030460646701E084948610020886100BFF8
:1016E00005480069C003C00F0028F9D070BD000094
:1016F0001000002040420F0000E000E010B5012182
:1017000089020A4801F01EFA012803D18102074824
:1017100001F010FA0121C902044801F013FA01286E
:1017200003D1C102014801F005FA10BD000D0040CF
:1017300000B585B014216846FEF778FD00BF434828
:10174000C0680121490608434049C86000BF4805F8
:101750003E494031C96A0246914301433B4A403207
:10176000D16200BF40001146C96A0143D16200BF87
:10177000000D009000200190012002900390694626
:10178000334801F03DFA03220121890230488030BC
:1017900001F0E3F9032000052D4980310968024674
:1017A000914301432A4A8032116000BF111510464F
:1017B00001F0C3F9022251022548803001F0CDF931
:1017C000012189022248803001F0B4F90120000390
:1017D00000900020019001200290039069461C486F
:1017E00001F00EFA03220121C9021948803001F0EC
:1017F000B4F90121C9021648803001F09EF9022295
:1018000091021348803001F0A8F90121C902104863
:10181000803001F08FF91E20002805DBC206D20EB1
:10182000012191400B4A116000BF02211E2002F0ED
:1018300089FB1E20002806DBC206D20E0121914042
:10184000044A803A116000BF05B000BD00020040AC
:10185000800C004080E100E070B50446002500BF28
:1018600005E00A212046FEF743FC04466D1C002CCF
:10187000F7D1E8B270BD000070B5054629461148A1
:1018800000F020FF0F4800F093FE0E4800F015FF17
:101890000C4801F0B7F800BF0A4801F0ABF8002887
:1018A000FAD0084800F084FE00BF0648806984B280
:1018B00000BF2946034800F0F5FE024800F0EDFEA7
:1018C000204670BD00AC014010B500BF1A48C0688A
:1018D000012108431849C86000BF01214904174885
:1018E00000F0F0FE154800F063FE144800F0E5FE3D
:1018F000124801F087F800BF104801F07BF800287B
:10190000FAD00E4800F054FE00BF0C48806984B243
:1019100000BF01214904094800F0C4FE074800F057
:10192000BCFE00BF0448C068400840000249C860CF
:1019300000BF204610BD00000CA8014000AC0140D3
:10194000F8B50E48046845688668C76808220C49DF
:10195000204600F071F9082209491031284600F0AC
:101960006BF9082206492031304600F065F908225B
:1019700003493031384600F05FF9F8BD80FEFF1FA3
:1019800008210020F0B587B080202649496901432D
:10199000244A516100BFFFF797FF234908600320E5
:1019A000FFF778FE0120C002FFF766FF00211F4A03
:1019B00003C21D4800680103081A02901B487D27D6
:1019C000FF0060C800200690284631463A46069B34
:1019D000FEF7E8FB164A12895300D418E217039267
:1019E000049105902246039BFEF7DCFB01910090D9
:1019F0000023029AFEF7A6FB0E490860084600681D
:101A000041000DA0FFF738FE802006498969014397
:101A1000044A916100BF074800884004000C07B0E9
:101A2000F0BD0000800C0040E81F0020E01F0020F7
:101A300000FBFF1FEC1F00202A205642415420507B
:101A40004F5745523A2025646D560D0A000000009C
:101A500070B505461C480078002834D11B4802F0B8
:101A60009DFC0446002C2EDD402C13DD0120164980
:101A7000087040221649154802F09BFC1548402189
:101A8000C268134890474023114A81212846FFF736
:101A900079F918E022460E490C4802F08AFC0D48FC
:101AA0002146C2680A489047402C03D102200649CB
:101AB000087002E00120044908702346044A81218D
:101AC0002846FFF75FF970BD40200020D02200209B
:101AD00084220020C020002000B587B01421684671
:101AE000FEF7A4FB0320C002009002200190012019
:101AF0000290002003906946064801F081F800201A
:101B000005900548069005A9044801F05DF907B065
:101B100000BD0000000C0040A08601000024014030
:101B2000014600BF0E484068082210430C4A50602E
:101B300000BF00BF00BF0A48C068C007C00F012235
:101B4000504050400028F5D000BF0120044AD0602A
:101B500000BF00BF10468069C0B208700020704707
:101B60000024014010B50446002C04D0012C11D0F3
:101B7000022C30D11DE000BF194840680121084304
:101B80001749486000BF00BF154801F0D7F9002889
:101B9000FAD021E000BF12484068022108431049F2
:101BA000486000BF00BF0E4801F0C8F90028FAD015
:101BB00012E000BF0A484068042108430849486011
:101BC00000BF00BF00BF0648C06808210840C00829
:101BD0000028F7D000E000BF00BF002010BD0000CB
:101BE00000240140014600BF12488069000A00023B
:101BF0000843104A906100BF00BF00BF0D48C06895
:101C00000222104040080028F7D000BF0220094AF5
:101C1000D06000BF00BF1046C0680422104080089A
:101C2000002800D1704700BF0420024AD06000BFE6
:101C30000120F7E70024014030B50B46002100BF2A
:101C400012E0040F0A2C04D2040F30344D005C550E
:101C500003E0040F37344D005C55000100254C00B3
:101C6000641C1D554C1CE1B29142EADB30BD000002
:101C700010B514480078012823D1002407E0A00003
:101C800011490858A100114A5050601CC4B2042CDC
:101C9000F5DB0E48002201680D4801F099FB0B4866
:101CA000012241680A4801F093FB0848022281683A
:101CB000074801F08DFB05480322C168044801F084
:101CC00087FB10BDD01F0020B8210020E02100209C
:101CD000000C014010B5012002490870FFF7C8FF51
:101CE00010BD0000D01F002070B505460E4630071D
:101CF000000F00F045FC0446681F030004F081FC5F
:101D000006048AFEFDFCFBFAE007C00F002807D09E
:101D1000F748C068FF2101310843F549C86006E073
:101D2000F348C068FF2101318843F149C8600220AF
:101D30002040022807D1EE488068FF210131084386
:101D4000EB49886006E0EA488068FF21013188435A
:101D5000E749886004202040042807D1E44840680F
:101D6000FF2101310843E249486006E0E04840684D
:101D7000FF2101318843DE494860082020400828BF
:101D800007D1DB480068012149020843D8490860AF
:101D900006E0D7480068012149028843D449086019
:101DA00010202040102807D1D14840680121490265
:101DB0000843CF49486006E0CD4840680121490208
:101DC0008843CB49486020202040202807D1C848BC
:101DD000C068012149020843C549C86006E0C448FB
:101DE000C068012149028843C149C86040202040A1
:101DF000402807D1BE488068012149020843BC49F8
:101E0000886006E0BA488068012149028843B849E1
:101E1000886078E2E007C00F002806D0B448C068A8
:101E200040210843B249C86005E0B148C06840217C
:101E30008843AF49C86002202040022806D1AC4840
:101E4000806840210843AA49886005E0A848806866
:101E500040218843A649886004202040042806D1F8
:101E6000A348406840210843A149486005E0A048D4
:101E70004068402188439E49486008202040082847
:101E800006D19B480068802108439949086005E015
:101E900097480068802188439549086010202040B9
:101EA000102806D192484068802108439049486034
:101EB00005E08F484068802188438D494860202094
:101EC0002040202806D18A48C068802108438849DC
:101ED000C86005E08648C068802188438449C8609E
:101EE0004020204040280CD1814880688021084350
:101EF0007F4904E006E27FE1FCE081E008E08860E1
:101F000005E07B4880688021884379498860FAE150
:101F1000E007C00F002806D07548C06810210843AC
:101F20007349C86005E07248C06810218843704951
:101F3000C86002202040022806D16D488068102128
:101F400008436B49886005E0694880681021884330
:101F50006749886004202040042806D1644840680E
:101F6000102108436249486005E06148406810213B
:101F700088435F49486008202040082806D15C4813
:101F80000068202108435A49086005E05848006865
:101F9000202188435649086010202040102806D18F
:101FA00053484068202108435149486005E05048A3
:101FB0004068202188434E49486020202040202846
:101FC00006D14B48C068202108434949C86005E054
:101FD0004748C068202188434549C86040202040C8
:101FE000402806D142488068202108434049886043
:101FF00005E03F488068202188433D49886082E1B0
:10200000E007C00F002806D03948C0680121084306
:102010003749C86005E03648C06840084000344988
:10202000C86002202040022806D131488068012182
:1020300008432F49886005E02D488068400840002B
:102040002B49886004202040042806D12848406895
:10205000012108432649486005E0254840684008BA
:1020600040002349486008202040082806D1204825
:102070000068022108431E49086005E01C4800680A
:10208000022188431A49086010202040102806D1F8
:1020900017484068022108431549486005E0144884
:1020A00040680221884312494860202020402028AF
:1020B00006D10F48C068022108430D49C86005E0F9
:1020C0000B48C068022188430949C860402020406D
:1020D000402806D1064880680221084304498860E8
:1020E00005E00348806802218843014988600AE1CD
:1020F000B8210020E007C00F002807D08348C0683F
:102100000121890708438149C86006E07F48C0680B
:102110000121890788437D49C860022020400228A8
:1021200007D17A4880680121890708437749886088
:1021300006E07648806801218907884373498860F2
:1021400004202040042807D17048406801218907F5
:1021500008436E49486006E06C48406801218907E1
:1021600088436A49486008202040082807D167480A
:1021700000680121C90708436449086005E0634815
:102180000068400040086149086010202040102885
:1021900007D15E4840680121C90708435B49486090
:1021A00005E05A48406840004008584948602020EF
:1021B0002040202807D15548C0680121C90708439D
:1021C0005249C86005E05148C068400040084F4986
:1021D000C86040202040402807D14C488068012139
:1021E000C90708434949886005E0484880684000BD
:1021F00040084649886086E0E007C00F002807D005
:102200004248C0680121090708434049C86006E008
:102210003E48C0680121090788433C49C860022044
:102220002040022807D13948806801210907084366
:102230003649886006E035488068012109078843EF
:102240003249886004202040042807D12F48406884
:102250000121090708432D49486006E02B484068E2
:10226000012109078843294948600820204008289F
:1022700007D126480068012149070843234908601F
:1022800006E0224800680121490788431F49086089
:1022900010202040102807D11C4840680121490720
:1022A00008431A49486006E0184840680121490778
:1022B00088431649486020202040202807D1134831
:1022C000C0680121490708431049C86006E00F486B
:1022D000C0680121490788430C49C860402020405C
:1022E000402807D109488068012149070843074968
:1022F000886006E005488068012149078843034952
:10230000886000E000BF00BF70BD0000B821002061
:1023100010B50022511E094801F05AF80122911E01
:10232000064801F055F80222D11E044801F050F889
:102330000322111F014801F04BF810BD000C0140B1
:10234000F8B506468B48864200D9064634463046E4
:10235000FFF782FA05462B0004F053F907050A102F
:10236000244678B8FE0000210A20FFF7BDFCFEE0FD
:10237000E7B239460A20FFF7B7FCF8E00A21204609
:10238000FDF7B6FEC7B20A212046FDF7B1FE0C46A6
:1023900039460920FFF7A8FCE7B239460A20FFF7C3
:1023A000A3FCE4E064212046FDF7A2FEC7B264214D
:1023B0002046FDF79DFE0C4639460820FFF794FCA9
:1023C0000A212046FDF794FEC7B20A212046FDF7F8
:1023D0008FFE0C4639460920FFF786FCE7B23946E6
:1023E0000A20FFF781FCC2E07D21C9002046FDF7ED
:1023F0007FFEC7B27D21C9002046FDF779FE0C465D
:1024000039460720FFF770FC64212046FDF770FE77
:10241000C7B264212046FDF76BFE0C463946082002
:10242000FFF762FC0A212046FDF762FEC7B20A21CF
:102430002046FDF75DFE0C4639460920FFF754FCA7
:10244000E7B239460A20FFF74FFC90E04A492046A0
:10245000FDF74EFEC7B248492046FDF749FE0C463F
:1024600039460620FFF740FC7D21C9002046FDF7D4
:102470003FFEC7B27D21C9002046FDF739FE0C465C
:1024800039460720FFF730FC64212046FDF730FE77
:10249000C7B264212046FDF72BFE0C4639460820C2
:1024A000FFF722FC0A212046FDF722FEC7B20A21CF
:1024B0002046FDF71DFE0C4639460920FFF714FCA7
:1024C000E7B239460A20FFF70FFC50E02B492046BF
:1024D000FDF70EFEC7B229492046FDF709FE0C465E
:1024E00039460520FFF700FC23492046FDF700FE92
:1024F000C7B221492046FDF7FBFD0C4639460620B0
:10250000FFF7F2FB7D21C9002046FDF7F1FDC7B2C0
:102510007D21C9002046FDF7EBFD0C46394607201A
:10252000FFF7E2FB64212046FDF7E2FDC7B264211C
:102530002046FDF7DDFD0C4639460820FFF7D4FBA9
:102540000A212046FDF7D4FDC7B20A212046FDF737
:10255000CFFD0C46394600E008E00920FFF7C4FB38
:10256000E7B239460A20FFF7BFFB00E000BF00BF1B
:10257000F8BD00003F420F0010270000A0860100B8
:102580001FB5014606A41DCC03946C460DC4122948
:1025900003DA6846405C04B010BD3F20FBE7000052
:1025A0003F065B4F666D7D077F6F777C395E7900F4
:1025B000012101607047000010B50146012200BFF3
:1025C00003231B04086898420AD053040868984201
:1025D00006D013040868984202D00868002801D188
:1025E000012000E00020002801D100BFFEE700BF6D
:1025F00000BF4868002817D001231B06486898428E
:1026000012D05B00486898420ED003231B0648682E
:10261000984209D001239B064868984204D00523BC
:102620001B064868984201D1012000E000200028E4
:1026300001D100BFFEE700BFFF200130134BDB6A72
:102640000343124CE36200BF0003104B40331B6B8B
:1026500003430E4C4034236300BF486823461B6B82
:1026600007242406A3430343084C4034236300BFDC
:10267000086823461B6B03242404A3430343034C31
:102680004034236300BF104610BD0000000200402C
:10269000816849084900816070478168490849009C
:1026A0008160704742690B031B0B9A43426170477C
:1026B00081680122114381607047816801221143C2
:1026C0008160704742690B031B0B1A4342617047DC
:1026D00070B505460C46012600BFC248854201D1AF
:1026E000012000E00020002801D100BFFEE700BF6C
:1026F00000BF2068002804D00121490220688842D8
:1027000001D1012000E00020002801D100BFFEE738
:1027100000BF00BF0121C9026068884202D0606822
:10272000002801D1012000E00020002801D100BFD5
:10273000FEE700BF00BF2069002802D020690428FE
:1027400001D1012000E00020002801D100BFFEE7F8
:1027500000BF00BF606900280DD001210903606936
:10276000884208D049006069884204D003210903E7
:102770006069884201D1012000E00020002801D1D9
:1027800000BFFEE700BF00BF2C20005D002803D083
:102790002C20005D012801D1012000E0002000284C
:1027A00001D100BFFEE700BF00BF206B002821D091
:1027B00001214904206B88421CD04900206B8842CB
:1027C00018D003214904206B884213D00121C90489
:1027D000206B88420ED005214904206B884209D025
:1027E00003218904206B884204D007214904206B0F
:1027F000884201D1012000E00020002801D100BF63
:10280000FEE700BF00BF606B002826D0012109054C
:10281000606B884221D04900606B88421DD0032143
:102820000905606B884218D001218905606B8842D8
:1028300013D005210905606B88420ED0032149059C
:10284000606B884209D007210905606B884204D07B
:102850000121C905606B884201D1012000E0002000
:10286000002801D100BFFEE700BF00BF5E4800683E
:10287000012108435C49086000BF00BF08460068AA
:10288000022108435849086000BF00BF00BF5648F6
:1028900040680221084040080028F7D000BF534894
:1028A0005349086100BF0120C00500F0A1FD0120CF
:1028B000C00500F095FD0120000600F099FD012003
:1028C000000600F08DFD00BF4848C043484908613C
:1028D00000BF00BFA868C007C00F012148404840A2
:1028E00000287CD12068E96801225202914301430B
:1028F000E96000BF6068E968920091430143E960C4
:1029000000BFA069A968921091430143A96000BF6C
:10291000E069A968521091430143A96000BF206992
:10292000E968042291430143E96000BF6069E968F6
:102930000322120391430143E96000BFA068E968E4
:102940000122920291430143E96000BFE068E96817
:10295000921091430143E96000BF206A29690F2268
:10296000120291430143296100BF606A2969090984
:1029700009010143296100BFA06A2969F02291433E
:102980000143296100BF2C20005D002817D0206B77
:10299000E9680722520491430143E96000BF606B7C
:1029A000E9680F22120591430143E96000BF00BFAF
:1029B000E868012109040843E86000BF07E000BFA0
:1029C000E868012109048843E86000BF00BF284689
:1029D000FFF76EFE2846FFF75BFE01E0FFE70026EB
:1029E000304670BD00AC01400CA80140DF9B57137E
:1029F0004002004001460868C007C00F0122504055
:102A00005040704781680222114381607047000086
:102A100010B5024600BF4448824201D1012000E0C7
:102A20000020002801D100BFFEE700BF00BFC8683A
:102A3000002808D0C868022805D0C868032802D03A
:102A4000C868012801D1012000E00020002801D140
:102A500000BFFEE700BF00BF344B0868984201D8B2
:102A6000012000E00020002801D100BFFEE700BFE8
:102A700000BF2E4B4868984201D8012000E000209A
:102A8000002801D100BFFEE700BF00BF8868012811
:102A900002D08868002801D1012000E00020002831
:102AA00001D100BFFEE700BF0120214B5B6B034358
:102AB0001F4C636300BFC8681D4B40331B6B9B08F2
:102AC0009B0003431A4C4034236300BF102023466D
:102AD0001B6B0343236300BF0868936A906200BFC7
:102AE00000BF106802239843106000BF4868D36A93
:102AF000D06200BF8868012806D100BF106880231B
:102B00001843106000BF06E000BF106880239843A0
:102B1000106000BF00BF00BF50690123184350611F
:102B200000BF012010BD000000B40140FFFF000005
:102B3000000200408AB2C260704782688BB21A43BA
:102B4000826070470246D0688BB218408BB29842C0
:102B500001D1012070470020FCE730B543680C46E6
:102B60004C4365006419A3430C464C435443234330
:102B7000436030BD00B585B014216846FDF756FBB3
:102B8000684600F015F901200290019019491A4891
:102B900000F009F917491848403000F004F91549C8
:102BA0001548803000F0FFF814491348C03000F099
:102BB000FAF86946104800F023F869460E4840309C
:102BC00000F01EF869460C48803000F019F869469C
:102BD0000948C03000F014F8FF2081300090022036
:102BE00001900120039069460348C03000F008F8C6
:102BF00005B000BDFFFF0000000C00407FFE00009C
:102C0000F0B502460B460024002100BF6048824216
:102C10000BD05F484030824207D05D48803082420E
:102C200003D05B48C030824201D1012000E0002087
:102C3000002801D100BFFEE700BF00BF18680028D0
:102C400005D9544D1868A84201D8012000E00020A1
:102C5000002801D100BFFEE700BF00BF586803286D
:102C600008D05868002805D05868012802D0586854
:102C7000022801D1012000E00020002801D100BF7E
:102C8000FEE700BF00BF9868012802D098680028BE
:102C900001D1012000E00020002801D100BFFEE7A3
:102CA00000BF00BFD868002802D0D868012801D131
:102CB000012000E00020002801D100BFFEE700BF96
:102CC0008020354DAD6A0543334EB56200BF58E0F4
:102CD0000125A540186828400146002950D0986871
:102CE000002806D100BF90688DB2A843906000BF55
:102CF00006E000BF90688DB22843906000BF00BF1F
:102D0000D868002806D000BF50688DB228435060B4
:102D100000BF06E000BF50688DB2A843506000BFFE
:102D200000BF5868032806D100BF906A8DB22843BF
:102D3000906200BF00BF5868022809D118690128B5
:102D400006D100BF106A8DB22843106200BF00BFD9
:102D50005868002806D100BF10688DB22843106063
:102D600000BF00BF5868D5680E464E437700F6197D
:102D7000B5430E464E4346433543D56000BF00BFC2
:102D8000641C1868E0400028A2D10120F0BD0000BA
:102D9000000C0040FFFF00000002004082698BB27F
:102DA0001A438261704742698BB21A43426170478D
:102DB0000449016000214160012181600021C1605E
:102DC00001617047FFFF0000F0B587B005460C4673
:102DD00000BF5548854201D1012000E000200028B5
:102DE00001D100BFFEE700BF00BF206800280DD062
:102DF000012109042068884208D0490020688842DF
:102E000004D0032109042068884201D1012000E098
:102E10000020002801D100BFFEE700BF00BF6068AE
:102E2000002805D041496068884201D8012000E0AF
:102E30000020002801D100BFFEE700BF01200006EE
:102E400000F03CFC012000053949C96A0143384AB9
:102E5000D16200BF20681146C96A0322120491435F
:102E60000143334AD16200BF2068002807D0911384
:102E7000401A0ED0401A10D0401A16D111E000F0BE
:102E8000DBFB059000F0BCFA069000F0E5FA07467F
:102E90000CE000F0AFFB074608E000F0CDFB074672
:102EA00004E000F07FFB074600E000BF00BF606861
:102EB00041003846FDF71CF9461E00BF68691D49F0
:102EC000084031040843686100BF00BF6869400AD8
:102ED00040023043686100BF3046FDF7DBFB002253
:102EE00001239B0701910090FDF754FB0022124B38
:102EF00003910290FDF734FA05910490FDF706FC6A
:102F00000690E869410A490206980143E96100BF59
:102F100000BF05480068012108430349086000BF5D
:102F2000012007B0F0BD00000024014040420F0026
:102F300040020040FFFF00FE0000E03F0146C8687D
:102F400010221040000970470269520852000A43DB
:102F500002617047F0B587B0044600BF3B48006887
:102F600008210840002802D0082804D101E00226E8
:102F700001E0042600BF00BF002C62D0642C60D8A2
:102F8000324800F0EDF8002804D002281ED00428B2
:102F900056D139E0A10071430846FDF773FB07469F
:102FA000FDF7D2FB02460B46019100900020284914
:102FB000FDF7F0FA0022274B03910290FDF7D0F9BC
:102FC00005910490FDF7A2FB054639E02146062253
:102FD000514371430846FDF755FB0746FDF7B4FB27
:102FE00002460B460191009000201949FDF7D2FAE4
:102FF0000022184B03910290FDF7B2F9059104905D
:10300000FDF784FB05461BE0E10071430846FDF730
:1030100039FB0746FDF798FB02460B4601910090ED
:1030200000200B49FDF7B6FA00220A4B03910290EB
:10303000FDF796F905910490FDF768FB054600BF82
:1030400000E02025E8B207B0F0BD0000000C014010
:103050000000E0400000E03F082903D8026D0A4369
:10306000026502E0426D0A4342657047426D0A43C1
:1030700042657047F1B584B0364800F071F8002819
:1030800004D002281BD004284DD133E000BF3148C2
:103090008068C0B2C0017D21C90048430190FDF79E
:1030A000F1FA0746FDF750FB054600222A4BFDF7D3
:1030B00071FA03910290FDF75BFB044633E000BF19
:1030C00024488068C0B20621484340017D21C900E0
:1030D00048430190FDF7D6FA0746FDF735FB054654
:1030E00000221D4BFDF756FA03910290FDF740FBBD
:1030F000044618E000BF17488068C0B200027D2176
:10310000C90048430190FDF7BDFA0746FDF71CFBD7
:1031100005460022104BFDF73DFA03910290FDF7A2
:1031200027FB044600BF00BF0498FDF7ABFA214619
:103130000190FDF7D6F80746FDF706FB054600228D
:10314000064BFDF70DF903910290FDF7DFFA05B08C
:10315000F0BD0000000C01400000E0400000E03F36
:1031600001460868062210407047000070B5054609
:103170000C4600BF9448854201D1012000E00020A8
:10318000002801D100BFFEE700BF00BF2068002873
:103190000DD0012109042068884208D04900206828
:1031A000884204D0032109042068884201D101200B
:1031B00000E00020002801D100BFFEE700BF00BFF3
:1031C0000121C9036068884201D1012000E000208C
:1031D000002801D100BFFEE700BF00BFA0680028A3
:1031E00049D0FF210131A068884244D04900A0683D
:1031F000884240D003210902A06888423BD00121C7
:103200008902A068884236D005210902A068884258
:1032100031D003214902A06888422CD0072109023D
:10322000A068884227D00121C902A068884222D024
:1032300009210902A06888421DD005214902A06821
:10324000884218D00B210902A068884213D00321BC
:103250008902A06888420ED00D210902A068884228
:1032600009D007214902A068884204D00F21090231
:10327000A068884201D1012000E00020002801D18F
:1032800000BFFEE700BF00BFE068002802D0E06892
:10329000202801D1012000E00020002801D100BF3A
:1032A000FEE700BF00BF2069002802D0206908287F
:1032B00001D1012000E00020002801D100BFFEE77D
:1032C00000BF00BF6069002805D06069022802D0F5
:1032D0006069042801D1012000E00020002801D10C
:1032E00000BFFEE700BF08203849C96A0143374ADA
:1032F000D16200BF20683449096803221204914357
:103300000143314A116000BF60681146096801221B
:10331000D203914301432C4A116000BFA0681146BB
:1033200009680F22120291430143274A116000BF2E
:10333000E06811460968202291430143224A116046
:1033400000BF2069114609680822914301431E4AC3
:10335000116000BF6069114609680622914301436C
:10336000194A116000BFA069FFF7F4FD0646164830
:103370008068000A000230431349886000BFE0699A
:10338000FFF778FE06461048C068000A0002304386
:103390000D49C86000BF206AFFF76CFE06460A4868
:1033A000C068FF2109028843310208430649C8600A
:1033B00000BF00BF084600680121084302490860B9
:1033C00000BF012070BD0000000C01400002004061
:1033D00030B50346243394001C599500595130BD33
:1033E0000249C9698143014AD161704740020040E6
:1033F0000249C9690143014AD16170474002004056
:1034000010B5014600BF134AD26807231B021A40B9
:1034100005242402131BA24214D006DC002A0DD07E
:1034200001239B02D21A13D10AE0DA1FF93A002ACB
:103430000AD0FF3A013A002A0AD107E0084607E01D
:10344000480805E0880803E0C80801E0080900BF53
:1034500000BF10BD0002004010B5014600BF134A76
:10346000D26807231B041A4005242404131BA2421C
:1034700014D006DC002A0DD001239B04D21A13D1EC
:103480000AE0012212049A1A0AD001231B04D21A5C
:103490000AD107E0084607E0480805E0880803E08D
:1034A000C80801E0080900BF00BF10BD00020040CD
:1034B00010B5014600BF134AD2680723DB041A4047
:1034C0000524E404131BA24214D006DC002A0DD00C
:1034D00001235B05D21A13D10AE00122D2049A1A01
:1034E0000AD00123DB04D21A0AD107E0084607E01C
:1034F000480805E0880803E0C80801E0080900BFA3
:1035000000BF10BD0002004070B500BF23488069B5
:1035100002210840002802D0022806D103E000F072
:1035200069F8044601E01E4C00BF00BF00BF1B4805
:103530008069702108400107090F00291FD100117F
:10354000030003F05EF8080506080A0C12141A1CA2
:1035500015E0640813E0A40811E0E4080FE00C2172
:103560002046FCF7C5FD044609E0240907E01821C0
:103570002046FCF7BDFD044601E0640900BF00BF22
:1035800000BF064880697F2109040840050C00BF80
:10359000204668430446204670BD000000020040FB
:1035A00000127A0000BF0E49496A0322120411403A
:1035B000002908D001221204891A06D0891A06D0DF
:1035C000891A08D105E0074807E0074805E00748E1
:1035D00003E0074801E0034800BF00BF7047000058
:1035E0004002004000093D0040420F0020A10700BA
:1035F00090D0030000BF0C4909690F22120411404A
:10360000002906D001221204891A04D0891A06D191
:1036100003E0064805E0064803E0064801E00348E9
:1036200000BF00BF704700000002004000127A0097
:103630000024F40000366E0110B500BF1049C968BF
:103640004907490F0B0002F0DCFF0805080A190DB5
:1036500010161319FFF7CEFF10E00A480EE0FFF72F
:1036600053FF0BE0FFF79EFF08E00120C00305E0D9
:1036700000F00AF802E07D20000200BF00BF10BD8C
:103680000002004000127A0000BF0548C06808210F
:103690000840002801D1034870470348FCE70000B8
:1036A00000020040006CDC02008793030249C96AF3
:1036B0000143014AD1627047400200400249096B50
:1036C0000143014A11637047000200400249096B3F
:1036D0000143014A1163704700020040044909692F
:1036E0000F22120491430143014A11617047000007
:1036F0000002004003494969C909C9010143014A5F
:103700005161704700020040024600BF1C48106033
:1037100000BF8869D368DB09DB010343D36000BFC6
:1037200048691369DB09DB010343136100BF0869C2
:1037300053699B099B010343536100BF88689369E8
:103740009B099B010343936100BFC868D369DB08F1
:10375000DB000343D36100BF4868136A5B095B0168
:103760000343136200BF0868536A1B0A1B0203432A
:10377000536200BF00BF0348106000BF01207047C4
:10378000ACACACAC5A5A5A5A30B504460D4600BFE0
:103790000B48844201D1012000E00020002801D123
:1037A00000BFFEE700BF04200649896A0143054ABD
:1037B000916200BF29462046FFF7A6FF012030BDD9
:1037C0000010014000020040012181607047416803
:1037D0000222114341607047FEB505460C460020A9
:1037E000029000BFAB48854208D0AB48854205D067
:1037F000AA48854202D0AA48854201D1012000E0B2
:103800000020002801D100BFFEE700BF00BF2068F4
:10381000002808D02068012805D02068032802D09D
:103820002068042801D1012000E00020002801D1F7
:1038300000BFFEE700BF00BFA068C02808D0A06896
:10384000002805D0A068402802D0A068802801D1B7
:10385000012000E00020002801D100BFFEE700BFEA
:1038600000BFE121C9026068884201D8012000E060
:103870000020002801D100BFFEE700BF00BF206983
:10388000002805D02069102802D02069202801D105
:10389000012000E00020002801D100BFFEE700BFAA
:1038A00000BFE068002804D0FF210131E0688842B1
:1038B00001D1012000E00020002801D100BFFEE777
:1038C00000BF00BF6069002808D06069022805D0E9
:1038D0006069012802D06069032801D1012000E05D
:1038E0000020002801D100BFFEE700BF00BFA06993
:1038F000002802D0A069012801D1012000E00020A9
:10390000002801D100BFFEE700BF6248854202D017
:10391000614885423ED1284621685E4A904207D1DF
:10392000604AD26A920892000A435E4BDA620AE069
:10393000594A904207D15B4AD26A0C239A438B00C2
:103940001A43584BDA6200BF2068002806D00128CD
:103950000ED0032810D0042816D111E0FFF76CFE1A
:103960000090FFF74DFD0190FFF776FD06460BE056
:10397000FFF740FE064607E0FFF75EFE064603E05F
:10398000FFF710FE064600BF00BF30466168FCF737
:10399000AFFB471E3F48854206D18015FFF796FED4
:1039A000A815FFF783FE32E03B48854206D140155B
:1039B000FFF78CFE6815FFF779FE28E0374885424F
:1039C00011D18014FFF782FEFFF736FE0090FFF75B
:1039D00017FD0190FFF76CFD064630466168FCF765
:1039E00087FB471E13E02E48854210D14014FFF795
:1039F0006DFEFFF721FE0090FFF702FD0190FFF73B
:103A000057FD064630466168FCF772FB471E207D75
:103A1000C007C00F002806D000BF28680121084356
:103A2000286000BF00BF022160690840002805D05F
:103A300000BF28680843286000BF00BFA0690128B4
:103A400007D100BF2868012149040843286000BF4E
:103A500000BF00BFA869000C00043843A86100BF84
:103A6000E0682968FF22013291430143296000BFC9
:103A7000A0682968C02291430143296000BF2069E2
:103A80002968302291430143296000BF0120029040
:103A90000298FEBD001C01400020014000A0014032
:103AA00000A401404002004001468868FF22013224
:103AB0001040000A704701468868C007C00F012205
:103AC00050405040704701468868C007C00F01222F
:103AD00050405040704701464868FF220132104074
:103AE000000A704701464868C007C00F01225040D5
:103AF000504070474269520A52020A43426170477D
:103B00004269520A52020A434261704700B58FB0BF
:103B100064480A9003200B9000200C900D900AA995
:103B20006148FFF76DF861480A9003200B900AA9DD
:103B30005D484030FFF764F830200A9003200B9076
:103B40000AA959488030FFF75BF83F200A9003200C
:103B50000B900AA95448C030FFF752F82020049077
:103B6000072040020390002006900120C00302902D
:103B700040200790800201900020059001A94C4848
:103B8000FFF7F4FA01214A48FFF766FA0221484894
:103B9000FFF762FA04214648FFF75EFA082144481D
:103BA000FFF75AFA01214248FFF760FA0221404824
:103BB000FFF75CFA04213E48FFF758FA08213C4819
:103BC000FFF754FA10213A48FFF750FA20213848FD
:103BD000FFF74CFA40213648FFF748FA8021344875
:103BE000FFF744FAFF2101313148FFF73FFA012185
:103BF00049022F48FFF73AFA012189022C48FFF7C2
:103C000035FA0121C9022A48FFF730FA01210903D8
:103C10002748FFF72BFA012149032548FFF726FA29
:103C2000012189032248FFF721FA01218905204853
:103C3000FFF71CFA0121C9051D48FFF717FA0121FA
:103C400009061B48FFF712FA012149061848FFF739
:103C50000DFA012189061648FFF708FA0121C90665
:103C60001348FFF703FA012109071148FFF7FEF98E
:103C7000012149070E48FFF7F9F9012189070C488E
:103C8000FFF7F4F90121C9070948FFF7EFF900BF71
:103C900007480068012108430549086000BF0FB0CC
:103CA00000BD0000FF070000000C0040F06F0000A6
:103CB000000C014010B504200C49896A01430B4AED
:103CC000916200BF00200A49096B490A4902014379
:103CD000074A116300BF04200449896A8143034AEB
:103CE000916200BFFEF746FF10BD000000020040D9
:103CF000001001407047000070B503F079FA0646E5
:103D0000FCF7C0FC05460349FCF7EBFA04462046E5
:103D100070BD00000050C345F0B587B004460D46A5
:103D20001A4880680690069800F03CF80746184844
:103D3000874202D1002007B0F0BD3846FCF7AAFC4C
:103D4000144A154B01910090FCF7BCFB114A5242FA
:103D5000124B03910290FCF703FB05910490FCF7D2
:103D600007FD06463046FCF7A3FC00B220800C4954
:103D70003046FCF779FA0490FCF7B3FC80B20A21D4
:103D80000590FCF7CBF929700120D4E790210020A1
:103D9000FFFF00009A9999999999B93F66E633C057
:103DA00000002041F1B5154801680098FCF7FCFCC3
:103DB00005D31348416B0098FCF700FD01D2114870
:103DC000F8BD0025104E14E0A8194410A0000B49BE
:103DD0000F5839460098FCF7F1FC01D2254608E05F
:103DE00039460098FCF7E0FC01D2264601E0204667
:103DF000E6E7681CB042E7DB2846E1E71800002050
:103E0000981F0020FFFF0000ED070000002805DBE1
:103E1000C206D20E01219140014A11607047000094
:103E200080E100E0002805DBC206D20E01219140AE
:103E3000014A11607047000080E100E0002805DBC6
:103E4000C206D20E01219140014A11607047000064
:103E500000E100E010B5002819DB1A4A03231B0219
:103E6000D21883089B00D2588307DC0EFF23A3409F
:103E70009A438B071B0E8407E40EA3401A43114B91
:103E8000032424021B198408A4001A5118E00E4AC6
:103E900003071B0F083B9B089B00D2588307DC0ECF
:103EA000FF23A3409A438B071B0E8407E40EA34015
:103EB0001A43054B0407240F083CA408A4001A5118
:103EC00010BD000000E100E01CED00E010B500288E
:103ED00019DB1A4A03231B02D21883089B00D2580D
:103EE0008307DC0EFF23A3409A438B071B0E840736
:103EF000E40EA3401A43114B032424021B19840827
:103F0000A4001A5118E00E4A03071B0F083B9B0838
:103F10009B00D2588307DC0EFF23A3409A438B07F4
:103F20001B0E8407E40EA3401A43054B0407240F1D
:103F3000083CA408A4001A5110BD000000E100E0F4
:103F40001CED00E010B5002819DB1A4A03231B0200
:103F5000D21883089B00D2588307DC0EFF23A340AE
:103F60009A438B071B0E8407E40EA3401A43114BA0
:103F7000032424021B198408A4001A5118E00E4AD5
:103F800003071B0F083B9B089B00D2588307DC0EDE
:103F9000FF23A3409A438B071B0E8407E40EA34024
:103FA0001A43054B0407240F083CA408A4001A5127
:103FB00010BD000000E100E01CED00E010B500289D
:103FC00019DB1A4A03231B02D21883089B00D2581C
:103FD0008307DC0EFF23A3409A438B071B0E840745
:103FE000E40EA3401A43114B032424021B19840836
:103FF000A4001A5118E00E4A03071B0F083B9B0848
:104000009B00D2588307DC0EFF23A3409A438B0703
:104010001B0E8407E40EA3401A43054B0407240F2C
:10402000083CA408A4001A5110BD000000E100E003
:104030001CED00E010B5002819DB1A4A03231B020F
:10404000D21883089B00D2588307DC0EFF23A340BD
:104050009A438B071B0E8407E40EA3401A43114BAF
:10406000032424021B198408A4001A5118E00E4AE4
:1040700003071B0F083B9B089B00D2588307DC0EED
:10408000FF23A3409A438B071B0E8407E40EA34033
:104090001A43054B0407240F083CA408A4001A5136
:1040A00010BD000000E100E01CED00E010B50028AC
:1040B00019DB1A4A03231B02D21883089B00D2582B
:1040C0008307DC0EFF23A3409A438B071B0E840754
:1040D000E40EA3401A43114B032424021B19840845
:1040E000A4001A5118E00E4A03071B0F083B9B0857
:1040F0009B00D2588307DC0EFF23A3409A438B0713
:104100001B0E8407E40EA3401A43054B0407240F3B
:10411000083CA408A4001A5110BD000000E100E012
:104120001CED00E010B509A0FDF7A6FA17A119A033
:10413000FDF7A2FA1DA11FA0FDF79EFA23A126A05C
:10414000FDF79AFA2A48FDF797FA10BD2A2A2A2A7B
:104150002A2A2A2A2A2A2A2A2A2A2A2A2A2A2A2ABF
:104160002A2A2A2A2A2A2A2A2A2A2A2A2A2A2A2AAF
:104170002A2A2A2A2A2A2A2A2A2A2A2A2A2A2A2A9F
:104180002A2A2A2A2A2A2A2A2A0D0A005054313099
:10419000300000002A204E616D65202020203A204A
:1041A0002020202025730D0A0000000056312E30FB
:1041B000000000002A2056657273696F6E203A2055
:1041C0002020202025730D0A0000000044494E479E
:1041D000204A4945000000002A20417574686F722A
:1041E00020203A202020202025730D0A0000000006
:1041F0008C78000000BF3148406808210840C008A2
:10420000002815D000BF2D4880680840C00800284D
:104210000ED088012A4909694140294A116100BF2D
:1042200000BF08202549886000BF0120254908708B
:1042300000BF2248406804210840800800280ED0B2
:1042400000BF1E48806808408008002807D000BFD3
:1042500004201A49886000BF01201B49087000BF74
:104260001648406810210840000900280ED000BF01
:104270001248806808400009002807D000BF1020BD
:104280000E49886000BF01201049087000BF0B482C
:10429000406840210840800900280ED000BF074830
:1042A000806808408009002807D000BF40200349EB
:1042B000886000BF01200649087070470010014067
:1042C000800C0040DB1F0020D81F0020D91F0020D9
:1042D000DA1F002000B587B0202000900220019056
:1042E0002120029004200390152004903320059093
:1042F0000020069069462748FFF746FA00BF0820CD
:104300002449886000BF00BF084640680821084370
:104310002049486000BF00BF0420886000BF00BF84
:1043200008464068042108431A49486000BF00BF9E
:104330001020886000BF00BF084640681021084375
:104340001449486000BF00BF4020886000BF00BF24
:1043500008464068402108430E49486000BF0220DB
:10436000002805DBC206D20E012191400A4A1160E5
:1043700000BF02210846FFF721FE0220002806DBCD
:10438000C206D20E01219140034A803A116000BF5B
:1043900007B000BD0010014080E100E00146C88880
:1043A0007047034619609A800020D8801881588190
:1043B0007047F8B504460E461546E088A84200DA74
:1043C000E5882F460CE021892068405C3070761C1F
:1043D0002089401C2081A1882089FBF79FFE218134
:1043E00038467F1E0028EED1E088401BE08028463A
:1043F000F8BDF8B504460E461546E0884019A18878
:10440000884203DDA088E188401A85B22F460CE07F
:104410003078628921688854761C6089401C6081EC
:10442000A1886089FBF77AFE618138467F1E0028EB
:10443000EED1E0884019E0802846F8BD2849086898
:10444000010C0140002903D14106490E254A516162
:1044500023494868010C4140C9B2FF2904D14106F3
:10446000490E204A4032916200211E4A9161052185
:104470004906D1601146896A80221143194A916226
:104480001949C9680F2292041143174AD1600021CB
:10449000144A51621146496A052212021143114A17
:1044A00051627D20000100E0401E0028FCD1AA21BD
:1044B0000C4A91631146C96892041143094AD160BC
:1044C0000A49096801221143084A116011464968E6
:1044D000FE221140054A51600321D2045160704709
:1044E00040FBFF1F00020040C00C004000A801403C
:1044F000C0200749C968C02291430143044AD160E2
:1045000000BF04480069012108430249086170475F
:104510000002004000E000E010B50E48FFF7DBFAB3
:10452000012808D10B48FFF7BFFA012803D100BFCB
:1045300008480069C4B20748FFF7D4FA012807D138
:104540000448FFF7C0FA012802D10248FFF73CF9FE
:1045500010BD0000001C014000BF08480068400872
:1045600040000649086000BF00BF084600680221FD
:1045700088430249086000BF7047000000200140E6
:1045800008B500BF1A488068FF2101310840000AC1
:10459000002809D000BF16480069C0B2009001226F
:1045A00069461448FFF725FF00BF114880680221C3
:1045B0000840400800281AD0012269460E48FFF73B
:1045C000F8FE00280AD06946087809494969490A6D
:1045D00049020143064A516100BF08E000BF044898
:1045E0004068022188430249486000BF00BF08BDFF
:1045F00000200140D0220020C422002000B58DB050
:10460000142108A8FBF712FE1C2101A8FBF70EFEDF
:1046100000200190E1204002029040200390002001
:1046200004900590032006900020079001A91B48E4
:10463000FFF7D2F800BF19484068FF210131084355
:104640001649486000BF0846FFF7C1F80B20002854
:1046500005DBC206D20E01219140114A116000BF54
:1046600002210B20FFF7E6FC0B20002806DBC20628
:10467000D20E012191400A4A803A116000BF0C20FD
:1046800008900220099000200A900B900C9008A935
:104690000448FEF7B5FA0DB000BD0000002001404F
:1046A00080E100E0800C004010B50E48FFF713FADF
:1046B000012808D10B48FFF7F7F9012803D100BF03
:1046C00008480069C4B20748FFF70CFA012807D16F
:1046D0000448FFF7F8F9012802D10248FFF774F8FF
:1046E00010BD000000A0014010B51048FFF7F3F91D
:1046F00001280CD10D48FFF7D7F9012807D100BFD9
:104700000A480069C4B221460848FFF7F9F907488A
:10471000FFF7E8F9012807D10448FFF7D4F9012889
:1047200002D10248FFF750F810BD000000A401407C
:1047300070B504460D462046CC300921C901401809
:10474000406D2946426820469047002070BD70B5F4
:1047500004460D46CE20005D022802D0032815D164
:1047600000E000BF688801280FD10021D42001514A
:104770002046CC300921C9014018406D2946826885
:1047800020469047204600F070F804E02946204675
:1047900000F01DF800BF00BF70BDF8B506460C461E
:1047A000154600272B46224600213046FCF785FAA5
:1047B0003846F8BDF8B506460C46154600272B4688
:1047C000224600213046FCF7DDFA3846F8BD70B5C8
:1047D00004460D4680212046FCF7AEFA0021204613
:1047E000FCF7AAFA204601F0D1F970BDF8B50446ED
:1047F0000E46154600272046CC30992189004018E6
:1048000005622046CC304018C5610321CD200155FA
:104810002B46324600212046FCF74FFA3846F8BDB9
:1048200070B5044600250521CD20015500231A4608
:1048300019462046FCF741FA204601F0A7F9284620
:1048400070BDF8B504460E4615460027F820055100
:10485000F42005510221CD2001552B46324600217E
:104860002046FCF78FFA3846F8BD70B5044600259F
:104870000421CD20015500231A4619462046FCF795
:1048800081FA204601F082F9284670BD70B50546D0
:104890000E46002E60D12C46D834CD20405D022833
:1048A0004FD1A168E069884217D9A168E069401A30
:1048B000E061E878012803D1A168E0684018E06071
:1048C000A08B82B22846E168FFF774FF00231A46E6
:1048D00019462846FCF7F1F933E0A168206AFBF796
:1048E00007FC002915D1A168206A884211D3616AAA
:1048F000206A88420DD2002211462846FFF75AFF4F
:104900000020606200231A4619462846FCF7D5F9B4
:1049100017E02846CC300921C9014018406DC06815
:1049200000280BD0CE20405D032807D12846CC308C
:104930000A468018406DC168284688472846FFF718
:104940006FFFD220405D01281BD1284600F0E0FA1D
:104950000021D220415514E02846CC300921C9015C
:104960004018406D406900280BD0CE20405D0328E0
:1049700007D12846CC304018406D31464269284660
:104980009047002070BD70B505460E46002E3DD103
:104990002846CC30992189004418CD20405D032859
:1049A00049D1A168E069884217D9A168E069401A35
:1049B000E061E878012803D1A168E0684018E06070
:1049C000A368E069984201D2E06900E0A06882B281
:1049D0002846E168FFF7E1FE2DE02846CC300921AA
:1049E000C9014018406D006900280BD0CE20405D01
:1049F000032807D12846CC300A468018406D01694B
:104A0000284688472846FFF730FF14E02846CC3078
:104A10000921C9014018406D806900280BD0CE20C3
:104A2000405D032807D12846CC304018406D314600
:104A3000826928469047002070BD014600207047DB
:104A400070B504460D46E888012804D02946204662
:104A5000FFF7BDFE19E0CE20005D022802D003283A
:104A60000DD105E0012209492046FFF7EAFE0BE0DF
:104A700001222146CC312046FFF7E3FE04E029461F
:104A80002046FFF7A4FE00BF00BF70BD2820002015
:104A9000F8B504460E46F0880090708800120300B6
:104AA00001F0AFFD088605112586867C8186A078F9
:104AB0002146CC310923DB01C918C96D0A68694652
:104AC0009047054679E0A0782146CC310923DB01E7
:104AD000C918496D8A6A694690470546022169707E
:104AE0002146CC310922D20189180D6665E0B078E3
:104AF000030001F086FD0604101C2834404CA07809
:104B00002146CC310923DB01C918C96D4A686946C1
:104B10009047054640E0A0782146CC310923DB01CF
:104B2000C918C96D8A6869469047054634E0A0787F
:104B30002146CC310923DB01C918C96DCA68694611
:104B40009047054628E0A0782146CC310923DB01B7
:104B5000C918C96D0A696946904705461CE0A078E6
:104B60002146CC310923DB01C918C96D4A69694660
:104B70009047054610E0A0782146CC310923DB019F
:104B8000C918C96D8A6969469047054604E03146EF
:104B90002046FFF71CFEF8BD00BF0EE03146204660
:104BA000FFF715FEF7E731462046FFF710FEF2E764
:104BB00031462046FFF70BFEEDE700BF6846008850
:104BC000002812D0F08800280FD0F08869460988A4
:104BD000884202DD6846008800E0F088009069465F
:104BE0000A8829462046FFF72CFE00BFD3E701467E
:104BF000002002E0421CD0B2491C0A78002AF9D1F8
:104C0000704710B50246282048431346CC339924F8
:104C1000A4001B19C018008B80B210BD70B50446EB
:104C20000D46CE20005D022802D0032814D100E0FA
:104C300000BF01200C490860D4200059002805D08D
:104C40000846006802210843074908600222064915
:104C50002046FFF7F6FD04E029462046FFF7B7FDA2
:104C600000BF00BF70BD00002C200020F8B5044636
:104C70000D4617460026002C1ED02046FFF7B7FF32
:104C80004000801C38803A783046711CCEB22A54DD
:104C900003223046711CCEB22A540AE022783046F4
:104CA000711CCEB22A54641C00223046711CCEB254
:104CB0002A5420780028F1D1F8BDFFB581B0044610
:104CC00015461E460A9F204600F054FD2046FFF779
:104CD000B4FE2046CC300921C90140184665204663
:104CE000CC30401887652046CC304018C56520463A
:104CF0000299FCF7DFFB2146CC310922D201891849
:104D0000896D08688047204600F006FD05B0F0BDBB
:104D100010B504462046CC300922D2018018406DDF
:104D2000016A20468847002010BD10B50446204681
:104D3000CC300922D2018018406D416A2046884754
:104D4000002010BD7CB505460024284601F02FFA4E
:104D5000002870D0284601F035FA0190019800280B
:104D600000D17CBD01980003C00F002803D0284665
:104D7000FCF792F9044301984003C00F002803D0C8
:104D80002846FCF7EFF8044301988007C00F00287D
:104D90000AD000200090022100988843801C0090D7
:104DA0000098E968486100BF0198C00F002803D04F
:104DB0002846FCF7F9F9044301980005C00F0028C4
:104DC00003D02846FCF79EFA044301980007C00F61
:104DD000002803D02846FCF77FFA04430198C00658
:104DE000C00F002803D02846FCF716FA04430198A8
:104DF000C004C00F002803D02846FCF7D7FA0443AC
:104E000001988004C00F002803D02846FBF7E0FF7C
:104E100004430198C002C00F002803D02846FCF7C5
:104E200097FB044301988002C00F002803D0284656
:104E3000FCF7A4FB0443204693E7000010B50246AC
:104E4000CC3225235B01D218127F0A700246CC3285
:104E5000174BD21852784A700246CC32D218937847
:104E60000246CC32124C1219D27812029A184A8099
:104E70000246CC322346D21813790246CC3212199C
:104E8000527912029A188A800246CC322346D218EE
:104E900093790246CC321219D27912029A18CA803A
:104EA000CB88FC2213500123CD22135410BD0000E7
:104EB000BC04000010B50446002310221946204609
:104EC000FBF7C6FE0023102280212046FBF7C0FE20
:104ED0000121CE200155A0782246CC320923DB01E6
:104EE000D218926D51688847002010BD10B5044655
:104EF0002146CC310922D2018918896D0869804781
:104F0000CF20015DCE20015503210155002010BDA9
:104F100001460348026808694260002070470000AB
:104F2000F01F002010B504462046CC300921C901ED
:104F30004018406DC069002807D02046CC300A4692
:104F40008018406DC16920468847002010BD70B5AB
:104F500004460D46A888002821D1E88800281ED1E3
:104F6000A8784606760ECE20005D032804D1294697
:104F70002046FFF72CFC16E0D0200655314620468F
:104F8000FBF7C6FE2046FFF770FC002E03D002217F
:104F9000CE20015507E00121CE20015503E029462E
:104FA0002046FFF714FC70BD70B504460D46204640
:104FB000CC300921C9014018406D294602682046BD
:104FC00090472146CC310922D2018918896D886821
:104FD0008047002070BD000070B504460D46A878DB
:104FE0003049087008460078012804DD294620462B
:104FF000FFF7EDFB54E0CE20005D022802D003282D
:1050000048D117E02748007800280FD025480178BC
:10501000CC2001550321CE2001552248017820469D
:10502000FFF7C2FF2046FFF720FC02E02046FFF713
:105030001CFC34E01B48007800280FD10221CE2050
:10504000015518480178CC200155164801782046B2
:10505000FFF76EFB2046FFF708FC1AE0CC20005D4E
:1050600010490978884211D0CC20015D2046FFF715
:105070005FFB0C480178CC2001550A480178204696
:10508000FFF792FF2046FFF7F0FB02E02046FFF714
:10509000ECFB04E029462046FFF799FB00BF00BF68
:1050A00070BD000030200020F8B504460D460026F3
:1050B0006888012810D10121D42001512046CC302C
:1050C0000921C9014018406D294682682046904751
:1050D0002046FFF7CAFB3FE0688802283CD12879C8
:1050E000002839D1206940680090A8880612330052
:1050F00001F087FA0622040A10161C22702100987B
:105100008843103000901DE07021009888432030C3
:10511000009017E07021009888433030009011E033
:10512000702100988843403000900BE07021009877
:1051300088435030009005E070210098884310307B
:10514000009000BF00BF0548009901600121D220F6
:1051500001552046FFF789FBF8BD0000F01F002035
:105160001CB5044669462046FFF768FE684600788D
:10517000C006C00E002804D0012807D002280FD195
:1051800009E06946204600F017F812E0694620461B
:1051900000F01AF90DE06946204600F047F808E0F3
:1051A000684600788022104001462046FBF7C4FD87
:1051B00000BF00BF00201CBD70B505460C46002690
:1051C0006078030001F01DFA0A1A24291F290B0632
:1051D0002915102921462846FFF75AFC22E02146CE
:1051E0002846FFF7B4FE1DE021462846FFF7F4FEEF
:1051F00018E021462846FFF723FC13E02146284605
:10520000FFF70CFD0EE021462846FFF74DFF09E0B1
:1052100021462846FFF79BFA04E021462846FFF77F
:10522000D6FA00BF00BF304670BD0000F8B5054695
:105230000E460027347930786021084020280BD1B1
:105240002846CC300921C9014018406D314682689A
:10525000284690473846F8BD7078002863D001286A
:1052600031D003286FD1CE20405D022802D0032820
:1052700022D108E0002C05D0802C03D021462846FE
:10528000FBF75AFD1DE07088002807D1002C05D0DF
:10529000802C03D021462846FBF74EFD2846CC3013
:1052A0000921C9014018406D31468268284690475F
:1052B0002846FFF7DAFA04E031462846FFF787FA76
:1052C00000BF00BF7AE0CE20405D022802D0032854
:1052D00022D108E0002C05D0802C03D0214628469E
:1052E000FBF72AFD1DE07088002814D1002C0FD098
:1052F000802C0DD021462846FBF784FC2846CC3074
:105300000921C9014018406D3146826828469047FE
:105310002846FFF7AAFA04E031462846FFF757FA75
:1053200000BF00BF4AE0CE20405D022802D0032823
:105330003CD109E0002C05D0802C03D02146284622
:10534000FBF7FAFC37E038E080202040802811D1BC
:105350006106490E282041432846D8300818807835
:10536000002803D001201749086019E000201549E2
:10537000086015E080202040002811D128206043DB
:105380002946CC319922920089184018807800284B
:1053900003D001200B49086002E0002009490860A1
:1053A000022208492846FFF74CFA04E03146284615
:1053B000FFF70DFA00BF00BF00E000BF00BF384696
:1053C00049E700002420002070B504460D46002661
:1053D000CE20005D03281AD12879012812DC20464E
:1053E000CC300921C9014018406D29468268204609
:1053F0009047E888002809D1002E07D12046FFF702
:1054000034FA03E029462046FFF7E1F904E0294693
:105410002046FFF7DCF900BF00BF304670BD10B575
:105420000446CE20015DCF2001550421CE20015538
:105430002146CC310922D2018918896DC86880477C
:10544000002010BD70B505460C462246024903A057
:10545000FFF70CFC004870BD8C30002056435020F4
:10546000436F6E66696700007047704702461220FE
:105470000880014870470000F02000207047704706
:10548000704770477047000070B505460C462246CD
:10549000024903A0FFF7EAFB004870BD8C300020F2
:1054A00056435020496E7465726661636500000062
:1054B00002460420088001487047000002210020B5
:1054C00070B505460C462246024903A0FFF7CEFB05
:1054D000004870BD8C300020464D5348000000004D
:1054E00070B505460C462246024903A0FFF7BEFBF5
:1054F000004870BD8C300020464D534820566972DC
:105500007475616C20436F6D506F727420696E20EA
:105510004653204D6F64650070B505460C46422029
:105520002080FCF70DFA014870BD00000621002024
:1055300002463C2008800148704700007820002087
:1055400030B585B00020302140220346454CA46987
:10555000454D2C4015040D431D4305432C43414D3F
:10556000AC6100BF00BF284680690121084329467D
:10557000886100BF00BF00BF3A48806980210840B1
:10558000C0090028F7D00220384909688908890035
:105590000143364A116000BF00203249C968072222
:1055A0001202914301432F4AD16000BF10131146EC
:1055B000C96807221204914301432A4AD16000BFFF
:1055C000C0001146C9680722D20491430143254A0D
:1055D000D16000BF02201146C968C908C900014353
:1055E000D16000BF224823490860002004901F209A
:1055F0000190214802900120039001A91F48FDF766
:1056000007FA00BF01201D49086100BF00BF08461E
:10561000C068012108431949C86000BF182000284C
:1056200005DBC206D20E01219140154A116000BF70
:1056300002211820FEF70EFC1820002806DBC20607
:10564000D20E012191400E4A803A116000BF0D48F0
:105650000D4B0E4A012100900D48FFF72EFB05B0BF
:1056600030BD00000002004085FF80FF00100040B8
:105670000090D00310000020E703000000B40140B8
:1056800080E100E0482100204C200020D4200020B0
:10569000DC2A002010B51B48806A02210843194902
:1056A000886218484030406B042108431549403156
:1056B00048630846406B1021084312494031486353
:1056C0000846406B012108430E49403148630846B3
:1056D000406B082188430B49403148630846406BC2
:1056E000022188430749403148630846806B891589
:1056F00008430449403188637D20C000FBF7CAFF9E
:1057000010BD00000002004010B50248FFF71AFB70
:1057100010BD0000DC2A002010B50446122000282D
:1057200005DBC206D20E012191400F4A116000BF75
:105730001220FEF777FB02211220FEF7B7FC1220A1
:10574000002805DBC206D20E01219140074A1160F4
:1057500000BF074800F0FBFD7D20C00000F018F8F6
:10576000034800F0E8FD10BD80E200E000E100E049
:10577000DC2A002010B50446FFF78CFF01229202BC
:1057800000210248FAF74BFD10BD00000000025056
:1057900010B504467D21C9006143084600F001F8B8
:1057A00010BD10B504462046FBF780FF10BD70B554
:1057B00004460025204600F0C1F81420FFF7E8FF5A
:1057C000284670BD70B586B00446002600200590BE
:1057D0000490039002900021C820005901602069C4
:1057E000006804900321C902049888430490049936
:1057F00020690160E07A012814D10321204600F0DD
:10580000C7FC4020E1684862039880B20121090585
:10581000401803900398000C000440300390039854
:10582000E16888621021204600F07CFC204600F0F0
:1058300053FC00212069016120694161491E2069F2
:10584000816100212069C16100252CE0A90020466A
:1058500014304058006805900598C00F00280DD0FE
:10586000002005900121890705988843401805907C
:10587000C910059888434018059001E00020059064
:10588000AA00204614308058059901600021AA0022
:105890002046143080580161FF21AA0020461430B0
:1058A000805881606D1C6078A842CFD800252CE01C
:1058B000A900204650304058006801900198C00F60
:1058C00000280DD00020019001218907019888430C
:1058D00040180190C910019888434018019001E0D8
:1058E00000200190AA0020465030805801990160A4
:1058F0000021AA002046503080580161FF21AA00F3
:1059000020465030805881606D1C6078A842CFD806
:1059100000200290FF210131029888434018029034
:10592000206900690299884308432169086120467B
:1059300000F076FB304606B070BD0000F8B50446B6
:10594000002600250020009000BF0320FFF729FF5C
:10595000E06800690090681C05461349884201D937
:105960000020F8BD0098C00F0028EED00025009858
:1059700040084000401C00900098E168086100BFAA
:10598000E06800690090681C05460749884200D914
:1059900004E00098C007C00F0028F1D100BF032029
:1059A000FFF7FFFE3046DCE7400D030008B5014677
:1059B000002000220092009A520852000092CA6809
:1059C0009268009B1A43CB689A6008BD0EB50146E9
:1059D0000020002200920A69926802924A691268C5
:1059E0000192029A5207920F002A06D0012A05D08E
:1059F000022A09D0032A0DD101E000BF00BF019A9D
:105A0000D20AD20201920AE0019AD20AD202D21C30
:105A1000019204E0019AD20AD202019200BF00BFB3
:105A2000019B4A691360FF230133009A9A43D218FD
:105A300000920A695268009B9A431A430B695A60A4
:105A40000EBDFCB5024600200024002501950095FE
:105A50004D78012D4FD153691D6801951D69009541
:105A60004D69002D0AD1009DED09ED01009501263B
:105A7000F604009DB543AD1900951CE08E684D6994
:105A8000B5420AD98D684D61009DED09ED010E7A90
:105A90007606760E3543009507E0009DED09ED0191
:105AA0000E7D7606760E354300950126F604009DA0
:105AB000B543AD190095009D1D610126B606019DF7
:105AC000B543AD190195019D6D006D087601AD19C5
:105AD0000195019D1D60D578002D56D14D69002D91
:105AE00053D00E780125B5402C4315696D6B2543C5
:105AF0001669756349E00D78AE0015465035AD590D
:105B00002D6801950D78AE0015465035AD592D69BB
:105B100000954D69002D0ED1009DED09ED010E7A25
:105B20007606760E354300950126F604009DB543B2
:105B3000AD1900950FE08D684D61009DED09ED01F7
:105B40000E7A7606760E354300950126F604009D02
:105B5000B543AD1900950D78AF0015465035ED5998
:105B6000009E2E610126B606019DB543AD19019533
:105B7000019D6D006D087601AD1901950D78AF009E
:105B800015465035ED59019E2E60FCBD08B500212B
:105B90000091032252070099914389180091012234
:105BA000D20400999143891800910099C909C9014B
:105BB00018310091009A016D0A6108BD7CB502465A
:105BC00000200024019400944C78012C0ED10C7814
:105BD000A500144614346359009C240C24040E7848
:105BE0000125B540ADB22C4300940EE00C78A50021
:105BF000144650346359009CA4B20E780125B54078
:105C00002D042D0C2D042C4300941C680194019C40
:105C10002404E40F002C2AD1019CE40AE4020D893B
:105C20006D056D0D2C4301940325AD04019CAC431F
:105C3000CD78AD040326B60435402C4301940F25DE
:105C4000AD05019CAC43CD88AD050F26B6053540AA
:105C50002C43019401252D07019CAC436419019448
:105C60006D13019CAC4364190194019C1C60146980
:105C7000E469009D2C431569EC617CBD38B5034691
:105C80000020002400944C78012C05D10C78A5004C
:105C90001C461434625904E00C78A5001C465034AC
:105CA00062591468009401256D05009CAC43009472
:105CB000CC78032C02D0CC78022C05D101252D07FD
:105CC000009CAC4364190094009C146038BD3CB542
:105CD000024600204B78012B22D10B789C00134602
:105CE00014331B591B680193019BDB0F002B0DD054
:105CF000002301930124A407019BA3431B190193D3
:105D0000E410019BA3431B19019301E000230193BD
:105D10000B789D00134614335B59019C1C6022E0F4
:105D20000B789C00134650331B591B680093009B53
:105D3000DB0F002B0DD0002300930124A407009B50
:105D4000A3431B190093E410009BA3431B1900936A
:105D500001E0002300930B789D00134650335B59FC
:105D6000009C1C6000BF3CBD38B503460A460020BD
:105D7000002400945478012C19D11478A5001C46F5
:105D8000143461590C680094009CE40F002C05D079
:105D90000125AD07009CAC436419009401256D05F5
:105DA000009CAC4364190094009C0C600EE01478D5
:105DB000A5001C46503461590C68009401256D05FE
:105DC000009CAC4364190094009C0C6038BD00003A
:105DD000F0B585B005460C460020039000260290E1
:105DE0000190607801287DD1207881002846143008
:105DF00040580068029020788100284614304058AE
:105E000000690190606900280BD10198C00CC004A2
:105E100001907649019808400121C9044018019079
:105E200023E00198C00CC00461694903490B084391
:105E300001906269521EA368D0181946FAF758F902
:105E4000C0046A49C94308400746C943019808404D
:105E500038430190E078012807D1032149070198D0
:105E60008843012149074018019020788200284684
:105E70001430805801990161E07801280BD06069E5
:105E8000002808D021780120884006462869406B08
:105E9000304329694863E078012814D12869806873
:105EA00000900098C005C00F002806D101214907C5
:105EB000029888434018029005E0012109070298E2
:105EC00088434018029001218906029888434018AF
:105ED0000290029840004008490140180290207842
:105EE000820000E00FE028461430805802990160DB
:105EF000E078012876D1A08A83B222782846E1682A
:105F000000F0F0F96EE020788100284650304058CB
:105F1000006802902078810028465030405800697F
:105F20000190606900280FD10198C00CC004A168DD
:105F30004903490B084301902C490198084001216D
:105F4000C9044018019020E0A268521E63699818A5
:105F5000A168FAF7CDF8C0042449C94308400746B0
:105F6000C94301980840384301900198C000800D52
:105F7000A16848434003400B0199C90CC904084378
:105F8000019001984003400B606120788200284610
:105F90005030805801990161E07801280FD1607973
:105FA000002806D001214907029888434018029032
:105FB00005E0012109070298884340180290012159
:105FC00089060298884340180290029840004008D1
:105FD00049014018029020788200284650308058AD
:105FE00002990160039805B0F0BD0000FFFF07E0D3
:105FF00008B5002100910949C26851610099490022
:1060000049080122D20789180091120D0099914385
:10601000891800910099C268916108BDFFFFFFBF18
:1060200038B50446002500200090E16888612048CA
:10603000E16848612046FFF7DBFFE078002804D1E3
:10604000102100988843103000900121C902009867
:1060500088434018009049000098884340180090F9
:1060600049000098884340180090490100988843EF
:10607000401800904900009888434018009008217B
:1060800000988843083000904904009888434018DD
:10609000009049000098884340180090E0688069AB
:1060A000009988430843E1688861284638BD0000AC
:1060B000FFFFFFBF08B50146002000220092009AB2
:1060C00052085200521C0092CA689268009B1A4300
:1060D000CB689A6008BD0000F8B50446002500268C
:1060E0000020009000981021884310300090009804
:1060F000E168086100BFE06800690090701C064616
:106100000749884200D904E00098C006C00F002863
:10611000F1D100BF0320FFF744FB2846F8BD000083
:10612000400D0300F8B504460D4600260027002068
:1061300000900098202188432030009000981F2173
:1061400089018843A9011F22920111400843009050
:106150000098E168086100BFE06800690090781C61
:1061600007460749884200D904E000988006C00F1E
:106170000028F1D100BF0320FFF713FB3046F8BD24
:10618000400D03000146C8684069C007C00F704752
:1061900008B5026912680092009A920892008B0773
:1061A0009B0F1A430092009B0269136008BD00B563
:1061B00002461046FFF7E6FF012801D0012000BD8E
:1061C0000020FCE701460020CA685069CA6892694D
:1061D000104070470146086982690869C069024039
:1061E00090B270470246106981691069C069014028
:1061F000080C704710B502468C00134650331B59EB
:10620000986813695B69184010BDFEB505460C46D9
:1062100016460027F01CC117890F09188910019133
:106220008C204059009000BF06E000990868214684
:10623000FAF711F8241D7F1C01988742F5D32046F8
:10624000FEBDF0B502460D46002300200024D470A8
:10625000012494704024948005231B070124D472E8
:1062600008241470042454709C15D48002241472E1
:10627000D360A4021E191661002112E04C01092608
:1062800036029E19A6198F0014461434E6514C01AB
:106290000B2636029E19A6198F0014465034E6517B
:1062A000491C54788C42E9D8002109E00C030126EE
:1062B00036039E19A6198F0014468C34E651491CEA
:1062C00014788C42F2D8072464021E19C824A65000
:1062D000F0BD70B505460E4600243220FFF758FA8F
:1062E000204670BDFFB583B004460D46164600201B
:1062F000029001900090E078002819D10699C81CFE
:10630000C117890F091889100191B10020468C30FE
:1063100047580020009007E02846F9F792FF3860C0
:106320002D1D0098401C0090019900988842F3D3DD
:10633000029807B0F0BD08B50169496800910222D2
:10634000009991430091009A01694A6008BD08B51F
:10635000016949680091022200999143891C0091CA
:10636000009A01694A6008BD30B587B0044600252F
:106370001C216846F9F75AFF00200090E1204002F6
:10638000019040200290002004900390032005908B
:1063900000200690002C5DD0324800684B21C901D6
:1063A000401A08D030494018002808D0E1210902DD
:1063B000401A0CD107E04B20C001019009E0E12018
:1063C0000002019005E0E1204002019001E0022579
:1063D00000BF00BF2348807906280FD0072804D0CB
:1063E000082805D009280CD105E0002002900AE019
:1063F0004020029007E08020029004E0C02002903C
:1064000001E0022500BF00BF16484079002804D0F3
:10641000012805D0022809D105E00020049007E0FA
:106420001020049004E02020049001E0022500BF29
:1064300000BF0C480079002802D0022807D102E0F2
:106440000020039005E0FF200130039001E00225C9
:1064500000BF00BF69460548FDF7BEF9284607B0F2
:1064600030BD0000B82000208044FFFF0020014024
:1064700070B505460C461646042D16D008DC002DD6
:106480000FD0012D0ED0022D0DD0032D4DD10BE0DC
:10649000202D0BD0212D2BD0222D44D0232D44D1C3
:1064A00042E043E042E041E040E03FE02078214923
:1064B0000860084600686178090208431D490860C1
:1064C00008460068A178090408431A49086008468C
:1064D0000068E178090608431649086020790871C8
:1064E00060794871A07988710120FFF73DFF1DE0B8
:1064F0001048007820700F4800880004000E60707B
:106500000C4800680002000EA0700A480068000EE7
:10651000E0700848007920710648407960710548AC
:106520008079A07102E001E000E000BF00BF002020
:1065300070BD0000B820002070B505460C4602482A
:10654000FDF745F9204670BD00200140024608468F
:10655000704700B5FEF700F8002000BD10B501221D
:10656000920207490748FDF71CFF012292020649E3
:106570000648FDF716FFFEF741F8002010BD0000A9
:10658000DC220020C4220020DC260020D0220020B3
:1065900010B5024B024A00F00BF910BD5D7100000E
:1065A000642100202021020C01D010211046020A93
:1065B00001D010460839020901D01046091F82088F
:1065C00001D01046891E420801D0881E7047081A63
:1065D0007047F8B582B28BB2040C0D0C10465843CC
:1065E000002126465E43370C360480197941164651
:1065F0006E43370C36048019794126466E4389195B
:10660000F8BD30B47446641E2578641CAB4204D3D4
:10661000635D5B00E31830BC18471D46F8E702E0F5
:1066200008C8121F08C1002AFAD17047704700201D
:1066300001E001C1121F002AFBD17047F0B51FB461
:1066400086B00998089A030D0021024314D05148DE
:10665000514A1818504305141198012810981AD05F
:10666000281A401C00264D4F4D4900960191049078
:10667000002812DA444211E01198012449A30128AC
:1066800001D11098C1430698119A84600360C260DA
:1066900041600BB0F0BD4042E4E704462105002014
:1066A0003F4A001C51410391029012E0E00707D0DD
:1066B00032463B4601990098F9F704FF019100909A
:1066C00032463B4610461946F9F7FCFE06460F4691
:1066D0006410002CEAD10498039B0028029A0999BF
:1066E000089806DAF9F7EEFE019B009AF9F7EAFE40
:1066F00005E0F9F74FFF019B009AF9F74BFF0446BD
:106700000E460022284BFAF757F903D80020C04361
:10671000014607E00022254B20463146F9F720FECE
:10672000FAF72AF9102409E0002C0ADB0A220023D8
:10673000F9F708FD079B30321A55641E02460A43DA
:10674000F2D11122641C079B121B1C19119B012BF7
:1067500003D0012308430ED10AE0084304D01120DE
:1067600010900020119077E71098151A6D1E0BE01D
:106770001098824202DD00236D1C03E0824201DAA0
:1067800000236D1E002BEED0069811998260C16027
:1067900030C07EE701FCFFFF104D000000001440F8
:1067A0000000F03F300000000000F0430000E03F38
:1067B000FFB597B00646002518E2252877D10024BA
:1067C0002746FD49049400E00443761C32780120FA
:1067D000203A90400842F7D130782A280ED0022281
:1067E000307801463039092916D804990A235943CB
:1067F000303940181443761C0490F1E7189802C809
:1068000004911890002904DA01204003044348420F
:10681000049002200443761C30782E2814D10420E2
:1068200004437078761C2A2809D11898761C80C8F1
:10683000189009E00A214F43303FC719761C307881
:10684000014630390929F5D930786C2810D006DC9A
:106850004C281AD068280ED06A2817D104E0742872
:1068600013D07A2812D110E00120400504430CE037
:106870000121090501E0032109050C4371788142DA
:1068800003D1012000052418761C761C3078119065
:1068900066280BD013DC58287DD009DC00287BD07B
:1068A0004528F6D04628F4D047281AD1A5E118E0AB
:1068B000632835D0642870D0652812D19DE17028F6
:1068C0006CD008DC6728F1D069287BD06E280DD009
:1068D0006F2806D1BAE073282ED0752871D0782899
:1068E00059D01A9A199990476D1C7EE16002400FA9
:1068F000022809D003280DD00428189801680DD06B
:106900000D60001D189070E11898EA1701680D607D
:106910004A60F6E7189801680D80F2E70D70F0E71D
:1069200018986A4601781172001D18900020507264
:1069300002A80090012005E0189802C818900020D5
:106940000091C04361070DD5002101E00199491C68
:106950000191B94212DA8142F8DB009A515C0029B8
:10696000F4D10BE0002101E00199491C0191814221
:10697000FADB019A0099895C0029F5D10199049804
:106980001A9B471A21463846199A00F097FA01993E
:10699000401945180BE04FE02CE113E04EE0009861
:1069A00000990078491C00911A9A1999904701980A
:1069B000401E0190401CF2D1214638461A9B199A7C
:1069C00010E137E00A200021009001916002410FA0
:1069D000022907D0189A01CA1892C21794460329AF
:1069E00008D00AE01898C01DC108C90005C918914F
:1069F000944607E000B2C2179446042902D140B27F
:106A0000C1178C4600226146944506DA0A460021E9
:106A1000404291418C462D2102E0210504D52B21D5
:106A20006A461173012103E0E10701D02021F7E755
:106A3000029155E00A200AE0102008E010200090A2
:106A40000021042004430191082703E008200021CD
:106A5000019100906002410F022907D0189A01CAE3
:106A6000189200229446032908D008E01898C01D07
:106A7000C108C90005C91891944603E080B20429F1
:106A800000D1C0B200210291210729D511997029A6
:106A900006D0009A1021019B4A401A4305D00EE00F
:106AA00040216A461173012108E06146014306D086
:106AB00030216A4611731199517302210291009A93
:106AC0000821019B4A401A430AD16146014301D182
:106AD000610705D530216A46117301217F1E02919D
:106AE0001199582904D035A10E910DA90D910DE0F1
:106AF00037A1F9E76146019B009AF9F723FB0E9B4A
:106B00008C469B5C0D9A521E0D9213706146014398
:106B1000F0D10D9805A9081A20300190600703D51F
:106B200001200004844300E001270198874201DD31
:106B3000381A00E0002001990090411802980918C5
:106B40000498401A0490E00306D421461A9B199A2F
:106B5000049800F0B3F94519002706E003A81A9A33
:106B6000C05D199990476D1C7F1C02988742F5DB28
:106B7000E0030CD521461A9B199A049800F09EF95F
:106B8000451904E01A9A3020199990476D1C009914
:106B9000481E00900029F5DC08E00D980D9900785A
:106BA000491C0D911A9A199990476D1C0199481E1C
:106BB00001900029F1DC63E1092801003031323312
:106BC0003435363738396162636465660000000029
:106BD0003031323334353637383941424344454613
:106BE0000000000000F05AF94519761C30780028A2
:106BF00000D0E2E528461BB0F0BD600700D40627B0
:106C00001898C01DC108C90048680A680831C30F38
:106C1000DB071891190001D09CA108E0210501D5DE
:106C20009BA104E0E10701D09AA100E09AA14300F2
:106C300011985B08109165280CD006DC452809D016
:106C400046281DD0472841D141E0662818D0672842
:106C50003CD13CE00021112F01DB112000E0781C29
:106C60000191009008A911A8FFF7E8FC139905917C
:106C70000021119A15927F1C12980197009150E003
:106C80000120C00703900120019008A9009711A8D6
:106C9000FFF7D4FC139A149905920022119B0092DD
:106CA00012981593059A0192002901D0104602E02E
:106CB000791C40180190381A01D5019804E040422F
:106CC000401E0090781C0190C01B029043E0012FF1
:106CD00000DA01270021112F01DD112000E03846E4
:106CE0000191009008A911A8FFF7A8FC139905913C
:106CF000119A0021129815920091019721070CD446
:106D00000599B94201DB019900E00191012904DDF7
:106D1000159A491E515C302906D0B84201DA011D8E
:106D200005DA0121029115E00199491EEDE70028DD
:106D300005DC0099411800910199091A03E0019AB4
:106D4000411C914200DD01910099401A401C0290C3
:106D50000120C0070390200706D4029901988142C0
:106D600002DB0020C043029000206946C87707AFCD
:106D7000012103980337C907884224D002201190CB
:106D80002B201290039800280CDA404203902D200B
:106D9000129007E00A210398F9F7AAF930317F1E13
:106DA000039039701199481E11900029F2DC039864
:106DB0000028EFD1791E1298087030782021084001
:106DC0004530BF1E387006A8C01BC01D0390109828
:106DD0000078002800D00120019941180298C017BE
:106DE0000918039809180498401A401E0490E003FB
:106DF00006D421461A9B199A049800F05FF84519A9
:106E000010980078002803D01A9A199990476D1CA1
:106E1000E00324D521461A9B199A049800F04EF8F5
:106E200045191CE00098002807DB00990598884266
:106E300003DD1598405C199901E0199930201A9AE0
:106E4000904700986D1C401C00900298401E0290D4
:106E5000002804D11A9A2E20199990476D1C019987
:106E6000481E01900029DDDC05E038781A9A7F1C65
:106E7000199990476D1C0399481E03900029F4DC72
:106E800021461A9B199A0498ACE600002D000000D8
:106E90002B0000002000000000000000F8B50446B0
:106EA00000251E461746880404D405E039462020F4
:106EB000B0476D1C641EF9D52846F8BDFFB50446E1
:106EC000002581B01E46C80301D5302700E02027E9
:106ED000880404D505E038460399B0476D1C641E4C
:106EE000F9D5284605B0F0BD10B5E12149020248A8
:106EF00000F052F810BD0000001C014000B585B044
:106F000014216846F9F792F9802000900120019041
:106F100000200290039069461348FBF771FE802120
:106F20001148FBF73BFF0120400200900120019037
:106F300000200290039069460B48FBF761FE012098
:106F400040020090012001900020029003906946C9
:106F50000548FBF755FE012149020348FBF71EFFD8
:106F6000FAF7E6FB05B000BD800C004010B5FFF756
:106F7000C5FFFDF7AFF900F0AFF8FFF7B5FFFDF77C
:106F8000D1F8FAF7A9FDFCF7C1FDFBF7C1F97D20A7
:106F9000C000FAF77FFB10BD30B58DB004460D463A
:106FA000142108A8F9F742F91C2101A8F9F73EF9C4
:106FB0004748201800280AD001218902401A20D011
:106FC0004901401A38D04911401A65D14CE00320DC
:106FD000400308900220099000200A900B900C902A
:106FE00008A93C48FBF70CFE012001900A20FCF7A1
:106FF0000DFF02210A20FCF769FF0A20FCF71EFFA3
:107000004BE00320400308900220099000200A90E2
:107010000B900C9008A92F484030FBF7F1FD0020A1
:1070200001900B20FCF7F2FE02210B20FCF74EFF33
:107030000B20FCF703FF30E00C20089002200990A1
:1070400000200A900B900C9008A922484030FBF7D2
:10705000D7FD0C20FCF7DAFE02210C20FCF736FFEE
:107060000C20FCF7EBFE18E00320089002200990AA
:1070700000200A900B900C9008A91648C030FBF72E
:10708000BFFD0D20FCF7C2FE02210D20FCF71EFF04
:107090000D20FCF7D3FE00E000BF00BF02954020AA
:1070A0000390002004900590032006900020079094
:1070B00001A92046FCF790FB2046FCF785FB00BFAA
:1070C0006068FF2101310843606000BF0DB030BD32
:1070D00000E4FEBF000C004000B595B040201090C9
:1070E00003201190002012901390149010A91848BA
:1070F000FBF786FD012000040E90052000060F908E
:107100000EA8FBF759FA002000900190049005901A
:10711000FF200130039000200290079006900B2082
:1071200000020890062009900A90002008A9087320
:10713000072040040C900120C0050D9069460548C9
:10714000FBF7C6FAFAF7C0FB0349086015B000BDAB
:10715000800C004000AC0140E81F002070B50446E0
:107160000D46E1B20548FCF7C5FC00BF0348FCF73B
:10717000A2FC0128FAD1204670BD0000001C01408D
:1071800010B50020FAF7EEFC0446002C01D00120D7
:1071900010BDD120FAF726FD0446002C01D00220B4
:1071A000F6E700210E48FBF7CFFE0E48FAF7B8FCD1
:1071B00000210B48FBF7C8FE0B48FAF7B1FC012190
:1071C0000748FBF7C1FE0948FAF7AAFC0220FAF7C4
:1071D000C9FC002801D00320DAE70020D8E700002E
:1071E000002401401400002015000020160000209B
:1071F00010B5FFF7C5FF074909780902064A12785A
:107200008918064A514308461421F8F787FF0446B7
:10721000204610BD1400002015000020710200005F
:10722000FCF748FDF9F71EFCFDF762F9FFF79EFE3B
:10723000FEF786F900F0C4F800F0EAF8A3E052483F
:107240000078012801D100F0E3F8504800780128C7
:1072500002D100204D4908704D480078012851D1D5
:10726000FCF74AFD4B490A780978491C494B1970CB
:107270009100494A50501846007804283FDD00200C
:107280001946087000BF454840684021884343497B
:10729000486000BF002007E081003F4A515882004B
:1072A0003F4B9950411CC8B20428F5DB00241BE079
:1072B000621C92003A4B9958A2009858F9F77EFA4E
:1072C00010D2601C80003649085836490860A0007A
:1072D00033490958601C8000314A11503148006818
:1072E000A1005050601CC4B2042CE1DB00BF2B484D
:1072F0004068402108432949486000BF00BF002082
:10730000234908702848007801283CD1274928489B
:10731000FCF702FD264A0021515E0A225143234A0E
:1073200012788818FBF70CF821490020085EC11775
:10733000090E09180904090E1E4A11701C49002083
:10734000085EC117090E091809120902411A517085
:10735000164800781146887004221748FDF749F84E
:107360001648006801218907084314490860084647
:10737000006801210907084310490860FAF7AAFCD0
:107380000020094908705AE7DB1F0020D81F0020A1
:10739000DA1F0020000000206821002000100140BA
:1073A0009021002008000020D91F002004000020A8
:1073B000020000200C000020D0220020B821002074
:1073C00010B50020FAF7CEFB0446002C01D00120B6
:1073D00010BD00BF0D484068082188430B49486034
:1073E00000BFD020FAF7FEFB0446002C01D002209B
:1073F000EEE71920FAF7F6FB0446002C01D0032033
:10740000E6E70220FAF7AEFB0120E1E700240140A5
:1074100010B5FAF7B7FA04467D204001844223DD17
:1074200073480068012189060843714908600846CD
:1074300000680121C90608436D4908600846406894
:107440000121C90608436A4948600846806801214D
:10745000C9060843664988600846C0680121C90614
:1074600008436349C860C1E06248844223DD604844
:1074700000680121890608435D49086008460068E4
:107480000121C90688435A4908600846406801211D
:10749000C906084356494860084680680121C90664
:1074A0000843534988600846C0680121C90608435B
:1074B0004F49C8609AE04F486438844223DD4C4805
:1074C00000680121890608434949086008460068A8
:1074D0000121C906884346490860084640680121E1
:1074E000C906884342494860084680680121C906A8
:1074F00008433F4988600846C0680121C90608431F
:107500003B49C86072E03B48C838844223DD3848B4
:10751000006801218906084335490860084600686B
:107520000121C906884332490860084640680121A4
:10753000C90688432E494860084680680121C9066B
:1075400088432B4988600846C0680121C906084362
:107550002749C8604AE0E1200001844223DD244835
:10756000006801218906084321490860084600682F
:107570000121C90688431E49086008464068012168
:10758000C90688431A494860084680680121C9062F
:107590008843174988600846C0680121C9068843A6
:1075A0001349C86022E0124800680121890648405A
:1075B0000F490860084600680121C90688430C4944
:1075C0000860084640680121C906884308494860A8
:1075D000084680680121C906884305498860084635
:1075E000C0680121C90688430149C86010BD000078
:1075F000B82100203C0F000070B505460E46224819
:107600000078012831D12148FCF7C8FE0446002C3F
:1076100002D11D49087035E0402C10DD40221C4984
:107620001A48FCF7C6FE1B484021C268184890471C
:107630004023174A81212846F9F7A4FB22E022467D
:1076400013491248FCF7B5FE12482146C26810489B
:107650009047402C02D102200B49087023460C4A67
:1076600081212846F9F78EFB0CE0074800780228B4
:1076700008D100200449087000231A4681212846B9
:10768000F9F780FB002070BD40200020D0220020B0
:1076900084220020C020002070B505460C46012C35
:1076A00014D121462846FDF7ACFA06463246084971
:1076B0000848FCF79EFE0848314602690448904796
:1076C0004023034A21462846F9F7F7FA002070BD07
:1076D00044220020C4220020C020002070B50446AF
:1076E0000D4681212046F9F767FA01212046F9F776
:1076F00063FA024948688047002070BDC02000201E
:1077000010B5044608480068FF280AD00748836877
:10771000074808490268044800689847FF20024962
:107720000860002010BD000044200020C020002080
:10773000482000203820002070B504460D46022362
:10774000402281212046F9F783FA022340220121B9
:107750002046F9F77DFA0A49086880470020094960
:107760000870FF200849086000200849086040238D
:10777000074A01212046F9F7A0FA002070BD000059
:10778000C02000204020002044200020482000206D
:107790004422002010B50446074801680068401CD8
:1077A000054A1060052905D10020114608602046D1
:1077B000FAF74EF9002010BDB420002070B5054640
:1077C0000C46207860210840002829D0202849D183
:1077D000E08800281CD020788021084000280BD0A9
:1077E000E288607824498B6824499847E2882349D5
:1077F0002846FDF726F811E0607821490860E08806
:1078000020490860E2881D492846FCF7EFFF05E0A3
:107810006078194900228B6811469847002070BD96
:107820006078062804D00A2808D00B2818D10BE06D
:1078300021462846FCF7CBFF0220F0E7012212493F
:107840002846FCF7FEFF0BE0A078012803DAA078B9
:107850000D49086003E021462846FCF7B8FF00BF49
:1078600000BF05E021462846FCF7B1FF0220D6E71D
:1078700000BF0020D3E70000C020002038200020F7
:107880004420002048200020342000202A2A2A2AD0
:107890002A2A2A2A2A2A2A2A2A2A2A2A2A2A2A2A48
:1078A0002A2A2A2A2A2A2A2A2A2A2A2A2A2A2A2A38
:1078B0002A2A2A2A2A2A2A2A2A2A2A2A2A2A2A2A28
:1078C0002A2A2A2A2A2A2A2A2A0D0A0D0A00000010
:1078D000F07800000000002068210000040A000089
:1078E000189A000068210020281800002E66000069
:1078F000C2000172FE0910D365B842107AB8422264
:107900008EB84234A2B84246B6B84258CAB8426AA3
:10791000DEB8427CF2B8428E06B942A01AB942B231
:107920002EB942C442B942D656B942E86AB942FABF
:107930007EB9420C93B9421EA7B94230BBB942424C
:10794000CFB94254E3B94266F7B942780BBA428ADA
:107950001FBA429C33BA42AE47BA42C05BBA42D267
:107960006FBA42E483BA42F697BA4208ACBA421AF6
:10797000C0BA422CD4BA423EE8BA4250FCBA426283
:1079800010BB427424BB428638BB42984CBB42AA0F
:1079900060BB42BC74BB42CE88BB42E09CBB42F29F
:1079A000B0BB4205C5BB4217D9BB4229EDBB423B28
:1079B00001BC424D15BC425F29BC42713DBC429D99
:1079C00051BC42C965BC42F579BCCC00FF00BC4249
:1079D0004EA2BC427AB6BC42A6CABC42D3DEBC426E
:1079E000FFF2BC422B07BD42571BBD42832FBD4255
:1079F000B043BD42DC57BD42086CBD423480BD423D
:107A00006194BD428DA8BD42B9BCBD42E5D0BD4226
:107A100012E5BD423EF9BD426A0DBE429621BE420C
:107A2000C335BE42EF49BE421B5EBE424772BE42F4
:107A30007486BE42A09ABE42CCAEBE42F8C2BE42DE
:107A400024D7BE4251EBBE427DFFBE42A913BF42C6
:107A5000D527BF42023CBF422E50BF425A64BF42AC
:107A60008678BF42B38CBF42DFA0BF420BB5BF4296
:107A700037C9BF4264DDBF4290F1BF42BC05C0427E
:107A8000E819C042142EC0420C42C0420456C04203
:107A9000FC69C042F47DC042EC91C042E3A5C04203
:107AA000DBB9C042D3CDC042CBE1C042C3F5C04236
:107AB000BA09C142B21DC142AA31C142A245C14266
:107AC0009A59C142916DC1428981C1421460819528
:107AD000C14279A9C14271BDC14268D1C14260E5CC
:107AE000C14258F9C142500DC2424821C2423F35FD
:107AF000C2423749C2422F5DC2422771C2421F852E
:107B0000C2421799C2420EADC24206C1C242FED461
:107B1000C242F6E8C242EEFCC242E510C342DD2496
:107B2000C342D538C342CD4CC342C560C398143E4E
:107B3000C342B488C342AC9CC342A4B0C3429CC4F9
:107B4000C34293D8C3428BECC3428300C4427B142C
:107B5000C4428D28C4429F3CC442B150C442C36455
:107B6000C442D578C442E78CC442F9A0C400142EA4
:107B7000C4421DC9C4422FDDC44241F1C442530571
:107B8000C5426519C542772DC5428941C5429B55FD
:107B9000C542AD69C542BF7DC542D191C5001075D2
:107BA000C542F5B9C54207CEC54219E2C5422BF61A
:107BB000C5423D0AC6424F1EC6426132C6427446A5
:107BC000C642865AC642986EC642AA82C642BC9631
:107BD000C642CEAAC642E0BEC642F2D2C64204E7C0
:107BE000C64216FBC642280FC7423A23C7424C374B
:107BF000C7425E4BC742705FC7428273C7429487D9
:107C0000C742A69BC742B8AFC742CAC3C742DCD768
:107C1000C742EEEB04186BFAC7420000C842F813E3
:107C2000C842F027C842E73BC842DF4FC842D7638B
:107C3000C842CF77C842C78BC842BE9FC842B6B3BE
:107C4000C842AEC7C842A6DBC8429EEFC8429603F0
:107C5000C9428D17C942852BC9427D3FC942755320
:107C6000C9426D67C942647BC9425C8FC94254A353
:107C7000C9424CB7C94244CBC9423BDFC94233F386
:107C8000C99C1C16CA42231BCA421B2FCA4212435C
:107C9000CA420A57CA42026BCA6803142ECA42F289
:107CA00092CA42E9A6CA42E1BACA42D9CECA42D170
:107CB000E2CA42C9F6CA42C10ACB42B81ECB42B0A0
:107CC00032CB42A846CB42A05ACB041C8ECB428F6B
:107CD00082CB428796CB427FAACB4277BECB426F04
:107CE000D2CB4266E6CB425EFACB42560ECC424E37
:107CF00022CC424636CC423D4ACC42355ECC422D67
:107D000072CC422586CC421D9ACC4214AECC420C99
:107D1000C2CC4204D6CC42FCE9CC42F4FDCC42ECCD
:107D200011CD42E325CD42DB39CD42D34DCD42CBFF
:107D300061CD42C375CD42BA89CD42B29DCD42AA32
:107D4000B1CD42A2C5CD429AD9CD4291EDCD428965
:107D500001CE428115CE427929CE9C031C1ACE4217
:107D60006851CE426065CE425879CE42508DCE42A7
:107D700048A1CE423FB5CE04031ACE041C8ECE429B
:107D800027F1CE421F05CF421719CF420E2DCF4209
:107D90000641CF42FE54CF42F668CF42EE7CCF423E
:107DA000E590CF42DDA4CF42D5B8CF42CDCCCF4273
:107DB000C5E0CF42BCF4CF42B408D042AC1CD042A4
:107DC000A430D0429C44D0429358D0428B6CD042D5
:107DD0008380D0427B94D04273A8D0426ABCD04208
:107DE00062D0D0425AE4D04252F8D0424A0CD1423A
:107DF0004220D1423934D1423148D142295CD1426A
:107E00002170D1421984D1421098D19C04182ED1EE
:107E10004200C0D142F8D3D142F0E7D142E7FBD1D2
:107E200042DF0FD242D723D242CF37D242C74BD202
:107E300042BE5FD242B673D242AE87D2381C12D253
:107E4000429EAFD24296C3D2428DD7D24285EBD268
:107E50000404145ED2427513D3426D27D342643BAF
:107E6000D3425C4FD3425463D3424C77D342448BCA
:107E7000D3423B9FD34233B3D34211C7D342EEDA4E
:107E8000D342CCEED342AA02D4428716D442652A0A
:107E9000D442423ED4422052D442FE65D442DB79E1
:107EA000D442B98DD44296A1D44274B5D44252C9B9
:107EB000D434183AD4420DF1D442EA04D542C81859
:107EC000D542A52CD5428340D5426154D5423E6867
:107ED000D5421C7CD542F98FD542D7A3D542B5B740
:107EE000D54292CBD54270DFD5424DF3D5681C0AFE
:107EF000D642091BD642E62ED6D0051C16D642A184
:107F000056D6427F6AD6425D7ED6423A92D6421813
:107F1000A6D66C031ED66C041426D642B1E1D64216
:107F20008EF5D6426C09D742491DD7422731D74238
:107F30000545D742E258D742C06CD7429D80D768EA
:107F40001C1AD74258A8D74236BCD74214D0D742C1
:107F5000F1E3D742CFF7D742AC0BD804061C16D8B2
:107F6000426833D8424547D842235BD842006FD895
:107F700042DE82D8A0031806D84299AAD89C1C26B3
:107F8000D84254D2D84232E6D84210FAD842ED0D47
:107F9000D942CB21D942A835D9428649D942645D1C
:107FA000D9424171D9A0041C16D942FC98D942DAB1
:107FB000ACD942B8C0D94295D4D94273E8D9380671
:107FC000140ED9422E10DA420B24DA42E937DA9C39
:107FD0001C06DA42A45FDAD4031C0EDA425F87DAA9
:107FE000423D9BDA421BAFDAA0051822DA42D6D610
:107FF000DA42B3EADA4291FEDA426F12DB424C26F1
:10800000DB422A3ADB42074EDB42E561DBD01C1241
:10801000DB42A089DB427E9DDB425BB1DB4239C59E
:10802000DB6C061C0EDB42F4ECDB42D200DC42AF20
:1080300014DCD4041C16DC426A3CDC424850DC42AE
:108040002664DC420378DC42E18BDC04041C2EDC79
:10805000429CB3DC427AC7DC4257DBDC4235EFDCC2
:10806000421203DD42F016DD42CE2ADD42AB3EDD98
:10807000428952DD426666DD42447ADDA0061C1666
:10808000DD42FFA1DD42DDB5DD42BAC9DD4298DD4A
:10809000DD4276F1DD08051C06DE423119DE0403FF
:1080A0001C3ADE42EC40DE42CA54DE42A768DE42A1
:1080B000857CDE426290DE4240A4DE421DB8DE4294
:1080C000FBCBDE42D9DFDE42B6F3DE429407DF426D
:1080D000711BDF424F2FDF422D43DF38041EDFA02C
:1080E000071C16DF42C57EDF42A392DF4281A6DF76
:1080F000425EBADF423CCEDF3C051C0ADF42F7F5A8
:10810000DF42D509E03C061C26E0429031E0426D9A
:1081100045E0424B59E042296DE0420681E042E4ED
:1081200094E042C1A8E0429FBCE0427DD0E0380329
:108130001C12E04238F8E042150CE142F31FE14224
:10814000D033E1D4071C16E1428C5BE142696FE158
:10815000424783E1422497E14202ABE170051C0EE5
:10816000E142BDD2E1429BE6E14278FAE16C041CB7
:108170000AE2423422E2421136E23C071C1AE24291
:10818000CC5DE242AA71E2428885E2426599E24210
:1081900043ADE24220C1E270061C0EE242DCE8E29E
:1081A00042B9FCE2429710E308081412E342523845
:1081B000E342154CE342D95FE3429C73E3D01C16C3
:1081C000E342239BE342E6AEE342AAC2E3426DD61A
:1081D000E34230EAE3A0041C12E342B711E4427A1E
:1081E00025E4423E39E442014DE4A4061C12E44277
:1081F0008874E4424B88E4420F9CE442D2AFE4A08E
:10820000031816E44259D7E4421CEBE442E0FEE4D2
:1082100042A312E5426626E5041C4AE542ED4DE51F
:1082200042B161E5427475E5423789E542FB9CE560
:1082300042BEB0E54281C4E54245D8E54208ECE5DE
:1082400042CCFFE5428F13E6425227E642163BE658
:1082500042D94EE6429C62E6426076E642238AE6D6
:1082600042E79DE60805180AE6426DC5E64231D9A7
:10827000E6381C06E642B800E70C071C06E7423E5B
:1082800028E70C081C0AE742C54FE7428863E70865
:10829000041C2AE7420F8BE742D39EE74296B2E7DF
:1082A0004259C6E7421DDAE742E0EDE742A301E8A2
:1082B000426715E8422A29E842EE3CE84007180EDA
:1082C000E8427464E8423878E842FB8BE86C1C0EA4
:1082D000E84282B3E84245C7E84209DBE83C041CB7
:1082E00012E8428F02E9425316E942162AE942D9BE
:1082F0003DE90C091EE970051C06E9422479E97480
:10830000071826E942AAA0E9426EB4E94231C8E959
:1083100042F5DBE942B8EFE9427B03EA423F17EA64
:1083200042022BEA42C53EEAA01C06EA424C66EA3B
:108330000C0A1C06EA42D38DEA70041C06EA425A73
:10834000B5EAA8071C1AEA42E0DCEA42A4F0EA42D5
:108350006704EB422B18EB42EE2BEB42B13FEBD81C
:10836000061C12EB423867EB42FB7AEB42BF8EEB06
:108370004282A2EB400A1C0AEB4209CAEB42CCDD66
:10838000EBDC081AEBD41EECD8051C0AEC42DA2C04
:10839000EC429D40ECA4041C1EEC422468EC42E735
:1083A0007BEC42AB8FEC426EA3EC4232B7EC42F571
:1083B000CAEC42B8DEEC740A1C0EEC423F06ED42F9
:1083C000021AED42C62DED10081C16ED424D55ED7A
:1083D000421069ED42D37CED429790ED425AA4EDF4
:1083E00008031C0EED42E1CBED42A4DFED4268F341
:1083F000EDD8041C06EE42EE1AEEA80A1C0AEE4264
:108400007542EE423956EE44091EEE44081C0EEE4B
:10841000428391EE4246A5EE4209B9EE40061C0E9B
:10842000EE4276E0EE421FF4EE42C807EF3C031E38
:10843000EF74071EEF0C05100AEF426D56EF42165F
:108440006AEF341C16EF426891EF4212A5EF42BB6F
:10845000B8EF4264CCEF420DE0EF70031C06EF4230
:108460005F07F0400512F0681C06F0425B42F0AC7A
:10847000091EF0AC081C12F042567DF0420091F04B
:1084800042A9A4F04252B8F0A40312F09C1EF0746A
:10849000051C06F042F706F1440B1C0AF142492E76
:1084A000F142F241F1E0081C06F1424469F1DC06B8
:1084B00012F1D01EF1D8031C06F142E9B7F1A8056C
:1084C0001EF110081C06F142E5F2F1780B140AF2D5
:1084D00042371AF242E02DF2041C0AF2423255F2FF
:1084E00042DC68F20C041C06F2422E90F2DC051C01
:1084F0000AF24280B7F24229CBF2E00A16F2381CA7
:108500000AF2422506F342CE19F348091C06F3424B
:108510002041F340041C06F3427368F3100614066E
:10852000F342C58FF36C1C0AF34217B7F342C1CA7A
:10853000F3E00B1C06F34213F2F37C0A1EF47C09F1
:108540001EF474041406F442B840F4A01C0AF44269
:108550000A68F442B37BF4AC081C0AF44205A3F4A5
:1085600042AEB6F4140C140AF44201DEF442AAF14D
:10857000F4D41C06F542FC18F57806181AF5424F9B
:1085800040F542F853F542A167F5424A7BF542F3C4
:108590008EF5429CA2F5081C06F542EFC9F5DC04F5
:1085A0001EF5E4091EF5AC061812F6429318F642C1
:1085B0003D2CF642E63FF6428F53F63C1C0AF6424B
:1085C000E17AF6428A8EF67C0C1EF610051C06F641
:1085D0004286C9F6E006180AF642D8F0F64281044F
:1085E000F7701C06F742D42BF748091C0EF74226F9
:1085F00053F742CF66F742787AF744051C06F742F4
:10860000CBA1F714071AF7A41C1EF742C6DCF742E9
:108610006FF0F7421904F842C217F8426B2BF84288
:10862000143FF842BD52F878051AF8D81EF84807EA
:108630001C06F84262A1F8800A1C16F842B4C8F879
:10864000425DDCF84207F0F842B003F9425917F9ED
:108650000C031EF9AC051C06F9425452F97C071CA8
:1086600006F942A779F9B0081EF9B40A1C0AF942C2
:10867000A2B4F9424BC8F940031EF9E4091C06F9FB
:10868000424703FAE0051C06FA42992AFAB0071C91
:108690000EFA42EC51FA429565FA423E79FA7403B9
:1086A0001C12FA4290A0FA4239B4FA42E3C7FA42E5
:1086B0008CDBFA14061C06FA42DE02FBE4071C06F9
:1086C000FB42302AFBA8031C0AFB428351FB422CCD
:1086D00065FB1C0B1C0EFB427E8CFB4227A0FB4261
:1086E000D0B3FB48061C06FB4223DBFBDC031C0E5D
:1086F000FB427502FC421E16FC42C729FC4C091CB9
:1087000006FC421A51FC500B1C0AFC426C78FC42DD
:10871000158CFC10041C06FC4268B3FC4C081C12AF
:10872000FC42BADAFC4263EEFC420C02FD42B51593
:10873000FD1C0D1C06FD42083DFD44041EFD840C7D
:108740001EFDB0061C1AFD42AC8BFD42569FFD4239
:10875000FFB2FD42A8C6FD4251DAFD42FAEDFD78B6
:10876000041EFE500D1C22FE42F628FE42853CFEF1
:10877000421450FE42A363FE423277FE42C18AFE9B
:10878000424F9EFE42DEB1FEE0041C06FE42FCD8D3
:10879000FEEC0B1C06FE421A00FFEC0C1C0EFF4206
:1087A0003827FF42C73AFF42564EFF4C071EFF488C
:1087B00005404DFF420389FF42929CFF4221B0FFDA
:1087C00042B0C3FF423FD7FF42CEEAFF425DFEFF09
:1087D00042F6080043BD120043851C00434C2600AE
:1087E0004314300043DB390043A34300436A4D0088
:1087F0004332570043F9600043C16A004388740460
:1088000000FF0017880043DE910043A69B00436DE4
:10881000A5004335AF0043FCB80043C4C200438BFE
:10882000CC004353D600431AE00043E2E90043A9D9
:10883000F3004371FD00433807014300110143C7B2
:108840001A01438F240143562E01431D380143E58D
:10885000410143AC4B0143745501433B5F0143036A
:10886000690143CA720143927C0143598601432145
:10887000900143E8990143B0A3014377AD01433F21
:10888000B7014306C10143CECA014395D401435DFC
:10889000DE014324E80143ECF10143B3FB01437AD9
:1088A000050243420F024309190243D122024398B1
:1088B0002C02436036024327400243EF490243B68D
:1088C0005302437E5D0243456702430D710243D468
:1088D0007A02439C840243638E02432B980243F244
:1088E000A10243BAAB024381B5024348BF02431021
:1088F000C90243D7D202439FDC024366E60243210A
:10890000F010D50243DBF9024396030343500D03F5
:10891000430A170343C52003437F2A034339340323
:1089200043F43D0343AE47034368510343235B03D2
:1089300043DD640343986E0343527803430C820380
:1089400043C78B0343819503433B9F0343F6A8032F
:1089500043B0B203436ABC034325C60343DFCF03DE
:10896000439AD9034354E303430EED0343C9F6038B
:1089700043830004433D0A0443F8130443B21D0437
:10898000436D27044327310443E13A04439C4404E4
:1089900043564E044310580443CB610443856B0493
:1089A000433F750443FA7E0443B48804436F920442
:1089B00043299C0443E3A504439EAF044358B904F0
:1089C0004312C30443CDCC044394D604435CE00477
:1089D0004323EA0443EBF35C14C7FD04437A070521
:1089E0004341110543091B0543D0240543982E0537
:1089F000435F38054327420543EE4B0543B5550514
:108A0000437D5F0543446905430C730543D37C05EF
:108A1000439B860543629005432A9A0543F1A305CB
:108A200043B9AD054380B7054348C105430FCB05A6
:108A300043D7D405439EDE054366E805432DF20582
:108A400043F5FB0543BC050643830F06434B19065C
:108A50004312230643DA2C0643A136064369400637
:108A600043304A0643F8530643BF5D064387670613
:108A7000434E710643167B0643DD840643A58E06EE
:108A8000436C98064334A20643FBAB0643C3B506CA
:108A9000437DBF064337C90643F2D20643ACDC062A
:108AA000A41606A41606A41606A41607A41607A460
:108AB0001607A41607A41607A41607A41607A416DB
:108AC00007A41607A41607A41607A41607A41607DA
:108AD000A41607A41607A41607A41607A41607A42D
:108AE0001607A41607A41607A41607A41607A416AB
:108AF00007A41607A41607A41608A41608A41608A7
:108B0000A41608A41608A41608A41608A41608A4F7
:108B10001608A41608A41608A41608A41608A41675
:108B200008A41608A41608A41608A41608A4160873
:108B3000A41608A41608A41C12084387D6084342AA
:108B4000E00843FCE90843B6F308480314C60843A9
:108B50002B070943E5100943A01A09435A24094386
:108B6000142E0943CF37094389410943444B094334
:108B7000FE540943B85E0943736809432D720943E3
:108B8000E77B0943A28509435C8F09431799094391
:108B9000D1A209438BAC094346B6094300C009433F
:108BA000BAC9094375D309432FDD0943E9E60943EF
:108BB000A4F009435EFA094319040A43D30D0A439A
:108BC0008D170A4348210A43022B0A43BC340A4347
:108BD000773E0A4331480A43EC510A43A65B0A43F5
:108BE00060650A431B6F0A43D5780A438F820A43A4
:108BF0003D8C0A43EA950A43979F0A4344A90A43D6
:108C0000F2B20A439FBC0A434CC60A43F9CF0A4357
:108C1000A7D90A3C18720A4301ED0A43AEF60A438B
:108C20005C000B43090A0B43B6130B43641D0B4353
:108C300011270B43BE300B436B3A0B4319440B43D4
:108C4000C64D0B4373570B4320610B43CE6A0B4356
:108C50007B740B43287E0B43D5870B4383910B43D7
:108C6000309B0B43DDA40B438AAE0B4338B80B4358
:108C7000E5C10B4392CB0B433FD50B43EDDE0B43DA
:108C80009AE80B4347F20B7818A20B43A2050C435A
:108C90004F0F0C43FC180C43AA220C43572C0C43D7
:108CA00004360C43B13F0C435F490C430C530C4357
:108CB000B95C0C4366660C4314700C43C1790C43D9
:108CC0006E830C431B8D0C43C9960C4376A00C435A
:108CD00023AA0C43D0B30C437EBD0C432BC70C43DB
:108CE000D8D00C4386DA0C4333E40C43E0ED0C435C
:108CF0008DF70C433B010D43E80A0D4395140D43DA
:108D0000421E0D43F0270D439D310D434A3B0D4359
:108D1000F7440D43A54E0D4352580D43FF610D43DB
:108D2000AC6B0D435A750D43077F0D101C160D4398
:108D300061920D430F9C0D43BCA50D4369AF0D43DC
:108D400017B90D58051C420D4371CC0D431ED60DAD
:108D500043CCDF0D4379E90D4326F30D43D3FC0DDE
:108D60004381060E432E100E43DB190E4388230E5B
:108D700043362D0E43E3360E4390400E433D4A0EDC
:108D800043EB530E43985D0EF0041CA60E43F270A5
:108D90000E43A07A0E434D840E43FA8D0E43A897DE
:108DA0000E4355A10E4302AB0E43AFB40E435DBE5E
:108DB0000E430AC80E43B7D10E4364DB0E4312E5DF
:108DC0000E43BFEE0E436CF80E4319020F43C70B60
:108DD0000F4374150F43211F0F43CE280F437C32DE
:108DE0000F43293C0F43D6450F43834F0F4331595F
:108DF0000F43DE620F438B6C0F4339760F43E67FE0
:108E00000F4393890F4340930F43EE9C0F439BA660
:108E10000F4348B00F43F5B90F43A3C30F4350CDE1
:108E20000F43FDD60F43AAE00F4358EA0F4305F462
:108E30000F880418120F435F0710430D111043BA37
:108E40001A1043672410E41C2E1043C23710436FDE
:108E50004110431C4B1043CA541043775E10432407
:108E6000681043D17110437F7B10432C851043D988
:108E70008E104386981020041CAC1043E1AB1043C5
:108E80008EB510433BBF1043E9C8104396D2104340
:108E900043DC1043F0E510439EEF10434BF91043C1
:108EA000F8021143A50C114353161143002011433E
:108EB000AD2911435B331143083D1143B5461143BE
:108EC00062501143105A1143BD6311436A6D11433F
:108ED00017771143C5801143728A11431F941143C0
:108EE000CC9D11437AA7114327B11143D4BA114342
:108EF00081C411432FCE1143DCD7114389E11143C3
:108F000036EB1143E4F4114391FE11433E08124342
:108F1000EC1112438C1B12432C251243CC2E12430E
:108F20006C3812430C62121C10AC4B12434D55129C
:108F300043ED5E12438D6812B803101A1243CD7BC5
:108F400012436D8512430E8F1243AE9812434EA208
:108F50001243EEAB12D4144212432EBF1243CEC8BA
:108F600012436FD212430FDC1243AFE512434FEFAF
:108F70001243EFF812438F021343300C1343D01502
:108F80001343701F134310291343B0321343503C53
:108F90001343F0451343914F13A81C2A1343D16286
:108FA0001343716C134311761343B17F13435289FA
:108FB0001343F2921343929C134332A61343D2AF4E
:108FC000134372B9138C041C061343B3CC13D40798
:108FD000180E1343F3DF134393E9134333F3137C66
:108FE0001C4213437406144314101443B41914435D
:108FF00054231443F42C1443943614433440144340
:10900000D549144375531443155D1443B566144391
:1090100055701443F579144396831443368D1443E5
:10902000D6961450031C2E144316AA1443B6B31438
:109030004356BD1443F7C6144397D0144337DA148C
:1090400043D7E3144377ED144317F71443B80015DF
:1090500043580A1560051C121543981D15433827FF
:109060001543D8301543783A1524041C0A1543B922
:109070004D1543595715A8081C561543996A1543B1
:1090800039741543D97D15437A8715431A911543D1
:10909000BA9A15435AA41543FAAD15439AB7154326
:1090A0003BC11543DBCA15437BD415431BDE154377
:1090B000BBE715435BF11543FBFA15439C041643CC
:1090C0003C0E1643DC1716437C2116431C2B16F866
:1090D000041C1216435D3E1643FD4716439D511670
:1090E000433D5B1634061C7616437D6E16431D7891
:1090F0001643BE8116435E8B1643FE9416439E9E16
:1091000016433EA81643DEB116437FBB16431FC568
:109110001643BFCE16435FD81643FFE116439FEBBD
:1091200016433FF51643E0FE16438008174320120E
:109130001743C01B174360251743002F1743A1385F
:10914000174341421743E14B174381551743215FB2
:109150001743C168174361721743027C17CC051C83
:10916000121743428F1743E298174382A2174322F4
:10917000AC1708071806174356BF17E81806174319
:109180007CD2171411281C37E5174335EF1743C855
:10919000F817435B021843EE0B184381151843146C
:1091A0001F1843A72818433A321843CD3B18436091
:1091B000451843F34E184386581843196218900413
:1091C0001E18A0061C2E1843D37E18436688184329
:1091D000F99118438C9B18431FA51843B2AE18434E
:1091E00045B81843D8C118436BCB1843FED4184375
:1091F00091DE188009141E1843B7F118434AFB1872
:1092000043DD041943700E194303181943962119BD
:1092100043292B1940103919434F3E1943E347198D
:109220004376511943095B19439C6419432F6E1906
:1092300043C277194355811943E88A19437B94192E
:10924000431B9E1943BBA719435BB11943FBBA28C3
:109250001C07C419433CCE195403100919437CE17F
:1092600019431CEB501C1BF419435DFE1943FD0709
:109270001A439D111A433D1B1A43DD241A437D2EC8
:109280001A540A1C0A1A43BE411A435E4B1A0C07B1
:109290001C0E1A439E5E1A433E681A43DE711A285A
:1092A00004143E1A431F851A43BF8E1A435F981A4F
:1092B00043FFA11A439FAB1A433FB51A43E0BE1ABE
:1092C0004380C81A4320D21A43C0DB1A4360E51A10
:1092D0004300EF1A43A1F81A4341021B43E10B1B61
:1092E000401E1BFC041C321B43C1281B4361321B64
:1092F00043023C1B43A2451B43424F1B43E2581B06
:109300004382621B43226C1B43C3751B43567F1B66
:1093100043E9881B437C921BD00511281FA51B28FD
:109320000B100D1B43C8B81B435BC21B43EECB5055
:10933000184FD51B4314DF1B43A7E81B433AF21B0E
:1093400043CDFB1B4360051C43F30E1C4386181CD6
:109350004319221C43AC2B1C433F351C43D33E1CFA
:109360004366481C43F9511C438C5B1C431F651C1E
:1093700043B26E1C4345781C43D8811C436B8B1C45
:109380008014261C43919E1C4324A81C43B7B11C87
:10939000434ABB1C43DDC41C4370CE1C4303D81C92
:1093A0004396E11C4329EB1C401C0E1C434FFE1C42
:1093B00043E3071D4376111DF0091C0A1D439C243D
:1093C0001D432F2E1D68051C121D4355411D43E8EA
:1093D0004A1D437B541D43015E1D88091E1D2C0B35
:1093E0001C1A1D43937A1D4319841D439F8D1D43F1
:1093F00024971D43AAA01D4330AA1DC00310051DBC
:10940000433CBD3C1C0BC61D4348D01D43CED91D5B
:10941000E40718321D43DAEC1D4360F61D43E6FFF6
:109420001D436C091E43F2121E43781C1E43FE2589
:109430001E43832F1E4309391E438F421E43154C82
:109440001E439B551EEC1C061E43A7681E000514F8
:109450000A1E43B37B1E4339851EAC1C121E4345B6
:10946000981E43CBA11E4351AB1E43D7B41EA80682
:109470001C261E43E3C71E4368D11E43EEDA1E437B
:1094800074E41E43FAED1E4380F71E4306011F439A
:109490008C0A1F4312141F2C041C261F431E271F57
:1094A00043A4301F432A3A1F43B0431F43364D1F86
:1094B00043BC561F4342601F43C7691F434D731F80
:1094C000C80A1E1F6C0C1C161F43DF8F1F436599B3
:1094D0001F43EBA21F4371AC1F43F7B51F600A1C6B
:1094E0000A1F4303C91F4389D21F5803180A1F4389
:1094F00095E51F431BEF1F181C1A1F43270220432B
:10950000AC0B204332152043B81E20433E28204395
:10951000C43120E8071C062043D04420F8091C165B
:109520002043DC57204362612043E86A20436E7485
:109530002043F47D2098041C222043009120438680
:109540009A20430BA4204391AD204317B720439D9D
:10955000C0204323CA2043A9D32090091C162043CE
:10956000B5E620433BF02043C1F9204347032143A4
:10957000CD0C21AC061C122143D91F21435F2921A8
:1095800043E53221436A3C21D805180A2143764F2E
:109590002143FC5821841C162143086C21438E75FD
:1095A0002143147F21439A882143209221AC0D1C32
:1095B0000621432CA521C4031E2128091C16214382
:1095C000BEC1214344CB2143CAD421434FDE2143B2
:1095D000D5E72104051C162143E1FA214367042243
:1095E00043ED0D224373172243F92022380B1C2A26
:1095F0002243053422438B3D224311472243975097
:1096000022431D5A2243A3632243296D2243AE768F
:10961000224334802243BA8922EC071C0A2243C623
:109620009C22434CA62244061E22D00A182A22431A
:10963000DEC2224364CC2243EAD5224370DF2243B8
:10964000F6E822437CF2224302FC224388052343AE
:109650000E0F2343931823F01C0E23439F2B234309
:1096600025352343AB3E23680A1C062343B7512309
:1096700070051C0E2343C3642343496E2343CF77F5
:109680002330041C3A2343DB8A234361942343E7BA
:109690009D23436DA72343F2B0234378BA2343FEAF
:1096A000C3234384CD23430AD7234390E0234316A7
:1096B000EA23439CF3234322FD2343A806242C09D9
:1096C0001E24B0061C3224433A232443C02C2443D6
:1096D00046362443CC3F244352492443D7522443A3
:1096E0005D5C2443E3652443696F2443EF7824439E
:1096F00075822443FB8B24100C1C122443079F24E7
:10970000438DA8244313B2244399BB24DC051C0ECB
:109710002443A5CE24432BD82443B1E124F0071ED3
:10972000245C031C12244342FE2443C80725434EF5
:10973000112543D41A25A80B1C122543E02D2543DF
:1097400066372543EC402543724A25E40C1E2588E4
:109750000E1C0E2543046725438A702543107A2585
:109760001C071E256C0A1C422543A196254327A0F1
:109770002543ADA9254333B32543B9BC25433FC693
:109780002543C5CF25434BD92543D1E2254357EC8B
:109790002543DDF5254363FF2543E90826436F1282
:1097A0002643F51B26437A252648061C06264386B3
:1097B00038265C081C0A2643924B26431855260877
:1097C000051E2630091C262643AA712643307B2617
:1097D00043B68426433C8E2643C297264348A1269F
:1097E00043C1AA264339B42643B2BD26D80A1C0E6B
:1097F0002643A4D026431DDA264396E326E80C1020
:1098000005264387F6581C07002743790927C80314
:109810001C1E27436A1C2743E32527435C2F27434D
:10982000D53827434E422743C74B27433F55278010
:109830000C100627433168276C1C062743237B271F
:10984000600F1C262743148E27438D97274306A1BC
:1098500027437FAA2743F8B3274371BD2743E9C6AF
:10986000274362D02743DBD927340410262743CD72
:10987000EC274346F62743BEFF274337092843B06A
:10988000122843291C2843A22528431B2F28439331
:109890003828D81C062843854B28E0051E28080ACE
:1098A0001C222843F067284368712843E17A284343
:1098B0005A842843D38D28434C972843C5A0284376
:1098C0003DAA28A0041C0E28432FBD2843A8C62863
:1098D0004321D028C00D1416284312E328438BECF3
:1098E000284304F628437DFF2843F60829441C0634
:1098F0002943E71B298C071C0E2943D92E294352E3
:10990000382943CB4129580D1C122943BC54294303
:10991000355E2943AE672943277129480B1E290C60
:10992000050009202943918D2943010001101A8760
:109930004900008D48000061510000254F0000B52E
:109940004E00001F540000ED088C07114D00002B45
:109950004D112000051EF41F00205052FF58400BEF
:1099600039770000DD760000BD7710120110100677
:10997000F975000099148395778010103155000017
:1099800009023C00020100C03209041212020B104D
:109990001A05240010010524010001042402020517
:1099A0002406000109040100020A3220060705010D
:1099B000024007228107319922C2EA100808005D9F
:1099C00065000053041006716400004D0C12390C40
:1099D000126DCC12B1D012C1D412E10C1219701256
:1099E000451412890C1212521009020200104D4641
:1099F000020481000B3D0203010403020442030040
:109A000001128560127F04126968128304128110AA
:089A1000126B14437D545A004F
:04000005000000C136
:00000001FF
